:100000000C9476010C949E010C949E010C949E011C
:100010000C949E010C949E010C949E010C949E01E4
:100020000C949E010C949E010C9455050C94DC05D7
:100030000C949E010C949E010C949E010C949E01C4
:100040000C949E010C944D020C949E010C949E0104
:100050000C949E010C949E010C949E010C94250717
:100060000C949E010C949E010C949E010C949E0194
:100070000C949E010C949E010C949E010C949E0184
:100080000C949E010C949E010C949E010C949E0174
:100090000C949E010C949E010C949E010C949E0164
:1000A0000C949E010C949E010C949E010000000093
:1000B000240027002A002D00300000000000250049
:1000C00028002B002E003100000000002300260035
:1000D00029002C002F000404040404030405020278
:1000E00002020403020202020606060606060404D1
:1000F00002020204040802011040804010204080E7
:10010000408008020401804020100201108010206D
:1001100040400000000200080E0000030401000B34
:1001200000000000000000000000000000000000CF
:10013000070605040100080A0B0C0D090403090455
:100140002203410072006400750069006E006F00B8
:1001500020004C0065006F006E00610072006400BA
:100160006F001803410072006400750069006E00A2
:100170006F0020004C004C00430012010002000000
:1001800000404123368000010102000112010002FB
:10019000020000404123368000010102000100C13D
:1001A0008081C1080B000202020100090400000165
:1001B00002020000052400100105240101010424AD
:1001C000020605240600010705810310004009040A
:1001D0000100020A000000070502024000000705B6
:1001E000830240000005010902A1010901A1008567
:1001F00001050919012903150025019503750181E0
:100200000295017505810305010930093109381589
:1002100081257F750895038106C0C005010906A1E7
:10022000018502050719E029E715002501750195EB
:10023000088102950175088103950675081500254A
:10024000650507190029658100C009040200010342
:100250000000000921010100012265000705840357
:1002600040000100000000000000002A2B280000D0
:10027000000000000000000000000000000000007E
:100280000000002C9EB4A0A1A2A434A6A7A5AE365F
:100290002D3738271E1F20212223242526B333B6CD
:1002A0002EB7B89F8485868788898A8B8C8D8E8FA0
:1002B000909192939495969798999A9B9C9D2F31A3
:1002C00030A3AD350405060708090A0B0C0D0E0F07
:1002D000101112131415161718191A1B1C1DAFB183
:1002E000B0B50000A101910466086B0911241FBE7E
:1002F000CFEFDAE0DEBFCDBF11E0A0E0B1E0E2EB8E
:10030000F5E102C005900D92AA32B107D9F711E0CC
:10031000AAE2B1E001C01D92A43CB107E1F712E0EE
:10032000CCEED2E004C02297FE010E94D30AC43E64
:10033000D107C9F70E94CB030C94D70A0C94000094
:1003400008958AE291E00E94AD0108958AE291E069
:1003500069E070E00E9446020895FC0180912D0141
:100360008C3090F480838F5F80932D01815090E0DA
:10037000FC01EE0FFF1FE80FF91FE25DFE4F88EB57
:100380009BE09283818308958FEF80830895CF92BD
:10039000DF92EF92FF921F93CF93DF93EC01162F22
:1003A0007A01690188818C3008F064C0862F61E091
:1003B0000E940B03888190E0FC01EE0FFF1FE80F05
:1003C000F91FE25DFE4F1F738081807C812B80834B
:1003D00080E292E08E199F0964E070E00E94AA0A10
:1003E000698380E699E08C199D0964E070E00E94C1
:1003F000AA0A6A83A8818A2F6CE00E949E0A682F4D
:1004000070E0AB01440F551F460F571F440F551F97
:10041000440F551F20E030E0C901840F951FFC01F7
:10042000EE0FFF1FE80FF91FE25DFE4F808186FD92
:1004300015C02F5F3F4F2C30310571F724C010924B
:10044000800082E0809381001092850010928400E9
:10045000B19A80916F00826080936F008A2F90E044
:10046000FC01EE0FFF1FE80FF91FE25DFE4F8081D8
:10047000806480838881DF91CF911F91FF90EF90FE
:10048000DF90CF900895672BD1F2E8CF40E252E0A1
:1004900020E639E00E94C70108951F920F920FB61F
:1004A0000F9211242F933F934F935F936F937F93FA
:1004B0008F939F93AF93BF93EF93FF9380915201DC
:1004C00087FF05C010928500109284002BC02091F8
:1004D0005201332727FD309580912D0190E0281798
:1004E000390704F580915201992787FD9095FC0109
:1004F000EE0FFF1FE80FF91FE25DFE4F808186FFC0
:1005000011C080915201992787FD9095FC01EE0F53
:10051000FF1FE80FF91FE25DFE4F80818F7360E0DF
:100520000E949803809152018F5F80935201209125
:100530005201332727FD309580912D0190E0281737
:1005400039070CF04EC0809152018C300CF049C03C
:10055000209184003091850080915201992787FD78
:100560009095FC01EE0FFF1FE80FF91FE25DFE4FB3
:1005700081819281280F391F309389002093880050
:1005800080915201992787FD9095FC01EE0FFF1F86
:10059000E80FF91FE25DFE4F808186FF2BC080913E
:1005A0005201992787FD9095FC01EE0FFF1FE80F80
:1005B000F91FE25DFE4F80818F7361E00E94980316
:1005C00019C080E49CE905C0809184009091850069
:1005D000049690938900809388008FEF8093520156
:1005E00009C08091840090918500049680549C49B4
:1005F00040F3EACFFF91EF91BF91AF919F918F911F
:100600007F916F915F914F913F912F910F900FBE0E
:100610000F901F901895CF93DF93482F50E0CA0199
:100620008C509F4FFC0134914A525F4FFA018491E4
:10063000882369F190E0880F991FFC01E455FF4F72
:10064000A591B491FC01E654FF4FC591D491662366
:1006500051F42FB7F8948C91932F909589238C9314
:10066000888189230BC0623061F42FB7F8948C9194
:10067000932F909589238C938881832B88832FBF18
:1006800006C09FB7F8948C91832B8C939FBFDF910A
:10069000CF910895883071F1893068F4823031F15A
:1006A000833020F4813009F042C01DC0833089F0CE
:1006B0008430E9F512C08B3059F18C3028F4893040
:1006C000E9F08A30A1F51EC08C3031F18E3079F519
:1006D00029C0809180008F7703C0809180008F7D3A
:1006E00080938000089584B58F7702C084B58F7D94
:1006F00084BD0895809190008F7707C0809190000D
:100700008F7D03C080919000877F80939000089533
:100710008091C0008F7703C08091C0008F7D80934F
:10072000C00008958091C200877F8093C200089521
:10073000FF920F931F93F62E482F50E0CA018E5E52
:100740009E4FFC012491CA018C509F4FFC011491D3
:100750004A525F4FFA0104910023C9F0222319F095
:10076000822F0E944A03E02FF0E0EE0FFF1FE654B5
:10077000FF4FA591B4919FB7F894FF2021F48C917D
:100780001095812302C08C91812B8C939FBF1F9168
:100790000F91FF900895CF93DF930E94C6078BE5DA
:1007A00091E00E9492040E94A601C0E0D0E00E9465
:1007B000A0012097E1F30E940000F9CF282F80913B
:1007C00055018823C1F057FF1AC015C0289890938F
:1007D00054018091F1008193E217F307B9F74115B5
:1007E000510539F08091F200882319F48BE680934B
:1007F000E800AFBF02C04FEF5FEFCA010895AFB787
:10080000F89427702093E9008091F200282F30E0BF
:10081000241735070CF4A901FB019B01240F311D9E
:1008200094E6DACFDF93CF930F92CDB7DEB7BE0158
:100830006F5F7F4F41E050E00E94DE03019719F0A7
:100840002FEF3FEF03C08981282F30E0C9010F90BF
:10085000CF91DF910895FF920F931F93F82E142FDD
:10086000052F4091580150915901212F302FC90176
:10087000DC01FB016EEF29C0F7FE02C0949101C0BC
:100880009081209156013091570124173507ACF41F
:100890008091E8008570E1F38091E80082FF03C059
:1008A0002FEF3FEF17C09093F100C90101968F73AE
:1008B0009070892B11F46093E8002F5F3F4F3093C5
:1008C000570120935601119731961097A9F6812F61
:1008D000902F9C01C9011F910F91FF9008959C01D9
:1008E0008091E80082FFFCCFF901260F311D03C083
:1008F0008091F1008193E217F307D1F7289884E6FD
:10090000809354018BEF8093E800CB01089580938E
:10091000E9008091F200882319F08AE38093E800CF
:10092000089508951092550181E08093D70080EAE0
:100930008093D80082E189BD09B400FEFDCF61E05B
:1009400070E080E090E00E946D0780E98093D8001D
:100950008CE08093E2001092E000559A209A08956E
:100960005F926F927F928F929F92AF92BF92CF923F
:10097000DF92EF92FF920F931F93CF93DF93E82EB6
:10098000842E752E80915501882371F18B01242FBF
:10099000352FC901EC017AEFF72E67E0962E9E20E5
:1009A00050E4552E8E2D90E040E2A42EB12CA822CA
:1009B000B9223AE3632E20E4C22ED12CC822D922D8
:1009C00058C09FB7F8949092E9008091E80085FDA7
:1009D00002C020E004C08091F200252D281B9FBF9B
:1009E000222361F4FA9419F42FEF3FEF4DC061E038
:1009F00070E080E090E00E946D073BC0822F90E0A5
:100A0000C817D9070CF42C2FC21BD1094FB7F89483
:100A10009092E900A114B10421F406C01092F100F3
:100A200021502223D9F719C0E7FC03C0F801922F07
:100A300010C0C801322F06C0FC010196E491E0937A
:100A4000F10031503323C1F706C081918093F1004A
:100A500091509923D1F7020F111D8091E80085FF75
:100A600005C0209729F4C114D10411F06092E80068
:100A70004FBF209709F0A5CF5D9884E6809353017E
:100A8000282D372DC9019C01C901DF91CF911F91FC
:100A90000F91FF90EF90DF90CF90BF90AF909F901D
:100AA0008F907F906F905F9008951F920F920FB676
:100AB0000F9211242F933F934F935F936F937F93E4
:100AC0008F939F93AF93BF93EF93FF938091E10038
:100AD0001092E100982F83FF0FC01092E90081E08F
:100AE0008093EB001092EC0082E38093ED00109273
:100AF000550188E08093F00092FF34C083E080933A
:100B0000E9008091F200882319F08AE38093E800DD
:100B10008FB7F89492E09093E9009091F2008FBF24
:100B2000992321F089EA91E00E94A908809153015C
:100B3000882351F08091530181508093530180911B
:100B40005301882309F45D9A80915401882351F060
:100B500080915401815080935401809154018823E5
:100B600009F4289AFF91EF91BF91AF919F918F91D6
:100B70007F916F915F914F913F912F910F900FBE99
:100B80000F901F9018950F931F93DF93CF930F92A1
:100B9000CDB7DEB719828E010F5F1F4FC8010E94CB
:100BA000CF08C8010E94680A898190E00F90CF9118
:100BB000DF911F910F9108951F920F920FB60F9220
:100BC0001124EF92FF921F932F933F934F935F93C4
:100BD0006F937F938F939F93AF93BF93EF93FF9305
:100BE000DF93CF93CDB7DEB76197DEBFCDBF109255
:100BF000E9008091E80083FF0FC1FE0131969E015C
:100C0000275F3F4F03C08091F1008193E217F30704
:100C1000D1F7289884E68093540182EF8093E8000E
:100C2000998197FF05C08091E80080FFFCCF03C049
:100C30008EEF8093E800292F30E0C9018076907014
:100C4000892B09F0C2C08A81882329F41092F1000F
:100C50001092F100D6C0813009F4D3C0833009F47A
:100C6000D0C0853049F48091E80080FFFCCF8B81B3
:100C700080688093E300C5C0863009F07CC01C8189
:100C8000EF80F8841230C1F51092E90010925701FC
:100C90001092560110925901109258010E94C305FA
:100CA00099E0FE013996DF01292F1D922A95E9F777
:100CB00099871A8791E09E8790E8988B9AEF998B95
:100CC0002091560130915701275F3F4F3C872B877A
:100CD0008D871092E9001092570110925601F09200
:100CE0005901E092580180E0BF0149E050E00E94C4
:100CF0002B040E94C30585C01092E9001092570191
:100D000010925601F0925901E0925801123241F4CA
:100D100082E290E00E94600A892B09F476C071C0DB
:100D2000113079F488E0E816F10419F481E0809339
:100D30005A0180915A01882309F06BC0EAE7F1E07B
:100D400013C0133009F061C08B81882319F4ECE3E0
:100D5000F1E00AC0823019F4E0E4F1E005C081302E
:100D600009F053C0E2E6F1E0449180E8BF0150E0B1
:100D70000E942B0446C0873009F447C0883021F414
:100D800081E08093F1003DC08930D9F52370307047
:100D9000232BD9F5EFE9F1E091E031E026E39093E0
:100DA000E9003093EB0084918093EC002093ED00F8
:100DB0009F5F3196953099F78EE78093EA00109205
:100DC000EA008B81809355011CC08F819885109219
:100DD000E9001092570110925601909359018093A7
:100DE00058018D81882329F4CE0101960E94DB08E9
:100DF00006C0823051F4CE0101960E943109882349
:100E000021F08EEF8093E80007C081E28093EB0031
:100E100003C0ECE8F1E0A8CF6196DEBFCDBFCF9173
:100E2000DF91FF91EF91BF91AF919F918F917F9152
:100E30006F915F914F913F912F911F91FF90EF9094
:100E40000F900FBE0F901F9018951F920F920FB624
:100E50000F9211242F933F938F939F93AF93BF9340
:100E60008091600190916101A0916201B091630154
:100E7000309164010196A11DB11D232F2D5F2D37E7
:100E800020F02D570196A11DB11D20936401809380
:100E9000600190936101A0936201B093630180911E
:100EA0005C0190915D01A0915E01B0915F0101969E
:100EB000A11DB11D80935C0190935D01A0935E0123
:100EC000B0935F01BF91AF919F918F913F912F910F
:100ED0000F900FBE0F901F9018959B01AC017FB72C
:100EE000F89480915C0190915D01A0915E01B091B8
:100EF0005F0166B5A89B05C06F3F19F00196A11D63
:100F0000B11D7FBFBA2FA92F982F8827860F911D5B
:100F1000A11DB11D62E0880F991FAA1FBB1F6A9512
:100F2000D1F7BC012DC0FFB7F89480915C0190917E
:100F30005D01A0915E01B0915F01E6B5A89B05C07F
:100F4000EF3F19F00196A11DB11DFFBFBA2FA92FC8
:100F5000982F88278E0F911DA11DB11DE2E0880FEB
:100F6000991FAA1FBB1FEA95D1F7861B970B885EB6
:100F70009340C8F2215030404040504068517C4F6F
:100F8000211531054105510571F60895789484B510
:100F9000826084BD84B5816084BD85B5826085BD75
:100FA00085B5816085BDEEE6F0E08081816080835B
:100FB000E1E8F0E01082808182608083808181603E
:100FC0008083E0E8F0E0808181608083E1E9F0E007
:100FD000808182608083808181608083E0E9F0E0AD
:100FE000808181608083E1ECF0E080818460808397
:100FF000808182608083808181608083E3ECF0E087
:10100000808181608083E0ECF0E080818260808379
:10101000E2ECF0E0808181608083EAE7F0E08081AB
:10102000846080838081826080838081816080830E
:1010300080818068808308952091A5013091A60168
:101040008091A7019091A801281B390B2F73307054
:10105000C90108952091A5013091A6018091A701B1
:101060009091A8012817390719F42FEF3FEF09C015
:10107000E091A701F091A801EB59FE4F8081282F44
:1010800030E0C90108952091A5013091A601809119
:10109000A7019091A8012817390719F42FEF3FEF06
:1010A00013C0E091A701F091A801EB59FE4F2081F8
:1010B0008091A7019091A80101968F7390709093F1
:1010C000A8018093A70130E0C90108951092AC01F6
:1010D0001092AB0188EE93E0A0E0B0E08093AD0108
:1010E0009093AE01A093AF01B093B0018EE091E078
:1010F0009093AA018093A90108950F931F93DF9302
:10110000CF930F92CDB7DEB78C0169838091070131
:10111000882369F083E0BE016F5F7F4F41E050E0BC
:101120000E94B0041816190614F49C0107C081E04F
:1011300090E0F8019383828320E030E0C9010F90B2
:10114000CF91DF911F910F91089583E00E94870452
:101150000895CF93DF9312C082E00E9412042FEF14
:101160008F3F9207C9F0E091A501F091A601EB59DC
:10117000FE4F8083D093A601C093A501C091A50125
:10118000D091A6012196CF73D0708091A701909144
:10119000A801C817D90701F7DF91CF910895FC0185
:1011A00080818E5F808380E863EA71E042E450E0F2
:1011B0000E942B040895FC0181819081913A59F499
:1011C000813209F04CC080E060E071E047E050E01F
:1011D0000E942B0442C0913209F041C0803239F4A0
:1011E00080E091E067E070E00E946F0436C08232D8
:1011F00009F035C0828180930701809100019091B0
:101200000101A0910201B0910301805B9440A040D4
:10121000B04019F58091070180FD12C087E797E77C
:1012200090930108809300082BE088E190E00FB6CE
:10123000F894A895809360000FBE209360000DC0C5
:1012400088E10FB6F89480936000109260000FBEA2
:10125000A895109201081092000881E0089580E09E
:101260000895FC0191818081813A31F4913089F0B7
:1012700080E0933089F40DC0813269F49B3021F411
:1012800082818093080105C09A3029F4828180937D
:10129000090181E0089580E00895EF92FF920F9395
:1012A0001F938C01E62EDC01ED91FC910480F58109
:1012B000E02D0995F82ED801ED91FC910680F7817B
:1012C000E02DC8016E2D09958F2D90E01F910F9193
:1012D000FF90EF9008951092B7011092BB01109209
:1012E000BA0180E291E09093B9018093B80108952A
:1012F000EF92FF920F931F93DF93CF930F92CDB78F
:10130000DEB789838B017A0184E0BE016F5F7F4F76
:1013100041E050E00E94B00484E4B801A7010E94BB
:10132000B0040F90CF91DF911F910F91FF90EF903C
:10133000089582E048E050E00E9478090895FC0199
:1013400016821782108611861286138614823496AE
:10135000BF010E9499090895DC01683810F06858AF
:1013600029C0E62FF0E067FF13C0E058F04081E0AD
:1013700090E002C0880F991FEA95E2F780951496D5
:101380002C911497282314962C93149760E012C084
:10139000ED59FD4F6491662319F420E030E01DC043
:1013A00067FF08C014968C9114978D7F14968C93C8
:1013B00014976F77FD0190E0662321F086818617F0
:1013C00009F416829F5F31969630B1F7CD011496DD
:1013D000BD010E94990921E030E0C9010895CF9331
:1013E000DF93DC01683810F0685825C0E62FF0E084
:1013F00067FF12C0E058F04081E090E002C0880F23
:10140000991FEA95E2F714962C911497282B1496BD
:101410002C93149760E00FC0ED59FD4F6491662343
:10142000D9F167FF08C014968C91149782601496C6
:101430008C9314976F7716968C9116978617A9F14F
:1014400017968C911797861781F118968C9118979B
:10145000861759F119968C911997861731F11A96BA
:101460008C911A97861709F11B968C911B978617FA
:10147000E1F0ED01E0E0F0E09E2F8E81882321F481
:10148000EA0FFB1F668306C09F5F31962196E63008
:10149000F10591F7963049F481E090E013969C9322
:1014A0008E93129720E030E007C0CD011496BD0165
:1014B0000E94990921E030E0C901DF91CF910895A0
:1014C00080E865EE71E045E650E00E942B04089547
:1014D000FC0180818F5F808380E86AE472E049E1EB
:1014E00050E00E942B040895CF92DF92EF92FF927A
:1014F0000F931F93CF93DF937C016B018A01C0E0B0
:10150000D0E00FC0D6016D916D01D701ED91FC9136
:101510000190F081E02DC7010995C80FD91F015036
:1015200010400115110571F7CE01DF91CF911F9188
:101530000F91FF90EF90DF90CF900895991B79E085
:1015400004C0991F961708F0961B881F7A95C9F753
:101550008095089597FB092E07260AD077FD04D0C1
:101560000CD006D000201AF4709561957F4F089535
:10157000F6F7909581959F4F0895AA1BBB1B51E1EB
:1015800007C0AA1FBB1FA617B70710F0A61BB70BF3
:10159000881F991F5A95A9F780959095BC01CD0198
:1015A0000895EE0FFF1F0590F491E02D0994F89433
:0215B000FFCF6B
:1015B20000E10000000000000101000000007D08C1
:1015C200740A1C0843082A08A508A908000000009C
:0A15D2004D09740AEF09AC099F09E6
:00000001FF
