:100000000C9476010C949E010C949E010C949E011C
:100010000C949E010C949E010C949E010C949E01E4
:100020000C949E010C949E010C94B5070C943C0812
:100030000C949E010C949E010C949E010C949E01C4
:100040000C949E010C949E010C949E010C949E01B4
:100050000C949E010C949E010C949E010C9421041E
:100060000C949E010C949E010C949E010C949E0194
:100070000C949E010C949E010C949E010C949E0184
:100080000C949E010C949E010C949E010C949E0174
:100090000C949E010C949E010C949E010C949E0164
:1000A0000C949E010C949E010C949E010000000093
:1000B000240027002A002D00300000000000250049
:1000C00028002B002E003100000000002300260035
:1000D00029002C002F000404040404030405020278
:1000E00002020403020202020606060606060404D1
:1000F00002020204040802011040804010204080E7
:10010000408008020401804020100201108010206D
:1001100040400000000200080E0000030401000B34
:1001200000000000000000000000000000000000CF
:10013000070605040100080A0B0C0D090403090455
:100140002203410072006400750069006E006F00B8
:1001500020004C0065006F006E00610072006400BA
:100160006F001803410072006400750069006E00A2
:100170006F0020004C004C00430012010002000000
:1001800000404123368000010102000112010002FB
:10019000020000404123368000010102000100C13D
:1001A0008081C1080B000202020100090400000165
:1001B00002020000052400100105240101010424AD
:1001C000020605240600010705810310004009040A
:1001D0000100020A000000070502024000000705B6
:1001E000830240000005010902A1010901A1008567
:1001F00001050919012903150025019503750181E0
:100200000295017505810305010930093109381589
:1002100081257F750895038106C0C005010906A1E7
:10022000018502050719E029E715002501750195EB
:10023000088102950175088103950675081500254A
:10024000650507190029658100C009040200010342
:100250000000000921010100012265000705840357
:1002600040000100000000000000002A2B280000D0
:10027000000000000000000000000000000000007E
:100280000000002C9EB4A0A1A2A434A6A7A5AE365F
:100290002D3738271E1F20212223242526B333B6CD
:1002A0002EB7B89F8485868788898A8B8C8D8E8FA0
:1002B000909192939495969798999A9B9C9D2F31A3
:1002C00030A3AD350405060708090A0B0C0D0E0F07
:1002D000101112131415161718191A1B1C1DAFB183
:1002E000B0B50000A001F106CF09D40A11241FBE49
:1002F000CFEFDAE0DEBFCDBF11E0A0E0B1E0EAEC85
:10030000F7E102C005900D92A434B107D9F711E0CE
:10031000A4E4B1E001C01D92AC3CB107E1F712E0EA
:10032000CCEED2E004C02297FE010E94DF0BC43E57
:10033000D107C9F70E94E2050C94E30B0C9400006E
:10034000CF92EF920F9386E491E06CE04BE025E0D2
:1003500004E053E0E52E32E0C32E0E94E8030F9143
:10036000EF90CF90089588EE93E0909308018093EA
:10037000070110924501109244012DC086E491E0DE
:100380000E942A0386E491E06091440140E00E94CB
:10039000FB0286E491E060E071E00E943B06609120
:1003A000070170910801882777FD8095982F0E949A
:1003B00069048091070190910801C2979093080108
:1003C000809307018091440190914501019690939B
:1003D00045018093440180914401909145010B9720
:1003E0006CF289E090E029C086E491E00E942A0343
:1003F00086E491E06091440140E00E94FB0286E4C3
:1004000091E060E071E00E943B066091070170910D
:100410000801882777FD8095982F0E9469048091B4
:10042000070190910801C2969093080180930701FB
:1004300080914401909145010197909345018093EB
:10044000440180914401909145011816190664F207
:10045000089586E491E060E142E020E00E943203EA
:1004600008950F931F938C01FC01868160E00E9428
:10047000AF0581E090E00E94C204F801868161E04E
:100480000E94AF0581E090E00E94C204F8018681DD
:1004900060E00E94AF0584E690E00E94C2041F91D4
:1004A0000F910895CF92DF92EF92FF920F931F93D7
:1004B000CF93DF93D82EC92E282F392FC9018C0155
:1004C000C0E0D0E0E62EFF24F801878161E00E94C1
:1004D0002205B7010C2E02C0759567950A94E2F7C4
:1004E0006170F80187810E94AF0521960F5F1F4F51
:1004F000C830D10549F78D2D9C2D0E943102DF9126
:10050000CF911F910F91FF90EF90DF90CF900895C2
:10051000CF92DF92EF92FF920F931F93CF93DF93CF
:10052000D82EC92E282F392FC9018C01C0E0D0E068
:10053000E62EFF24F801878161E00E942205B701C1
:100540000C2E02C0759567950A94E2F76170F80168
:1005500087810E94AF0521960F5F1F4FC430D105E0
:1005600049F78D2D9C2D0E943102DF91CF911F9173
:100570000F91FF90EF90DF90CF9008951F93CF934E
:10058000DF93EC01162F8C81642F0E94AF058D81C3
:100590008F3F19F060E00E94AF058F8584FF05C092
:1005A000CE01612F0E9452020EC0612F70E084E0E4
:1005B000759567958A95E1F7CE010E948802CE0174
:1005C000612F0E948802DF91CF911F91089541E031
:1005D0000E94BE0281E090E0089540E00E94BE02C9
:1005E0000895FC016089862F8460808B6C60CF0148
:1005F0000E94ED020895DF93CF93CDB7DEB7289721
:100600000FB6F894DEBF0FBECDBF9C01FE01319640
:10061000ABE1B1E088E00D9001928150E1F7F90182
:100620008389481710F0482F4150E42FF0E0EE0F77
:10063000FF1FEC0FFD1F8181680F6068C9010E94D8
:10064000ED0228960FB6F894DEBF0FBECDBFCF9156
:10065000DF91089561E00E94ED0280ED97E00E9435
:10066000C2040895CF93DF93EC01423018F08F85D8
:1006700088608F874B8B1C8A222329F0413019F424
:100680008F8584608F8780E593EC0E94C2048C8103
:1006900060E00E94AF058E8160E00E94AF058D8111
:1006A0008F3F19F060E00E94AF056F8564FD1DC0AB
:1006B000CE0163E00E94880284E991E10E94C204B5
:1006C000CE0163E00E94880284E991E10E94C204A5
:1006D000CE0163E00E94880286E990E00E94C20495
:1006E000CE0162E00E94880216C06062CE010E94C4
:1006F000ED0284E991E10E94C2046F856062CE013F
:100700000E94ED0286E990E00E94C2046F8560625B
:10071000CE010E94ED026F856062CE010E94ED0263
:1007200084E0888BCE010E94F102CE010E942A0350
:1007300082E0898BCE0166E00E94ED02DF91CF91CD
:1007400008956F927F928F92AF92CF92EF920F9314
:100750001F93DF93CF93CDB7DEB73C01162F842FC5
:10076000F301448325830683E782C086A1868286BF
:100770009D8593879E8594879F8595879889968781
:1007800061E00E942205F30185818F3F19F061E04D
:100790000E942205F301868161E00E942205112357
:1007A00019F0F301178603C080E1F3018787C301C5
:1007B00060E141E020E00E943203CF91DF911F9180
:1007C0000F91EF90CF90AF908F907F906F900895A2
:1007D0008F92AF92CF92EF920F931F93CF93DF93AD
:1007E000DC01362F542F722F102FAE2C8C2C139629
:1007F0001C921E92129787E191E011969C938E9322
:1008000000D000D0EDB7FEB73196CDB7DEB7198274
:10081000118212821382CD0161E0432F2FEF052F49
:10082000E72EC12E0E94A1030F900F900F900F9002
:10083000DF91CF911F910F91EF90CF90AF908F905C
:1008400008951F920F920FB60F9211242F933F938A
:100850008F939F93AF93BF9380915F0190916001BD
:10086000A0916101B0916201309163010196A11DD7
:10087000B11D232F2D5F2D3720F02D570196A11D7F
:10088000B11D2093630180935F0190936001A09359
:100890006101B093620180915B0190915C01A09134
:1008A0005D01B0915E010196A11DB11D80935B01B8
:1008B00090935C01A0935D01B0935E01BF91AF91F5
:1008C0009F918F913F912F910F900FBE0F901F908E
:1008D00018959B01AC017FB7F89480915B019091D2
:1008E0005C01A0915D01B0915E0166B5A89B05C059
:1008F0006F3F19F00196A11DB11D7FBFBA2FA92F1F
:10090000982F8827860F911DA11DB11D62E0880FC9
:10091000991FAA1FBB1F6A95D1F7BC012DC0FFB755
:10092000F89480915B0190915C01A0915D01B09180
:100930005E01E6B5A89B05C0EF3F19F00196A11D29
:10094000B11DFFBFBA2FA92F982F88278E0F911D99
:10095000A11DB11DE2E0880F991FAA1FBB1FEA95D8
:10096000D1F7861B970B885E9340C8F22150304028
:100970004040504068517C4F2115310541055105DB
:1009800071F60895019739F0880F991F880F991F04
:1009900002970197F1F70895789484B5826084BD39
:1009A00084B5816084BD85B5826085BD85B5816073
:1009B00085BDEEE6F0E0808181608083E1E8F0E0D3
:1009C0001082808182608083808181608083E0E802
:1009D000F0E0808181608083E1E9F0E080818260E5
:1009E0008083808181608083E0E9F0E080818160A4
:1009F0008083E1ECF0E0808184608083808182608C
:100A00008083808181608083E3ECF0E0808181607D
:100A10008083E0ECF0E0808182608083E2ECF0E0B3
:100A2000808181608083EAE7F0E080818460808358
:100A30008081826080838081816080838081806802
:100A400080830895CF93DF93482F50E0CA018C50E4
:100A50009F4FFC0134914A525F4FFA0184918823E1
:100A600069F190E0880F991FFC01E455FF4FA591B3
:100A7000B491FC01E654FF4FC591D491662351F423
:100A80002FB7F8948C91932F909589238C9388811C
:100A900089230BC0623061F42FB7F8948C91932FA7
:100AA000909589238C938881832B88832FBF06C0E0
:100AB0009FB7F8948C91832B8C939FBFDF91CF913C
:100AC0000895883071F1893068F4823031F18330D3
:100AD00020F4813009F042C01DC0833089F0843099
:100AE000E9F512C08B3059F18C3028F48930E9F0E7
:100AF0008A30A1F51EC08C3031F18E3079F529C0D5
:100B0000809180008F7703C0809180008F7D8093DB
:100B10008000089584B58F7702C084B58F7D84BD31
:100B20000895809190008F7707C0809190008F7D0D
:100B300003C080919000877F8093900008958091FA
:100B4000C0008F7703C08091C0008F7D8093C0006C
:100B500008958091C200877F8093C2000895FF921C
:100B60000F931F93F62E482F50E0CA018E5E9E4FC2
:100B7000FC012491CA018C509F4FFC0114914A52F0
:100B80005F4FFA0104910023C9F0222319F0822F4C
:100B90000E946105E02FF0E0EE0FFF1FE654FF4FCB
:100BA000A591B4919FB7F894FF2021F48C911095F2
:100BB000812302C08C91812B8C939FBF1F910F9139
:100BC000FF900895CF93DF930E94CC048CE691E0D0
:100BD0000E94F2060E942902C0E0D0E00E94B30108
:100BE0002097E1F30E940000F9CFCF92DF92EF92BD
:100BF000FF920F931F93CF93DF937C016B018A01C8
:100C0000C0E0D0E00FC0D6016D916D01D701ED912C
:100C1000FC910190F081E02DC7010995C80FD91F03
:100C2000015010400115110571F7CE01DF91CF91F0
:100C30001F910F91FF90EF90DF90CF900895CF9389
:100C4000DF93EC016115710519F420E030E00FC06D
:100C5000DB010D900020E9F71197A61BB70BE88187
:100C6000F9810280F381E02DAD0109959C01C90154
:100C7000DF91CF9108950E941F060895282F80913B
:100C800066018823C1F057FF1AC015C028989093B9
:100C900065018091F1008193E217F307B9F74115DF
:100CA000510539F08091F200882319F48BE6809386
:100CB000E800AFBF02C04FEF5FEFCA010895AFB7C2
:100CC000F89427702093E9008091F200282F30E0FB
:100CD000241735070CF4A901FB019B01240F311DDA
:100CE00094E6DACFDF93CF930F92CDB7DEB7BE0194
:100CF0006F5F7F4F41E050E00E943E06019719F080
:100D00002FEF3FEF03C08981282F30E0C9010F90FA
:100D1000CF91DF910895FF920F931F93F82E142F18
:100D2000052F4091690150916A01212F302FC9018F
:100D3000DC01FB016EEF29C0F7FE02C0949101C0F7
:100D40009081209167013091680124173507ACF438
:100D50008091E8008570E1F38091E80082FF03C094
:100D60002FEF3FEF17C09093F100C90101968F73E9
:100D70009070892B11F46093E8002F5F3F4F309300
:100D8000680120936701119731961097A9F6812F7A
:100D9000902F9C01C9011F910F91FF9008959C0114
:100DA0008091E80082FFFCCFF901260F311D03C0BE
:100DB0008091F1008193E217F307D1F7289884E638
:100DC000809365018BEF8093E800CB0108958093B9
:100DD000E9008091F200882319F08AE38093E8000B
:100DE000089508951092660181E08093D70080EA0B
:100DF0008093D80082E189BD09B400FEFDCF61E097
:100E000070E080E090E00E94690480E98093D8005F
:100E10008CE08093E2001092E000559A209A0895A9
:100E20005F926F927F928F929F92AF92BF92CF927A
:100E3000DF92EF92FF920F931F93CF93DF93E82EF1
:100E4000842E752E80916601882371F18B01242FE9
:100E5000352FC901EC017AEFF72E67E0962E9E2020
:100E600050E4552E8E2D90E040E2A42EB12CA82205
:100E7000B9223AE3632E20E4C22ED12CC822D92213
:100E800058C09FB7F8949092E9008091E80085FDE2
:100E900002C020E004C08091F200252D281B9FBFD6
:100EA000222361F4FA9419F42FEF3FEF4DC061E073
:100EB00070E080E090E00E9469043BC0822F90E0E7
:100EC000C817D9070CF42C2FC21BD1094FB7F894BF
:100ED0009092E900A114B10421F406C01092F1002F
:100EE00021502223D9F719C0E7FC03C0F801922F43
:100EF00010C0C801322F06C0FC010196E491E093B6
:100F0000F10031503323C1F706C081918093F10085
:100F100091509923D1F7020F111D8091E80085FFB0
:100F200005C0209729F4C114D10411F06092E800A3
:100F30004FBF209709F0A5CF5D9884E680936401A8
:100F4000282D372DC9019C01C901DF91CF911F9137
:100F50000F91FF90EF90DF90CF90BF90AF909F9058
:100F60008F907F906F905F9008951F920F920FB6B1
:100F70000F9211242F933F934F935F936F937F931F
:100F80008F939F93AF93BF93EF93FF938091E10073
:100F90001092E100982F83FF0FC01092E90081E0CA
:100FA0008093EB001092EC0082E38093ED001092AE
:100FB000660188E08093F00092FF34C083E0809364
:100FC000E9008091F200882319F08AE38093E80019
:100FD0008FB7F89492E09093E9009091F2008FBF60
:100FE000992321F081EB91E00E94120A8091640123
:100FF000882351F080916401815080936401809135
:101000006401882309F45D9A80916501882351F079
:1010100080916501815080936501809165018823ED
:1010200009F4289AFF91EF91BF91AF919F918F9111
:101030007F916F915F914F913F912F910F900FBED4
:101040000F901F9018950F931F93DF93CF930F92DC
:10105000CDB7DEB719828E010F5F1F4FC8010E9406
:10106000380AC8010E94D10B898190E00F90CF917E
:10107000DF911F910F9108951F920F920FB60F925B
:101080001124EF92FF921F932F933F934F935F93FF
:101090006F937F938F939F93AF93BF93EF93FF9340
:1010A000DF93CF93CDB7DEB76197DEBFCDBF109290
:1010B000E9008091E80083FF0FC1FE0131969E0197
:1010C000275F3F4F03C08091F1008193E217F30740
:1010D000D1F7289884E68093650182EF8093E80039
:1010E000998197FF05C08091E80080FFFCCF03C085
:1010F0008EEF8093E800292F30E0C9018076907050
:10110000892B09F0C2C08A81882329F41092F1004A
:101110001092F100D6C0813009F4D3C0833009F4B5
:10112000D0C0853049F48091E80080FFFCCF8B81EE
:1011300080688093E300C5C0863009F07CC01C81C4
:10114000EF80F8841230C1F51092E9001092680126
:101150001092670110926A01109269010E9423089F
:1011600099E0FE013996DF01292F1D922A95E9F7B2
:1011700099871A8791E09E8790E8988B9AEF998BD0
:101180002091670130916801275F3F4F3C872B8793
:101190008D871092E9001092680110926701F09219
:1011A0006A01E092690180E0BF0149E050E00E94DD
:1011B0008B060E94230885C01092E90010926801F6
:1011C00010926701F0926A01E0926901123241F4D3
:1011D00082E290E00E94C90B892B09F476C071C0AD
:1011E000113079F488E0E816F10419F481E0809375
:1011F0006B0180916B01882309F06BC0EAE7F1E095
:1012000013C0133009F061C08B81882319F4ECE31B
:10121000F1E00AC0823019F4E0E4F1E005C0813069
:1012200009F053C0E2E6F1E0449180E8BF0150E0EC
:101230000E948B0646C0873009F447C0883021F4ED
:1012400081E08093F1003DC08930D9F52370307082
:10125000232BD9F5EFE9F1E091E031E026E390931B
:10126000E9003093EB0084918093EC002093ED0033
:101270009F5F3196953099F78EE78093EA00109240
:10128000EA008B81809366011CC08F819885109243
:10129000E900109268011092670190936A018093AF
:1012A00069018D81882329F4CE0101960E94440AA8
:1012B00006C0823051F4CE0101960E949A0A88231A
:1012C00021F08EEF8093E80007C081E28093EB006D
:1012D00003C0ECE8F1E0A8CF6196DEBFCDBFCF91AF
:1012E000DF91FF91EF91BF91AF919F918F917F918E
:1012F0006F915F914F913F912F911F91FF90EF90D0
:101300000F900FBE0F901F9018952091AD01309156
:10131000AE018091AF019091B001281B390B2F7362
:101320003070C90108952091AD013091AE018091D6
:10133000AF019091B0012817390719F42FEF3FEF53
:1013400009C0E091AF01F091B001E359FE4F8081F7
:10135000282F30E0C90108952091AD013091AE01F0
:101360008091AF019091B0012817390719F42FEF40
:101370003FEF13C0E091AF01F091B001E359FE4F90
:1013800020818091AF019091B00101968F73907090
:101390009093B0018093AF0130E0C901089510929D
:1013A000B4011092B30188EE93E0A0E0B0E0809326
:1013B000B5019093B601A093B701B093B80187E24D
:1013C00091E09093B2018093B10108950F931F9320
:1013D000DF93CF930F92CDB7DEB78C0169838091F5
:1013E0001001882369F083E0BE016F5F7F4F41E009
:1013F00050E00E9410071816190614F49C0107C04B
:1014000081E090E0F8019383828320E030E0C9011D
:101410000F90CF91DF911F910F91089583E00E946B
:10142000E7060895CF93DF9312C082E00E94720610
:101430002FEF8F3F9207C9F0E091AD01F091AE011F
:10144000E359FE4F8083D093AE01C093AD01C091AC
:10145000AD01D091AE012196CF73D0708091AF01D4
:101460009091B001C817D90701F7DF91CF91089586
:10147000FC0180818E5F808380E863EA71E042E452
:1014800050E00E948B060895FC0181819081913A81
:1014900059F4813209F04CC080E069E071E047E026
:1014A00050E00E948B0642C0913209F041C0803268
:1014B00039F489E091E067E070E00E94CF0636C021
:1014C000823209F035C08281809310018091090138
:1014D00090910A01A0910B01B0910C01805B9440A6
:1014E000A040B04019F58091100180FD12C087E73F
:1014F00097E790930108809300082BE088E190E043
:101500000FB6F894A895809360000FBE20936000FA
:101510000DC088E10FB6F8948093600010926000CF
:101520000FBEA895109201081092000881E008955E
:1015300080E00895FC0191818081813A31F49130FD
:1015400089F080E0933089F40DC0813269F49B30DA
:1015500021F482818093110105C09A3029F482819F
:101560008093120181E0089580E00895EF92FF9248
:101570000F931F938C01E62EDC01ED91FC9104800A
:10158000F581E02D0995F82ED801ED91FC910680AA
:10159000F781E02DC8016E2D09958F2D90E01F91E8
:1015A0000F91FF90EF9008951092BF011092C30128
:1015B0001092C20189E391E09093C1018093C00130
:1015C0000895EF92FF920F931F93DF93CF930F92A3
:1015D000CDB7DEB789838B017A0184E0BE016F5FEE
:1015E0007F4F41E050E00E94100784E4B801A7015A
:1015F0000E9410070F90CF91DF911F910F91FF90E4
:10160000EF90089582E048E050E00E94E10A0895DA
:10161000FC011682178210861186128613861482A8
:101620003496BF010E94020B0895DC01683810F067
:10163000685829C0E62FF0E067FF13C0E058F0407B
:1016400081E090E002C0880F991FEA95E2F780954B
:1016500014962C911497282314962C93149760E0D9
:1016600012C0ED59FD4F6491662319F420E030E07B
:101670001DC067FF08C014968C9114978D7F149637
:101680008C9314976F77FD0190E0662321F086819B
:10169000861709F416829F5F31969630B1F7CD0117
:1016A0001496BD010E94020B21E030E0C9010895AB
:1016B000CF93DF93DC01683810F0685825C0E62F1F
:1016C000F0E067FF12C0E058F04081E090E002C017
:1016D000880F991FEA95E2F714962C911497282BFE
:1016E00014962C93149760E00FC0ED59FD4F649150
:1016F0006623D9F167FF08C014968C911497826015
:1017000014968C9314976F7716968C91169786176C
:10171000A9F117968C911797861781F118968C91DD
:101720001897861759F119968C911997861731F1E8
:101730001A968C911A97861709F11B968C911B9714
:101740008617E1F0ED01E0E0F0E09E2F8E81882326
:1017500021F4EA0FFB1F668306C09F5F3196219636
:10176000E630F10591F7963049F481E090E0139668
:101770009C938E93129720E030E007C0CD01149621
:10178000BD010E94020B21E030E0C901DF91CF9141
:10179000089580E865EE71E045E650E00E948B0612
:1017A0000895FC0180818F5F808380E86AE472E0A5
:1017B00049E150E00E948B060895EE0FFF1F05904F
:0A17C000F491E02D0994F894FFCF96
:1017CA004C756B61737A00E80300E10000000000C9
:1017DA0000010100000000E702F5050000400014C6
:1017EA0000540000000000E609F5058509AC0993DC
:1017FA00090E0A120A00000000B60AF505580B1570
:04180A000B080B00BC
:00000001FF
