:100000000C9476010C949E010C949E010C949E011C
:100010000C949E010C949E010C949E010C949E01E4
:100020000C949E010C949E010C94B9070C9440080A
:100030000C949E010C949E010C949E010C949E01C4
:100040000C949E010C949E010C949E010C949E01B4
:100050000C949E010C949E010C949E010C94F2024F
:100060000C949E010C949E010C949E010C949E0194
:100070000C949E010C949E010C949E010C949E0184
:100080000C949E010C949E010C949E010C949E0174
:100090000C949E010C949E010C949E010C949E0164
:1000A0000C949E010C9424020C949E01000000000C
:1000B000240027002A002D00300000000000250049
:1000C00028002B002E003100000000002300260035
:1000D00029002C002F000404040404030405020278
:1000E00002020403020202020606060606060404D1
:1000F00002020204040802011040804010204080E7
:10010000408008020401804020100201108010206D
:1001100040400000000200080E0000030401000B34
:1001200000000000000000000000000000000000CF
:10013000070605040100080A0B0C0D09080B000254
:10014000020201000904000001020200000524006F
:100150001001052401010104240206052406000102
:100160000705810310004009040100020A00000095
:100170000705020240000007058302400000040357
:1001800009042203410072006400750069006E00DA
:100190006F0020004C0065006F006E00610072006F
:1001A00064006F001803410072006400750069006C
:1001B0006E006F0020004C004C0043001201000252
:1001C00000000040412336800001010200011201BD
:1001D00000020200004041233680000101020001BC
:1001E00000C18081C105010902A1010901A10085A9
:1001F00001050919012903150025019503750181E0
:100200000295017505810305010930093109381589
:1002100081257F750895038106C0C005010906A1E7
:10022000018502050719E029E715002501750195EB
:10023000088102950175088103950675081500254A
:10024000650507190029658100C009040200010342
:100250000000000921010100012265000705840357
:1002600040000100000000000000002A2B280000D0
:10027000000000000000000000000000000000007E
:100280000000002C9EB4A0A1A2A434A6A7A5AE365F
:100290002D3738271E1F20212223242526B333B6CD
:1002A0002EB7B89F8485868788898A8B8C8D8E8FA0
:1002B000909192939495969798999A9B9C9D2F31A3
:1002C00030A3AD350405060708090A0B0C0D0E0F07
:1002D000101112131415161718191A1B1C1DAFB183
:1002E000B0B50000A0016404F506C30911241FBEC7
:1002F000CFEFDAE0DEBFCDBF11E0A0E0B1E0E2E594
:10030000F6E102C005900D92A433B107D9F711E0D0
:10031000A4E3B1E001C01D92A93BB107E1F712E0EF
:10032000CCEED2E004C02297FE010E94230BC43E13
:10033000D107C9F70E942F050C94270B0C940000DD
:1003400084E391E06CE04BE024EF31E00E94DA01BD
:100350000895EF92FF920F931F9362E370E080E0A5
:1003600090E00E94600384E391E00E94C2027C015D
:1003700005E911E0C80160E071E00E942C06C701A8
:1003800069E370E00E94EB0AC8014AE050E00E9475
:100390001B06C80167E071E00E942F061F910F91B4
:1003A000FF90EF90089585E991E060E072EC0E9483
:1003B00019040895CF93DF93EC01862F90E0FC01A0
:1003C000EC50FF4FE491EC83A42FB0E0FD01EC5022
:1003D000FF4FE491ED838A529F4FFC01449150E01E
:1003E000440F551FFA01E654FF4F859194919F8366
:1003F0008E83AA52BF4FFD018491E82FF0E0EE0FEB
:10040000FF1FE853FF4F859194919B878A87FA01DC
:10041000E455FF4F8591949199878887F1E0253FB6
:100420003F0714F024EF31E089E390E0AC01249F12
:10043000C001259F900D349F900D11244C969D87EF
:100440008C87DF91CF9108951F920F920FB60F9274
:1004500011242F933F934F935F936F937F938F93C9
:100460009F93AF93BF93EF93FF93E0914601F09179
:100470004701309709F00995FF91EF91BF91AF9136
:100480009F918F917F916F915F914F913F912F91AC
:100490000F900FBE0F901F901895CF93DF93EC0134
:1004A000E885F98580819C81892B8083EE81FF819D
:1004B00090818C8180958923808384E090E00E94E4
:1004C000B903EE81FF8180819C81892B80838AE042
:1004D00090E00E94B903EE81FF8190818C8180952C
:1004E00089238083E885F98590818C818095892393
:1004F00080830E943A03605B794B8F4F9F4F6E87DA
:100500007F87888B998BEA85FB85208130E08D8100
:1005100090E028233923232BC9F00E943A032E852B
:100520003F8548895989261737074807590770F0CA
:10053000EACF0E943A032E853F85488959892617BC
:1005400037074807590710F480E019C0EA85FB8592
:10055000208130E08D8190E028233923232B49F33B
:100560000E943A032C853D8540E050E0260F371F5E
:10057000481F591F2E873F87488B598B81E0DF9199
:10058000CF910895CF93DF93EC010E944D02882311
:1005900061F422C00E943A032E853F85488959891B
:1005A0002617370748075907B8F0EA85FB852081E9
:1005B00030E08D8190E028233923232B59F70E94C6
:1005C0003A034C855D85455050402E853F85421B42
:1005D000530B460F571F02C040E050E0CA01DF91A5
:1005E000CF9108951F920F920FB60F9211242F935F
:1005F0003F938F939F93AF93BF9380914C019091C2
:100600004D01A0914E01B0914F01309150010196E2
:10061000A11DB11D232F2D5F2D3720F02D570196E1
:10062000A11DB11D2093500180934C0190934D0169
:10063000A0934E01B0934F018091480190914901E0
:10064000A0914A01B0914B010196A11DB11D80936B
:10065000480190934901A0934A01B0934B01BF9187
:10066000AF919F918F913F912F910F900FBE0F905F
:100670001F9018959FB7F894209148013091490137
:1006800040914A0150914B0186B5A89B06C08F3F0F
:1006900021F02F5F3F4F4F4F5F4F9FBF542F432F8E
:1006A000322F2227280F311D411D511D82E0220FBC
:1006B000331F441F551F8A95D1F7B901CA01089508
:1006C0009B01AC017FB7F89480914801909149015A
:1006D000A0914A01B0914B0166B5A89B05C06F3F40
:1006E00019F00196A11DB11D7FBFBA2FA92F982F18
:1006F0008827860F911DA11DB11D62E0880F991FEB
:10070000AA1FBB1F6A95D1F7BC012DC0FFB7F89493
:100710008091480190914901A0914A01B0914B010B
:10072000E6B5A89B05C0EF3F19F00196A11DB11DCC
:10073000FFBFBA2FA92F982F88278E0F911DA11DBB
:10074000B11DE2E0880F991FAA1FBB1FEA95D1F7E0
:10075000861B970B885E9340C8F221503040404082
:10076000504068517C4F211531054105510571F606
:100770000895019739F0880F991F880F991F0297E4
:100780000197F1F70895789484B5826084BD84B5AB
:10079000816084BD85B5826085BD85B5816085BD7C
:1007A000EEE6F0E0808181608083E1E8F0E0108295
:1007B000808182608083808181608083E0E8F0E0D6
:1007C000808181608083E1E9F0E0808182608083C4
:1007D000808181608083E0E9F0E0808181608083B6
:1007E000E1ECF0E08081846080838081826080839E
:1007F000808181608083E3ECF0E080818160808390
:10080000E0ECF0E0808182608083E2ECF0E08081C7
:1008100081608083EAE7F0E080818460808380816A
:100820008260808380818160808380818068808312
:100830000895089520919101309192018091930142
:1008400090919401281B390B2F733070C9010895C2
:1008500020919101309192018091930190919401A6
:100860002817390719F42FEF3FEF09C0E0919301E2
:10087000F0919401EF5AFE4F8081282F30E0C9019A
:10088000089520919101309192018091930190916E
:1008900094012817390719F42FEF3FEF13C0E091A7
:1008A0009301F0919401EF5AFE4F208180919301C2
:1008B0009091940101968F7390709093940180931E
:1008C000930130E0C90108951092980110929701A8
:1008D00088EE93E0A0E0B0E08093990190939A01B4
:1008E000A0939B01B0939C0188E191E090939601C5
:1008F0008093950108950F931F93DF93CF930F92E9
:10090000CDB7DEB78C01698380911101882369F02E
:1009100083E0BE016F5F7F4F41E050E00E9414070B
:100920001816190614F49C0107C081E090E0F80144
:100930009383828320E030E0C9010F90CF91DF9153
:100940001F910F91089583E00E94EB060895CF93C5
:10095000DF9312C082E00E9476062FEF8F3F92074E
:10096000C9F0E0919101F0919201EF5AFE4F80831E
:10097000D0939201C0939101C0919101D0919201C5
:100980002196CF73D0708091930190919401C817F4
:10099000D90701F7DF91CF910895FC0180818E5F27
:1009A000808380E86CE371E042E450E00E948F06AF
:1009B0000895FC0181819081913A59F4813209F0C6
:1009C0004CC080E06AE071E047E050E00E948F0692
:1009D00042C0913209F041C0803239F48AE091E09E
:1009E00067E070E00E94D30636C0823209F035C05D
:1009F00082818093110180910A0190910B01A09155
:100A00000C01B0910D01805B9440A040B04019F5FD
:100A10008091110180FD12C087E797E7909301084C
:100A2000809300082BE088E190E00FB6F894A89539
:100A3000809360000FBE209360000DC088E10FB668
:100A4000F89480936000109260000FBEA8951092F9
:100A500001081092000881E0089580E00895CF9386
:100A6000DF930E94C3038BEA91E00E94F6060E9486
:100A7000D301C0E0D0E00E94A9012097E1F30E94D9
:100A80000000F9CFCF92DF92EF92FF920F931F9366
:100A9000CF93DF937C016B018A01C0E0D0E00FC0EF
:100AA000D6016D916D01D701ED91FC910190F0811E
:100AB000E02DC7010995C80FD91F0150104001153D
:100AC000110571F7CE01DF91CF911F910F91FF902A
:100AD000EF90DF90CF900895EF92FF920F931F93C6
:100AE0008C01DC01ED91FC910190F081E02D6DE035
:100AF00009957C01D801ED91FC910190F081E02DE8
:100B0000C8016AE009959C012E0D3F1DC9011F9186
:100B10000F91FF90EF900895CF93DF93EC01611553
:100B2000710519F420E030E00FC0DB010D900020CA
:100B3000E9F71197A61BB70BE881F9810280F381D1
:100B4000E02DAD0109959C01C901DF91CF91089578
:100B50004F925F927F928F929F92AF92BF92CF926D
:100B6000DF92EF92FF920F931F93DF93CF93CDB756
:100B7000DEB7A1970FB6F894DEBF0FBECDBF2C0134
:100B8000742ECB01223008F42AE019A231E2C32EE0
:100B9000D12CCC0EDD1E822E9924AA24BB24672DD5
:100BA000752FA50194010E94FF0A79018A01C801ED
:100BB000B701A50194010E94CC0A472D461B089459
:100BC000C108D1084A3014F4405D01C0495CF60107
:100BD0004083E114F1040105110521F07E2C5F2D05
:100BE000C801DDCFC201B6010E948C05A1960FB6E7
:100BF000F894DEBF0FBECDBFCF91DF911F910F9153
:100C0000FF90EF90DF90CF90BF90AF909F908F902C
:100C10007F905F904F900895DC012115310541F4DC
:100C2000ED91FC910190F081E02D642F09950895DC
:100C30000E94A8050895EF92FF920F931F939A01C7
:100C40007B0100E010E0B801A7010E940C061F9193
:100C50000F91FF90EF9008950E948C050895EF92F8
:100C6000FF920F931F937C010E948C058C01C7019A
:100C70000E946C05080F191FC8011F910F91FF906A
:100C8000EF900895282F8091A5018823C1F057FF88
:100C90001AC015C028989093A4018091F100819307
:100CA000E217F307B9F74115510539F08091F200C9
:100CB000882319F48BE68093E800AFBF02C04FEFA2
:100CC0005FEFCA010895AFB7F89427702093E90049
:100CD0008091F200282F30E0241735070CF4A90189
:100CE000FB019B01240F311D94E6DACFDF93CF93F4
:100CF0000F92CDB7DEB7BE016F5F7F4F41E050E08E
:100D00000E944206019719F02FEF3FEF03C089813F
:100D1000282F30E0C9010F90CF91DF910895FF9205
:100D20000F931F93F82E142F052F4091A801509177
:100D3000A901212F302FC901DC01FB016EEF29C071
:100D4000F7FE02C0949101C090812091A6013091DC
:100D5000A70124173507ACF48091E8008570E1F312
:100D60008091E80082FF03C02FEF3FEF17C0909300
:100D7000F100C90101968F739070892B11F4609373
:100D8000E8002F5F3F4F3093A7012093A6011197F2
:100D900031961097A9F6812F902F9C01C9011F91C0
:100DA0000F91FF9008959C018091E80082FFFCCF95
:100DB000F901260F311D03C08091F1008193E217E4
:100DC000F307D1F7289884E68093A4018BEF8093F2
:100DD000E800CB0108958093E9008091F200882318
:100DE00019F08AE38093E800089508951092A50110
:100DF00081E08093D70080EA8093D80082E189BDAA
:100E000009B400FEFDCF61E070E080E090E00E9458
:100E1000600380E98093D8008CE08093E200109218
:100E2000E000559A209A08955F926F927F928F9278
:100E30009F92AF92BF92CF92DF92EF92FF920F9369
:100E40001F93CF93DF93E82E842E752E8091A501FA
:100E5000882371F18B01242F352FC901EC017AEF22
:100E6000F72E67E0962E9E2050E4552E8E2D90E0B2
:100E700040E2A42EB12CA822B9223AE3632E20E44A
:100E8000C22ED12CC822D92258C09FB7F894909274
:100E9000E9008091E80085FD02C020E004C0809157
:100EA000F200252D281B9FBF222361F4FA9419F428
:100EB0002FEF3FEF4DC061E070E080E090E00E94D6
:100EC00060033BC0822F90E0C817D9070CF42C2F89
:100ED000C21BD1094FB7F8949092E900A114B10454
:100EE00021F406C01092F10021502223D9F719C035
:100EF000E7FC03C0F801922F10C0C801322F06C0D2
:100F0000FC010196E491E093F10031503323C1F7E5
:100F100006C081918093F10091509923D1F7020F7F
:100F2000111D8091E80085FF05C0209729F4C114A8
:100F3000D10411F06092E8004FBF209709F0A5CFCF
:100F40005D9884E68093A301282D372DC9019C016B
:100F5000C901DF91CF911F910F91FF90EF90DF902A
:100F6000CF90BF90AF909F908F907F906F905F9049
:100F700008951F920F920FB60F9211242F933F9353
:100F80004F935F936F937F938F939F93AF93BF9391
:100F9000EF93FF938091E1001092E100982F83FF7F
:100FA0000FC01092E90081E08093EB001092EC00FA
:100FB00082E38093ED001092A50188E08093F00019
:100FC00092FF34C083E08093E9008091F20088238F
:100FD00019F08AE38093E8008FB7F89492E0909339
:100FE000E9009091F2008FBF992321F085E991E00B
:100FF0000E94A7048091A301882351F08091A3014E
:1010000081508093A3018091A301882309F45D9A04
:101010008091A401882351F08091A4018150809394
:10102000A4018091A401882309F4289AFF91EF91EB
:10103000BF91AF919F918F917F916F915F914F91F0
:101040003F912F910F900FBE0F901F9018950F9307
:101050001F93DF93CF930F92CDB7DEB719828E0126
:101060000F5F1F4FC8010E94CD04C8010E94C00A33
:10107000898190E00F90CF91DF911F910F9108959A
:101080001F920F920FB60F921124EF92FF921F93AF
:101090002F933F934F935F936F937F938F939F9380
:1010A000AF93BF93EF93FF93DF93CF93CDB7DEB7AB
:1010B0006197DEBFCDBF1092E9008091E80083FF09
:1010C0000FC1FE0131969E01275F3F4F03C0809103
:1010D000F1008193E217F307D1F7289884E6809313
:1010E000A40182EF8093E800998197FF05C0809169
:1010F000E80080FFFCCF03C08EEF8093E800292F2B
:1011000030E0C90180769070892B09F0C2C08A81D5
:10111000882329F41092F1001092F100D6C081309A
:1011200009F4D3C0833009F4D0C0853049F48091EC
:10113000E80080FFFCCF8B8180688093E300C5C00E
:10114000863009F07CC01C81EF80F8841230C1F534
:101150001092E9001092A7011092A6011092A90125
:101160001092A8010E94270899E0FE013996DF013C
:10117000292F1D922A95E9F799871A8791E09E8772
:1011800090E8988B9AEF998B2091A6013091A70156
:10119000275F3F4F3C872B878D871092E900109285
:1011A000A7011092A601F092A901E092A80180E0A7
:1011B000BF0149E050E00E948F060E94270885C0C9
:1011C0001092E9001092A7011092A601F092A901D5
:1011D000E092A801123241F482E290E00E94B80A43
:1011E000892B09F476C071C0113079F488E0E816D3
:1011F000F10419F481E08093AA018091AA01882367
:1012000009F06BC0ECEBF1E013C0133009F061C0E2
:101210008B81882319F4EEE7F1E00AC0823019F4DB
:10122000E2E8F1E005C0813009F053C0E4EAF1E002
:10123000449180E8BF0150E00E948F0646C087308D
:1012400009F447C0883021F481E08093F1003DC06B
:101250008930D9F523703070232BD9F5E1EEF1E018
:1012600091E031E026E39093E9003093EB00849124
:101270008093EC002093ED009F5F3196953099F7B5
:101280008EE78093EA001092EA008B818093A5019B
:101290001CC08F8198851092E9001092A7011092CE
:1012A000A6019093A9018093A8018D81882329F438
:1012B000CE0101960E94D90406C0823051F4CE01BD
:1012C00001960E948909882321F08EEF8093E8001F
:1012D00007C081E28093EB0003C0EEECF1E0A8CF01
:1012E0006196DEBFCDBFCF91DF91FF91EF91BF91AE
:1012F000AF919F918F917F916F915F914F913F91AE
:101300002F911F91FF90EF900F900FBE0F901F90A5
:101310001895FC0191818081813A31F4913089F0F6
:1013200080E0933089F40DC0813269F49B3021F460
:1013300082818093120105C09A3029F482818093C2
:10134000130181E0089580E00895EF92FF920F93DA
:101350001F938C01E62EDC01ED91FC910480F58158
:10136000E02D0995F82ED801ED91FC910680F781CA
:10137000E02DC8016E2D09958F2D90E01F910F91E2
:10138000FF90EF9008951092AC011092B00110926E
:10139000AF018AE291E09093AE018093AD01089590
:1013A000EF92FF920F931F93DF93CF930F92CDB7DE
:1013B000DEB789838B017A0184E0BE016F5F7F4FC6
:1013C00041E050E00E94140784E4B801A7010E94A4
:1013D00014070F90CF91DF911F910F91FF90EF9025
:1013E000089582E048E050E00E94D0090895FC0191
:1013F00016821782108611861286138614823496FE
:10140000BF010E94F1090895DC01683810F06858A6
:1014100029C0E62FF0E067FF13C0E058F04081E0FC
:1014200090E002C0880F991FEA95E2F78095149624
:101430002C911497282314962C93149760E012C0D3
:10144000ED59FD4F6491662319F420E030E01DC092
:1014500067FF08C014968C9114978D7F14968C9317
:1014600014976F77FD0190E0662321F0868186173F
:1014700009F416829F5F31969630B1F7CD0114962C
:10148000BD010E94F10921E030E0C9010895CF9328
:10149000DF93DC01683810F0685825C0E62FF0E0D3
:1014A00067FF12C0E058F04081E090E002C0880F72
:1014B000991FEA95E2F714962C911497282B14960D
:1014C0002C93149760E00FC0ED59FD4F6491662393
:1014D000D9F167FF08C014968C9114978260149616
:1014E0008C9314976F7716968C9116978617A9F19F
:1014F00017968C911797861781F118968C911897EB
:10150000861759F119968C911997861731F11A9609
:101510008C911A97861709F11B968C911B97861749
:10152000E1F0ED01E0E0F0E09E2F8E81882321F4D0
:10153000EA0FFB1F668306C09F5F31962196E63057
:10154000F10591F7963049F481E090E013969C9371
:101550008E93129720E030E007C0CD011496BD01B4
:101560000E94F10921E030E0C901DF91CF91089597
:1015700080E865EE71E045E650E00E948F06089530
:10158000FC0180818F5F808380E86AE472E049E13A
:1015900050E00E948F060895629FD001739FF00172
:1015A000829FE00DF11D649FE00DF11D929FF00DF3
:1015B000839FF00D749FF00D659FF00D9927729F2A
:1015C000B00DE11DF91F639FB00DE11DF91FBD01B5
:1015D000CF0111240895AA1BBB1B51E107C0AA1F0C
:1015E000BB1FA617B70710F0A61BB70B881F991FC4
:1015F0005A95A9F780959095BC01CD010895A1E277
:101600001A2EAA1BBB1BFD010DC0AA1FBB1FEE1F7C
:10161000FF1FA217B307E407F50720F0A21BB30BC7
:10162000E40BF50B661F771F881F991F1A9469F743
:1016300060957095809590959B01AC01BD01CF019F
:101640000895EE0FFF1F0590F491E02D0994F89492
:02165000FFCFCA
:1016520050696E673A2000636D0000E100000000EF
:1016620000000101000000007B0442051A0441044D
:101672002804A304A70400000000A5094205470AA4
:04168200040AF70956
:00000001FF
