:100000000C9463000C948B000C948B000C948B006C
:100010000C948B000C948B000C948B000C94E60ECB
:100020000C948B000C948B000C948B000C94FF129E
:100030000C948B000C948B000C948B000C948B0014
:100040000C94BD130C948B000C9410160C945E163B
:100050000C948B000C948B000C948B000C948B00F4
:100060000C948B000C948B000000000024002700EF
:100070002A0000000000250028002B0000000000DE
:1000800023002600290004040404040404040202DA
:100090000202020203030303030301020408102007
:1000A0004080010204081020010204081020000012
:1000B0000007000201000003040600000000000029
:1000C0000000E801CA1711241FBECFEFD8E0DEBF41
:1000D000CDBF11E0A0E0B1E0E2EEF8E302C0059090
:1000E0000D92A434B107D9F713E0A4E4B1E001C044
:1000F0001D92A634B107E1F710E0C6ECD0E004C0D1
:100100002297FE010E946B1CC23CD107C9F70E94D6
:1001100020180C946F1C0C940000EF92FF920F9328
:10012000DF93CF93CDB7DEB760970FB6F894DEBFFD
:100130000FBECDBFA82F002309F461C07E01089433
:10014000E11CF11C88E0F70111928A95E9F72983F7
:100150003A834B835C836D837E83AF83988780E291
:10016000801BE82FFF27E7FDF0954D815E816F81B1
:100170007885181684F01D861E861F86188A8827A3
:1001800099278E1B9F0B04C07695679557954795C9
:100190008A95D2F728C0202F332727FD3095DB0121
:1001A000CA01022E04C0B695A795979587950A9423
:1001B000D2F78D879E87AF87B88B04C0440F551F39
:1001C000661F771FEA95D2F789819A81AB81BC813E
:1001D00004C0B695A795979587952A95D2F7482B91
:1001E000592B6A2B7B2B49875A876B877C872985FC
:1001F0003A854B855C856D857E85AF8598898A2F8C
:1002000060960FB6F894DEBF0FBECDBFCF91DF91E1
:100210000F91FF90EF900895EF92FF920F93DF936D
:10022000CF93CDB7DEB760970FB6F894DEBF0FBEA1
:10023000CDBFA82F002309F461C07E010894E11C02
:10024000F11C88E0F70111928A95E9F729833A8336
:100250004B835C836D837E83AF83988780E2801BB2
:10026000E82FFF27E7FDF09549815A816B817C815A
:10027000181684F019861A861B861C8688279927EB
:100280008E1B9F0B04C0440F551F661F771F8A9556
:10029000D2F728C0202F332727FD3095DB01CA0174
:1002A000022E04C0880F991FAA1FBB1F0A94D2F701
:1002B00089879A87AB87BC8704C0769567955795E1
:1002C0004795EA95D2F78D819E81AF81B88504C0AC
:1002D000880F991FAA1FBB1F2A95D2F7482B592BAD
:1002E0006A2B7B2B4D875E876F87788B29853A85B4
:1002F0004B855C856D857E85AF8598898A2F609654
:100300000FB6F894DEBF0FBECDBFCF91DF910F9136
:10031000FF90EF9008950F931F93DF93CF93CDB786
:10032000DEB72E970FB6F894DEBF0FBECDBF0D839C
:100330001E832F8338878D819E81AF81B885863853
:1003400029E7920726E3A2072BE4B20751F1873889
:1003500029E7920726E3A2072BE4B20770F4863C54
:1003600029E3920726E3A2072BE4B20701F1865A9C
:100370009945A643BB4409F50EC0863429EB920784
:1003800026E3A2072BE4B20779F08652994DA643E3
:10039000BB4499F403C088E090E00BC080E190E09A
:1003A00008C084E090E005C082E090E002C081E0F7
:1003B00090E090939801809397012E960FB6F89451
:1003C000DEBF0FBECDBFCF91DF911F910F9108957A
:1003D000CF92EF920F9384E491E00E94BB118FE5DE
:1003E00091E06AE046E020E931E00E948C0581E777
:1003F00091E062E047E020E101E152E1E52E33E1E6
:10040000C32E0E94821186E891E064E070E00E94B1
:1004100051070F91EF90CF9008958EE062E00E9417
:1004200029158FE062E00E94291584E293E040E8FC
:1004300055E260E070E00E9499168CE061E00E9455
:10044000291583E061E00E94291589E061E00E949E
:1004500029158DE061E00E9429158BE061E00E9482
:10046000291588E061E00E94291589E061E00E9479
:10047000681588E061E00E94681586E891E00E94B6
:10048000880F81E791E060E142E020E00E94CC101B
:100490008AE590E090934A01809349018FE090E0D3
:1004A00090934C0180934B011092480110924701A8
:1004B00088E290E090934E0180934D0184E491E0B6
:1004C00065E070E00E94F81280E991E09093540199
:1004D0008093530190935601809355019093580156
:1004E0008093570190935A018093590190935C0136
:1004F00080935B0190935E0180935D019093500126
:1005000080934F01109296011092950110929801DC
:100510001092970110929A011092990108950F93E9
:100520001F9301E711E0C8010E94C410C80160E0F8
:1005300040E00E949510C80160E071E00E946019DF
:1005400060914F0170915001C8014AE050E00E9453
:100550004D191F910F910895CF93DF93682F8FE569
:1005600091E00E947B0669E370E00E94051CEB01AC
:100570006115710511F4C0E9D1E068E270E080E036
:1005800090E00E942B14CE01DF91CF910895EF925D
:10059000FF920F931F93CF93DF932AE530E0281B40
:1005A000390B442737FD4095542FCA01B9010E94E9
:1005B000C31A7B018C0120E030E040E050E00E9453
:1005C000731B882324F1C801B70120E030E044EB1D
:1005D00051E40E94241A88231CF4C3E0D0E03FC0F9
:1005E000C801B70120E030E044E352E40E94241A3D
:1005F00018169CF5C801B70120E030E047E852E446
:100600000E94241A18164CF5C5E0D0E028C0C80195
:10061000B70120E030E044EB51EC0E94731B181648
:100620001CF4C2E0D0E01BC0C801B70120E030E0FC
:1006300044E352EC0E94731B882364F4C0E0D0E0D2
:10064000C801B70120E030E047E852EC0E94731B7C
:1006500088232CF0C1E0D0E002C0C4E0D0E081E00B
:1006600090E00E94AC028F30910524F483E090E08A
:100670000E94AC02CC0FDD1FCD5ADE4F99838883D8
:1006800080E991E09093500180934F017091510166
:1006900060915201E3E5F1E020E030E040815181DA
:1006A0004817590714F0AC0102C0722F632F2F5F57
:1006B0003F4F32962630310511F0CA01EFCF7093CB
:1006C0005101609352015093500140934F01DF91CB
:1006D000CF911F910F91FF90EF900895FC018081C1
:1006E0009181892B09F441C086819781865A9F4F59
:1006F000228133812817390721F481EF9FEF9583F9
:1007000084838AE590E026813781821B930B2281C6
:1007100033812817390721F48FE090E09583848393
:100720002481358182819381280F391F338322836D
:100730006AE570E086819781681B790B6217730701
:100740000CF4B9017383628326813781C901875A0A
:100750009F4F861797071CF4B901665A7F4F738322
:10076000628384E491E00E94111208950F931F9315
:10077000CF93DF93EC018B018130910571F489E017
:1007800061E00E94681588E060E00E9468158CE0D6
:1007900061E00E94681583E00FC089E060E00E947C
:1007A000681588E061E00E946815CE018095682F89
:1007B0008DE00E9468158BE0B8010E94C914DF919A
:1007C000CF911F910F9108951F93CF93DF93EC0169
:1007D000162F89E060E00E94681588E060E00E94C2
:1007E0006815113039F48CE061E00E9468158DE0E5
:1007F00060E006C08CE060E00E9468158DE061E07A
:100800000E94681583E0BE010E94C9148BE0BE01FE
:100810000E94C914DF91CF911F91089584E293E063
:100820006AE071E00E94631989E061E00E94681546
:1008300088E061E00E94681508958430910519F1FF
:100840008530910534F48130910599F00297E9F4EF
:1008500013C08830910519F04097B9F404C086E4BC
:1008600090E060E003C086E490E061E00E94E40371
:10087000089581E090E002C080E090E066E470E0DE
:100880000E94B60308950E940E040895CF92DF924D
:10089000EF92FF920F931F936EE170E080E090E083
:1008A0000E942B140E94A30F9B01AC0160939B013B
:1008B00070939C0180939D0190939E0180912001F3
:1008C00090912101A0912201B091230128173907AD
:1008D0004A075B0744F420932001309321014093A1
:1008E00022015093230184E293E065E171E00E94CC
:1008F000601940919B0150919C0160919D01709104
:100900009E0184E293E02AE030E00E94F91884E23C
:1009100093E06EE171E00E946019409120015091D6
:100920002101609122017091230184E293E02AE089
:1009300030E00E94391987E491E00E946E038091B3
:10094000490190914A010E94C70280914F01909104
:1009500050010F9734F481E090E090939A018093D6
:1009600099010E948F0286E891E067E871E00E9499
:10097000710E892B11F1C0908701D0908801E09011
:100980008901F0908A0100918B0110918C012091D6
:100990008D0130918E0140918F01509190016091B5
:1009A00091017091920180919301909194010E9424
:1009B0008B0186E891E00E94560780919501909105
:1009C00096018130910581F1823091051CF4892BCB
:1009D00049F09BC08230910509F451C0039709F09A
:1009E00094C076C08091970190919801009709F486
:1009F0008CC00E941D0480919701909198010497EA
:100A000051F081E090E0909396018093950190934E
:100A1000480180934701109298011092970110921B
:100A20009A011092990171C08091990190919A0157
:100A3000019749F40E940E0482E090E090939601A1
:100A40008093950117C0809197019091980100972C
:100A500009F45BC00E941D04809197019091980158
:100A6000049741F41092960110929501109248015A
:100A700010924701109298011092970146C087E3A7
:100A800090E061E00E94E4036CE271E080E090E0BD
:100A90000E942B140E940E0420E030E0809151014E
:100AA00090915201039714F421E030E0C90167E30B
:100AB00070E00E94B6038AE590E090934E01809327
:100AC0004D0183E090E090939601809395011DC0C5
:100AD00080914F01909150014597BCF081E090E0EA
:100AE000909396018093950110929A01109299012A
:100AF00088E290E090934E0180934D010E940E0495
:100B000086E490E060E00E94E4031F910F91FF9063
:100B1000EF90DF90CF900895CF93DF93EC01862F75
:100B200090E0FC01E656FF4FE491EC83A42FB0E087
:100B3000FD01E656FF4FE491ED838A579F4FFC017C
:100B4000449150E0440F551FFA01EE58FF4F859134
:100B500094919F838E83AA57BF4FFD018491E82F04
:100B6000F0E0EE0FFF1FE458FF4F859194919B87B3
:100B70008A87FA01E859FF4F859194919987888770
:100B8000F1E0253F3F0714F024EF31E089E390E0E6
:100B9000AC01249FC001259F900D349F900D11241E
:100BA0004C969D878C87DF91CF910895CF93DF93EB
:100BB000EC01E885F98580819C81892B8083EE8119
:100BC000FF8190818C8180958923808384E090E0EF
:100BD0000E948414EE81FF8180819C81892B808317
:100BE0008AE090E00E948414EE81FF8190818C81E4
:100BF000809589238083E885F98590818C81809513
:100C0000892380830E940514605B794B8F4F9F4F2F
:100C10006E877F87888B998BEA85FB85208130E002
:100C20008D8190E028233923232BC9F00E940514DD
:100C30002E853F8548895989261737074807590760
:100C400070F0EACF0E9405142E853F8548895989A6
:100C5000261737074807590710F480E019C0EA85BE
:100C6000FB85208130E08D8190E028233923232BE0
:100C700049F30E9405142C853D8540E050E0260F85
:100C8000371F481F591F2E873F87488B598B81E09C
:100C9000DF91CF910895CF93DF93EC010E94D605A9
:100CA000882361F422C00E9405142E853F8548895F
:100CB00059892617370748075907B8F0EA85FB8591
:100CC000208130E08D8190E028233923232B59F7B0
:100CD0000E9405144C855D85455050402E853F850A
:100CE000421B530B460F571F02C040E050E0CA01A1
:100CF000DF91CF9108958F929F92AF92BF92CF9242
:100D0000DF92EF92FF920F931F93DF93CF93CDB7B4
:100D1000DEB76C01162FADB6BEB6862F90E0880FF9
:100D2000991F2DB73EB7281B390B0FB6F8943EBF5D
:100D30000FBE2DBFEDB6FEB60894E11CF11CEDB759
:100D4000FEB71282118200E05DE1852E912C3CC03D
:100D5000C6010E944B06009729F41150F6018485C4
:100D6000958525C0002311F420E018C0202F08C06D
:100D7000AA0FBB1FAE0DBF1DED93FC93215071F068
:100D8000A22FB0E0FD013197EE0FFF1FEE0DFF1D0A
:100D90000190F081E02DE817F90750F3E22FF0E021
:100DA000EE0FFF1FEE0DFF1D918380830F5F011774
:100DB00058F4892F992786958695B401681B790B7D
:100DC00080E090E00E942B14011710F21E7FF701C3
:100DD000E10FF11D808191810FB6F894BEBE0FBE68
:100DE000ADBECF91DF911F910F91FF90EF90DF90FB
:100DF000CF90BF90AF909F908F900895DF92EF9229
:100E0000FF920F931F93CF93DF93EC01882777FD19
:100E10008095982F0E94C31A7B018C0120E030E05E
:100E200040E45FE30E94771B20E030E048E452E4B6
:100E30000E94281A0E94901AC617D70714F4DD24BE
:100E40001CC0DD24C801B70120E030E040EA5FE3C8
:100E50000E94771B20E030E048E452E40E94281A08
:100E600020E030E040E85FE30E94C0190E94901A41
:100E70006C177D0714F0DD24D3948D2D90E0DF9165
:100E8000CF911F910F91FF90EF90DF9008956C59D3
:100E90007F4F0E94FE060895645670400E94FE0631
:100EA000089560939F011092A101089582E08093BC
:100EB000A00110926C020895AF92BF92CF92DF9280
:100EC000EF92FF920F931F93CF93DF936B01DB01A0
:100ED0001A96CD91DC911B978A819B8168E273E21F
:100EE0000E944707892B09F480C080916C028430EE
:100EF00009F08CC08C819D816AEC78E00E944C07DF
:100F0000892B09F483C08E819F8160E372E00E9487
:100F10004707892B09F47AC0F601118610868FEFF6
:100F20009FEFAFEFBFEF84839583A683B78381E004
:100F300090E09183808354C08C819D8164E971E14C
:100F40000E944C07892B09F450C02696EE24FF24FA
:100F5000870123E0A22EB12C8881998160E372E0A1
:100F60000E944707892B09F440C08A819B8160E475
:100F700076E00E944C07892B69F0EE0CFF1C001FE5
:100F8000111F81E090E0A0E0B0E0E82AF92A0A2BE6
:100F90001B2B0CC08A819B8160E372E00E944C078E
:100FA000892B19F1EE0CFF1C001F111F249691E4F0
:100FB000A916B10429F0A2E0B0E0AA0EBB1ECCCF66
:100FC00080E290E0F60191878087D6011496ED9239
:100FD000FD920D931C93179781E090E08D939C9365
:100FE00021E030E040E050E004C020E030E040E0AC
:100FF00050E0B901CA01DF91CF911F910F91FF908D
:10100000EF90DF90CF90BF90AF90089580916C02E9
:10101000843458F391CFAF92BF92CF92DF92EF9288
:10102000FF920F931F93CF93DF936B0180916C021C
:101030008A3108F480C0DB011A96CD91DC911B97B0
:1010400088819981845F914080F4FB01118610862C
:101050008FEF9FEFAFEFBFEF84839583A683B783B6
:1010600089E090E09183808361C08A819B8160E602
:1010700079E00E944707892B09F45DC02696EE248B
:10108000FF24870162E0A62EB12C30C02297888110
:101090009981229668E572E00E944C07892B79F1CC
:1010A0008881998160EB74E00E944707892B69F081
:1010B000EE0CFF1C001F111F81E090E0A0E0B0E0EB
:1010C000E82AF92A0A2B1B2B0CC08881998168E534
:1010D00072E00E944707892B71F1EE0CFF1C001F84
:1010E000111FA2E0B0E0AA0EBB1E249680916C02F4
:1010F00095012F5F3F4F90E0281739073CF2C5015B
:10110000019795958795F601918780870C971CF438
:101110001186108610C0D6011496ED92FD920D93A3
:101120001C93179782E090E08D939C9321E030E030
:1011300040E050E004C020E030E040E050E0B90181
:10114000CA01DF91CF911F910F91FF90EF90DF9037
:10115000CF90BF90AF900895AF92BF92CF92DF92A1
:10116000EF92FF920F931F93CF93DF936B018091C8
:101170006C028A3108F489C0DB011A96CD91DC91AA
:101180001B97888199818052934080F4FB011186DE
:1011900010868FEF9FEFAFEFBFEF84839583A68319
:1011A000B78389E090E0918380836AC08A819B81C4
:1011B0006CEA7DE00E944707892B09F466C08C81A8
:1011C0009D816CEA7DE00E944707892B09F45DC090
:1011D0002896EE24FF248701A3E0AA2EB12C30C06C
:1011E000229788819981229666EB73E00E944C07D2
:1011F000892B79F18881998160E679E00E9447071F
:10120000892B69F0EE0CFF1C001F111F81E090E09C
:10121000A0E0B0E0E82AF92A0A2B1B2B0CC0888139
:1012200099816CEB72E00E944707892B71F1EE0CFB
:10123000FF1C001F111FA2E0B0E0AA0EBB1E2496E7
:1012400080916C0295012F5F3F4F90E0281739077E
:101250003CF2C501019795958795F60191878087A6
:101260000C971CF41186108610C0D6011496ED92CE
:10127000FD920D931C93179789E090E08D939C93BA
:1012800021E030E040E050E004C020E030E040E009
:1012900050E0B901CA01DF91CF911F910F91FF90EA
:1012A000EF90DF90CF90BF90AF9008956F927F92B4
:1012B0008F929F92AF92BF92CF92DF92EF92FF9266
:1012C0000F931F93CF93DF934B0180916C02823277
:1012D00008F47AC0DB011A96CD91DC911B978A81C4
:1012E0009B816EE571E00E944707892B09F46CC071
:1012F00036E0A32EB12CAC0EBD1EEE24FF248701D8
:1013000022E0C22ED12C37C0E50122978881998135
:101310006EE977E00E944707892B69F0EE0CFF1C0D
:10132000001F111F81E090E0A0E0B0E0E82AF92A58
:101330000A2B1B2B0DC0888199816EEE72E00E94F2
:101340004707892B09F440C0EE0CFF1C001F111F3A
:10135000D5018D919C916EE571E00E944C07E4E00F
:10136000F0E0AE0EBF1E892B11F463010FC022E026
:1013700030E0C20ED31E36010894611C711C8091AE
:101380006C0290E0681679060CF4BECFC601019796
:1013900095958795D40119969C938E9318974097AD
:1013A0002CF419961C921E9218970EC0F401E48238
:1013B000F582068317838AE090E09183808321E0A1
:1013C00030E040E050E004C020E030E040E050E099
:1013D000B901CA01DF91CF911F910F91FF90EF905A
:1013E000DF90CF90BF90AF909F908F907F906F9045
:1013F00008956F927F928F929F92AF92BF92CF92F9
:10140000DF92EF92FF920F931F93CF93DF93FB0135
:101410003A0159016801DA012D913C918485958545
:101420002817390724F071E0E72EF12C56C0C901C6
:10143000880F991F0284F385E02DE80FF91F808142
:101440009181982E892E20FD06C00CE91FEF51E0F6
:10145000E52EF12C04C004E610E0EE24FF24B801D0
:101460006C0D7D1D892D982D0E94FE06892B19F08B
:1014700021E030E020C0E601CC0FDD1FB8016C0F89
:101480007D1F892D982D0E94FE06892B19F022E0E0
:1014900030E011C0CC0DDD1D0C0F1D1F892D982DC6
:1014A000B8010E94FE06892B21F4EE24EA94FE2C5A
:1014B00014C023E030E0F501808191810196918391
:1014C0008083821793074CF011821082D3018D9193
:1014D0009C91119701968D939C93C701DF91CF91B9
:1014E0001F910F91FF90EF90DF90CF90BF90AF9042
:1014F0009F908F907F906F9008952F923F924F9280
:101500005F926F927F928F929F92AF92BF92CF9293
:10151000DF92EF92FF920F931F93DF93CF9300D050
:1015200000D000D0CDB7DEB71C015B0180916C020A
:101530008D3008F47EC081E090E09A8389831C821C
:101540001B82A3E08A2E912C8C0E9D1EC1012E01C0
:101550000894411C511CA201940109E713E00E9468
:10156000F909892B09F065C0C101B501A2019401F7
:101570000E94F909019709F05CC0C101B501A201FF
:1015800094010E94F909892B09F053C0CC24DD2471
:10159000760166247724C4018D829E832FC0C10109
:1015A000B501A2012D813E8109E713E00E94F909EE
:1015B0004C01C101B501A2012D813E810E94F909B2
:1015C00021E08216910479F4892B99F5CC0CDD1C6D
:1015D000EE1CFF1C81E090E0A0E0B0E0C82AD92A10
:1015E000EA2AFB2A08C0892821F5019711F5CC0CBD
:1015F000DD1CEE1CFF1C0894611C711C80916C02A8
:1016000090E029813A81281739074CF2D5011996C3
:101610007C926E921897F501C482D582E682F78299
:1016200083E090E09183808321E030E040E050E06F
:1016300004C020E030E040E050E0B901CA01269645
:101640000FB6F894DEBF0FBECDBFCF91DF911F91D3
:101650000F91FF90EF90DF90CF90BF90AF909F9051
:101660008F907F906F905F904F903F902F90089554
:101670002F923F924F925F926F927F928F929F92A2
:10168000AF92BF92CF92DF92EF92FF920F931F9390
:10169000DF93CF93CDB7DEB728970FB6F894DEBFB0
:1016A0000FBECDBF1C014B01DB011C968D919C919F
:1016B0001D97181619060CF0C4C081E090E09A83BB
:1016C00089831A960D911C911B97F8018281938151
:1016D0006AE67AE00E944707892B09F4B2C082E0EB
:1016E00090E09A838983D80114968D919C911597E7
:1016F00069E773E00E944C07892B09F4A2C083E0DC
:1017000090E09A8389831C821B8203E0A02EB12C77
:10171000AC0EBD1EC101B4013E010894611C711CD8
:10172000A30195010CEB11E00E94F909892B09F046
:1017300088C0C101B401A30195010E94F909019774
:1017400009F07FC0CC24DD24760144245524C50152
:10175000AD829E83C3016F82988756C0C101B401D8
:101760004F8158852D813E810CEB11E00E94F909D3
:101770003C01B3E04B16510461F4C101B4014F8147
:1017800058852D813E810E94F9096816790609F075
:1017900058C0C101B4014F8158852D813E810CEBA9
:1017A00011E00E94F9095C01E3E04E16510459F47E
:1017B000C101B4014F8158852D813E810E94F909F4
:1017C000A816B906F1F56114710489F4F1E0AF16B9
:1017D000B104B9F5CC0CDD1CEE1CFF1C81E090E0DF
:1017E000A0E0B0E0C82AD92AEA2AFB2A0AC091E080
:1017F0006916710431F5AB2821F5CC0CDD1CEE1C0B
:10180000FF1C0894411C511C29813A81D4011C966B
:101810008D919C911D97281739070CF49FCF19962D
:101820005C924E921897F401C482D582E682F782C8
:1018300084E090E09183808321E030E040E050E05C
:1018400004C020E030E040E050E0B901CA01289631
:101850000FB6F894DEBF0FBECDBFCF91DF911F91C1
:101860000F91FF90EF90DF90CF90BF90AF909F903F
:101870008F907F906F905F904F903F902F90089542
:101880006F927F928F929F92AF92BF92CF92DF9290
:10189000EF92FF920F931F93CF93DF937B01FB0196
:1018A000C285D3858A819B816EEA7DE00E944707CD
:1018B000892B09F474C08C819D8166ED76E00E94CD
:1018C0004707892B09F46BC0269600E010E0DD2461
:1018D000CC24992488247724662483E0A82EB12C74
:1018E0008881998166EF71E00E944707892B09F48E
:1018F00056C08A819B816CED74E00E944C07892B55
:1019000069F098014D2D5C2D692D782D872D962D30
:1019100001E00E940C01022F016013C08A819B81AB
:1019200060E971E00E944C07892BC9F198014D2DA7
:101930005C2D692D782D872D962D01E00E940C01DC
:10194000022F132FD42EC52E962E872E782E692E79
:101950002496F1E6AF16B10429F082E090E0A80EDB
:10196000B91EBECFC801F701048395834683578310
:101970009801872D962D00E20E948D00C901F70184
:101980002283938387E090E09183808380E390E0DB
:101990009187808721E030E040E050E004C020E003
:1019A00030E040E050E0B901CA01DF91CF911F91D2
:1019B0000F91FF90EF90DF90CF90BF90AF909F90EE
:1019C0008F907F906F9008958F929F92AF92BF9269
:1019D000CF92DF92EF92FF920F931F93CF93DF93FB
:1019E0006B0180916C02823209F0B2C0DB011A9661
:1019F000CD91DC911B978A819B8168E572E00E9402
:101A00004707892B09F4A4C080916C0221E030E0E3
:101A1000281B3109220F331FC21BD30B88819981E8
:101A200068E572E00E944707892B09F491C0F6012E
:101A3000118610868FEF9FEFAFEFBFEF8483958302
:101A4000A683B78388E090E09183808369C080910A
:101A50006C02813208F469C0D50114968D919C9175
:101A6000159760EA7FE00E944C07892B09F45DC05E
:101A7000E5012696EE24FF24870133E0832E912C86
:101A80008881998168E572E00E944707892B09F4F3
:101A90004CC08A819B8160E476E00E944C07892BD0
:101AA00069F0EE0CFF1C001F111F81E090E0A0E028
:101AB000B0E0E82AF92A0A2B1B2B0CC08A819B81F3
:101AC00066E272E00E944C07892B79F1EE0CFF1C54
:101AD000001F111FA2E0B0E08A0E9B1E2496B3E205
:101AE0008B16910469F6E6E4F0E0AE0EBF1ED50158
:101AF0008D919C9168E572E00E944707892BA9F0BF
:101B000080E190E0F60191878087D6011496ED92EE
:101B1000FD920D931C93179788E090E08D939C9312
:101B200021E030E040E050E004C020E030E040E060
:101B300050E0B901CA01DF91CF911F910F91FF9041
:101B4000EF90DF90CF90BF90AF909F908F900895CF
:101B5000F601A284B384D50112968D919C911397BE
:101B600060E47FE10E944707892B09F070CFDDCF49
:101B70002F923F924F925F926F927F928F929F929D
:101B8000AF92BF92CF92DF92EF92FF920F931F938B
:101B9000DF93CF9300D0CDB7DEB71B01FB01848567
:101BA0009585863091052CF420E030E040E050E04F
:101BB00081C0F5ECAF2EFDE9BF2EFCE1CF2EF1E8A0
:101BC000DF2EE6E04E2E512C9C01220F331F3A836C
:101BD000298359C0F101A285B385F2013497EA0F38
:101BE000FB1FE080F180A40DB51D6D917C9180E01C
:101BF00090E00E94C11A3B014C0100E010E0C801D6
:101C0000B7010E94C11A7B018C012DEC3CEC4CE425
:101C10005FE30E94771B9B01AC01C401B3010E94EA
:101C2000241A88231CF400E010E018C0C401B3019A
:101C30002DEC3CEC4CE45FE30E94771B9B01AC0174
:101C4000C801B7010E94241A082F112707FD10951B
:101C50000027110F001F11270F5F1F4FC601B5018D
:101C600023E931E040E051E00E94DA1B5801CC2426
:101C7000B7FCC094DC2CA626B726C826D92622E0BD
:101C800030E0420E531E89819A814816590609F0A8
:101C9000A1CFF101A482B582C682D78280E290E012
:101CA000918780878FEF9FEF9183808321E030E0E1
:101CB00040E050E0B901CA010F900F90CF91DF9141
:101CC0001F910F91FF90EF90DF90CF90BF90AF905A
:101CD0009F908F907F906F905F904F903F902F904C
:101CE00008950F931F93CF93DF938C01EB0184EA48
:101CF00091E09B878A8780916C028C871D868091FA
:101D0000A001853009F057C0C8010E945C07611529
:101D100071058105910509F051C0C801BE010E94FD
:101D20000B08611571058105910509F047C0C801CF
:101D3000BE010E94AC086115710581059105F1F5A0
:101D4000C801BE010E945609611571058105910502
:101D5000A9F5C801BE010E947D0A611571058105C2
:101D6000910561F5C801BE010E94380B611571052E
:101D70008105910519F5C801BE010E94400C61154D
:101D8000710581059105D1F4C801BE010E94E40CE2
:101D9000611571058105910589F4C801BE010E9494
:101DA000B80D611571058105910541F482E08093BC
:101DB000A00110926C0220E030E002C021E030E08F
:101DC000C901DF91CF911F910F9108951F920F923A
:101DD0000FB60F9211242F933F934F935F936F93FE
:101DE0007F938F939F93AF93BF93EF93FF938091D4
:101DF0009F010E94BC15482F8091A2019091A301E0
:101E000001969093A3018093A20180916C02843685
:101E100018F085E08093A0018091A0018330D1F07B
:101E2000843020F4823009F059C006C0843071F14A
:101E3000853009F053C04CC0442309F04FC0809155
:101E4000A2019091A3018436910508F443C0109239
:101E50006C021EC0413009F041C080916C02E82F35
:101E6000F0E02091A2013091A301EE0FFF1FE15697
:101E7000FE4F368325838F5F80936C021092A301FF
:101E80001092A20184E08093A00128C04423B9F4F9
:101E900080916C02E82FF0E02091A2013091A30123
:101EA000EE0FFF1FE156FE4F368325838F5F809331
:101EB0006C021092A3011092A20183E0E4CF809102
:101EC000A2019091A3018536910540F085E0DBCF1A
:101ED000442321F41092A3011092A2018091A10148
:101EE000882329F0442311F42D9A01C02D98FF91E5
:101EF000EF91BF91AF919F918F917F916F915F9182
:101F00004F913F912F910F900FBE0F901F901895FA
:101F1000F89492E09093B0009093B10084E680939F
:101F2000B300E2EBF0E01082E081909370007894CF
:101F300082E08093A00110926C0280919F0160E08A
:101F40000E94291508958EE480937C0062E070E081
:101F500080E090E00E942B1480917A00806480934E
:101F60007A0080917A0086FDFCCF809178006091A4
:101F70007900362F20E090E0282B392B442737FDBD
:101F80004095542F64EB7BE281E190E00E944E1C6F
:101F9000CA01B90108950F931F938C01FC0186813A
:101FA00060E00E94681581E090E00E948414F801CE
:101FB000868161E00E94681581E090E00E948414AF
:101FC000F801868160E00E94681584E690E00E9436
:101FD00084141F910F910895CF92DF92EF92FF9298
:101FE0000F931F93CF93DF93D82EC92E282F392F0D
:101FF000C9018C01C0E0D0E0E62EFF24F801878102
:1020000061E00E942915B7010C2E02C075956795F5
:102010000A94E2F76170F80187810E9468152196A1
:102020000F5F1F4FC830D10549F78D2D9C2D0E94A1
:10203000CB0FDF91CF911F910F91FF90EF90DF9029
:10204000CF900895CF92DF92EF92FF920F931F935C
:10205000CF93DF93D82EC92E282F392FC9018C0199
:10206000C0E0D0E0E62EFF24F801878161E00E9405
:102070002915B7010C2E02C0759567950A94E2F7F1
:102080006170F80187810E94681521960F5F1F4FCC
:10209000C430D10549F78D2D9C2D0E94CB0FDF91C7
:1020A000CF911F910F91FF90EF90DF90CF90089507
:1020B0001F93CF93DF93EC01162F8C81642F0E9426
:1020C00068158D818F3F19F060E00E9468158F853B
:1020D00084FF05C0CE01612F0E94EC0F0EC0612F5E
:1020E00070E084E0759567958A95E1F7CE010E94CE
:1020F0002210CE01612F0E942210DF91CF911F91FB
:10210000089541E00E94581081E090E0089540E079
:102110000E9458100895FC016089862F8460808B8E
:102120006C60CF010E9487100895DF93CF93CDB7E5
:10213000DEB728970FB6F894DEBF0FBECDBF9C0167
:10214000FE013196ACE2B1E088E00D900192815041
:10215000E1F7F9018389481710F0482F4150E42F27
:10216000F0E0EE0FFF1FEC0FFD1F8181680F60682C
:10217000C9010E94871028960FB6F894DEBF0FBEE3
:10218000CDBFCF91DF91089561E00E94871080ED6F
:1021900097E00E9484140895CF93DF93EC014230BE
:1021A00018F08F8588608F874B8B1C8A222329F03B
:1021B000413019F48F8584608F8780E593EC0E940D
:1021C00084148C8160E00E9468158E8160E00E941A
:1021D00068158D818F3F19F060E00E9468156F854A
:1021E00064FD1DC0CE0163E00E94221084E991E1EC
:1021F0000E948414CE0163E00E94221084E991E1E0
:102200000E948414CE0163E00E94221086E990E0CF
:102210000E948414CE0162E00E94221016C0606207
:10222000CE010E94871084E991E10E9484146F8599
:102230006062CE010E94871086E990E00E948414BB
:102240006F856062CE010E9487106F856062CE014B
:102250000E94871084E0888BCE010E948B10CE01F3
:102260000E94C41082E0898BCE0166E00E94871034
:10227000DF91CF9108956F927F928F92AF92CF921C
:10228000EF920F931F93DF93CF93CDB7DEB73C014F
:10229000162F842FF301448325830683E782C086AB
:1022A000A18682869D8593879E8594879F85958745
:1022B0009889968761E00E942915F30185818F3FF7
:1022C00019F061E00E942915F301868161E00E9406
:1022D0002915112319F0F301178603C080E1F301DA
:1022E0008787C30160E141E020E00E94CC10CF91DC
:1022F000DF911F910F91EF90CF90AF908F907F90D3
:102300006F9008958F92AF92CF92EF920F931F9399
:10231000CF93DF93DC01362F542F722F102FAE2C6A
:102320008C2C13961C921E92129788E291E01196C3
:102330009C938E9300D000D0EDB7FEB73196CDB709
:10234000DEB71982118212821382CD0161E0432F20
:102350002FEF052FE72EC12E0E943B110F900F90FB
:102360000F900F90DF91CF911F910F91EF90CF9031
:10237000AF908F900895FC0180916D028C3090F4A5
:1023800080838F5F80936D02815090E0FC01EE0F9F
:10239000FF1FE80FF91FE259FD4F88EB9BE0928386
:1023A000818308958FEF80830895FC0120812C3074
:1023B000B8F58181992787FD909548E850E0481B42
:1023C000590B440F551F440F551F6417750784F0B0
:1023D0008281992787FD909548E552E0481B590B6B
:1023E000440F551F440F551F641775070CF4AB01BC
:1023F00042505040CA01AA2797FDA095BA2F880FD6
:10240000991FAA1FBB1F4FB7F89430E0F901EE0FD8
:10241000FF1FE20FF31FE259FD4F928381834FBFED
:102420000895AF92BF92CF92DF92EF92FF920F93F7
:102430001F93CF93DF93EC019B0182E0603278071A
:102440000CF048C077FF03C020E030E005C0653BDA
:10245000710514F024EB30E000D000D0B9018827DA
:1024600077FD8095982F2981332727FD3095E8E85F
:10247000AE2EB12CA21AB30AAA0CBB1CAA0CBB1C10
:10248000CC24B7FCC094DC2CEA81FF27E7FDF09553
:1024900028E532E02E1B3F0B220F331F220F331F84
:1024A000442737FD4095542FEDB7FEB72183328383
:1024B0004383548320E030E040E050E004EBE02E22
:1024C000F12C012D112D0E9476199B010F900F9078
:1024D0000F900F90CE01B9010E94D511DF91CF91DD
:1024E0001F910F91FF90EF90DF90CF90BF90AF9032
:1024F0000895CF92DF92EF92FF921F93CF93DF93D5
:10250000EC01162F7A01690188818C3008F064C0D3
:10251000862F61E00E942915888190E0FC01EE0F72
:10252000FF1FE80FF91FE259FD4F1F738081807C68
:10253000812B808380E292E08E199F0964E070E035
:102540000E94191C698380E699E08C199D0964E05A
:1025500070E00E94191C6A83A8818A2F6CE00E9497
:10256000F91B682F70E0AB01440F551F460F571F32
:10257000440F551F440F551F20E030E0C901840F60
:10258000951FFC01EE0FFF1FE80FF91FE259FD4FE9
:10259000808186FD15C02F5F3F4F2C30310571F7CC
:1025A00024C01092800082E0809381001092850008
:1025B00010928400B19A80916F00826080936F00C6
:1025C0008A2F90E0FC01EE0FFF1FE80FF91FE25980
:1025D000FD4F8081806480838881DF91CF911F913E
:1025E000FF90EF90DF90CF900895672BD1F2E8CF66
:1025F00040E252E020E639E00E94791208951F92ED
:102600000F920FB60F9211242F933F934F935F9326
:102610006F937F938F939F93AF93BF93EF93FF93AA
:102620008091920287FF05C010928500109284006D
:102630002BC020919202332727FD309580916D02A7
:1026400090E02817390704F580919202992787FDB9
:102650009095FC01EE0FFF1FE80FF91FE259FD4FA7
:10266000808186FF11C080919202992787FD909505
:10267000FC01EE0FFF1FE80FF91FE259FD4F8081AB
:102680008F7360E00E946815809192028F5F809343
:10269000920220919202332727FD309580916D029E
:1026A00090E0281739070CF04EC0809192028C30D0
:1026B0000CF049C0209184003091850080919202F5
:1026C000992787FD9095FC01EE0FFF1FE80FF91F7A
:1026D000E259FD4F81819281280F391F3093890083
:1026E0002093880080919202992787FD9095FC01A4
:1026F000EE0FFF1FE80FF91FE259FD4F808186FFA3
:102700002BC080919202992787FD9095FC01EE0FD6
:10271000FF1FE80FF91FE259FD4F80818F7361E0C1
:102720000E94681519C080E49CE905C0809184006E
:1027300090918500049690938900809388008FEF94
:102740008093920209C08091840090918500049644
:1027500080549C4940F3EACFFF91EF91BF91AF9134
:102760009F918F917F916F915F914F913F912F91A9
:102770000F900FBE0F901F9018951F920F920FB6DB
:102780000F9211242F933F938F939F93AF93BF93F7
:102790008091970290919802A0919902B0919A022B
:1027A00030919B020196A11DB11D232F2D5F2D3766
:1027B00020F02D570196A11DB11D20939B028093FF
:1027C000970290939802A0939902B0939A028091F5
:1027D000930290919402A0919502B0919602019675
:1027E000A11DB11D8093930290939402A093950232
:1027F000B0939602BF91AF919F918F913F912F918E
:102800000F900FBE0F901F9018959FB7F8942091CE
:10281000930230919402409195025091960286B5B0
:10282000A89B06C08F3F21F02F5F3F4F4F4F5F4F58
:102830009FBF542F432F322F2227280F311D411DB8
:10284000511D82E0220F331F441F551F8A95D1F777
:10285000B901CA0108959B01AC017FB7F89480913A
:10286000930290919402A0919502B091960266B560
:10287000A89B05C06F3F19F00196A11DB11D7FBF38
:10288000BA2FA92F982F8827860F911DA11DB11D42
:1028900062E0880F991FAA1FBB1F6A95D1F7BC0180
:1028A0002DC0FFB7F8948091930290919402A0916B
:1028B0009502B0919602E6B5A89B05C0EF3F19F0CE
:1028C0000196A11DB11DFFBFBA2FA92F982F8827F0
:1028D0008E0F911DA11DB11DE2E0880F991FAA1F47
:1028E000BB1FEA95D1F7861B970B885E9340C8F211
:1028F000215030404040504068517C4F21153105F7
:102900004105510571F60895019739F0880F991F17
:10291000880F991F02970197F1F70895789484B56D
:10292000826084BD84B5816084BD85B5826085BDCB
:1029300085B5816085BDEEE6F0E0808181608083B1
:10294000E1E8F0E010828081826080838081816094
:102950008083E0E8F0E0808181608083E1EBF0E05B
:10296000808184608083E0EBF0E0808181608083FF
:10297000EAE7F0E0808184608083808182608083E8
:102980008081816080838081806880831092C10013
:1029900008951F93CF93DF93182FEB0161E00E94FE
:1029A0002915209709F44AC0CF3FD10509F449C041
:1029B000E12FF0E0E255FF4F84918330C1F0843085
:1029C00028F4813051F08230B1F50CC0863019F115
:1029D000873049F1843079F514C084B5806884BDAE
:1029E000C7BD33C084B5806284BDC8BD2EC0809190
:1029F0008000806880938000D0938900C093880015
:102A000024C080918000806280938000D0938B00EE
:102A1000C0938A001AC08091B00080688093B00093
:102A2000C093B30012C08091B00080628093B00068
:102A3000C093B4000AC0C038D1051CF4812F60E0F7
:102A400002C0812F61E00E946815DF91CF911F9134
:102A50000895CF93DF93482F50E0CA0186569F4FC9
:102A6000FC0134914A575F4FFA018491882369F140
:102A700090E0880F991FFC01E859FF4FA591B49190
:102A8000FC01EE58FF4FC591D491662351F42FB746
:102A9000F8948C91932F909589238C938881892326
:102AA0000BC0623061F42FB7F8948C91932F9095FE
:102AB00089238C938881832B88832FBF06C09FB77F
:102AC000F8948C91832B8C939FBFDF91CF910895C5
:102AD000482F50E0CA0182559F4FFC012491CA0142
:102AE00086569F4FFC0194914A575F4FFA013491EB
:102AF000332309F440C0222351F1233071F02430F4
:102B000028F42130A1F0223011F514C02630B1F0A4
:102B10002730C1F02430D9F404C0809180008F7731
:102B200003C0809180008F7D8093800010C084B5A9
:102B30008F7702C084B58F7D84BD09C08091B000BD
:102B40008F7703C08091B0008F7D8093B000E32F1A
:102B5000F0E0EE0FFF1FEE58FF4FA591B4912FB795
:102B6000F894662321F48C919095892302C08C916E
:102B7000892B8C932FBF0895682F70E0CB0182556D
:102B80009F4FFC012491CB0186569F4FFC0144913D
:102B90006A577F4FFB019491992319F420E030E0AC
:102BA0003CC0222351F1233071F0243028F421302D
:102BB000A1F0223011F514C02630B1F02730C1F059
:102BC0002430D9F404C0809180008F7703C08091B5
:102BD00080008F7D8093800010C084B58F7702C005
:102BE00084B58F7D84BD09C08091B0008F7703C00C
:102BF0008091B0008F7D8093B000892F90E0880F86
:102C0000991F84589F4FFC01A591B4918C9120E0AD
:102C100030E0842311F021E030E0C90108950895E7
:102C20001F920F920FB60F9211242F933F934F9341
:102C30008F939F93EF93FF938091C00082FD1DC0FF
:102C40004091C6002091DC023091DD022F5F3F4FA2
:102C50002F7330708091DE029091DF0228173907C0
:102C600071F0E091DC02F091DD02E456FD4F40830B
:102C70003093DD022093DC0202C08091C600FF91F8
:102C8000EF919F918F914F913F912F910F900FBE98
:102C90000F901F901895E0913003F0913103E05CA4
:102CA000FF4F8191919120813181821B930B8F7312
:102CB0009070892B11F00E940F1608951F920F92A9
:102CC0000FB60F9211242F933F938F939F93EF93FF
:102CD000FF93209120033091210380912203909152
:102CE00023032817390731F48091C1008F7D809329
:102CF000C10014C0E0912203F0912303E052FD4F84
:102D00002081809122039091230301968F7390700C
:102D100090932303809322032093C600FF91EF91A9
:102D20009F918F913F912F910F900FBE0F901F9009
:102D30001895AF92BF92DF92EF92FF920F931F937D
:102D4000CF93DF93EC017A018B01DD24403081EEDB
:102D5000580780E0680780E0780711F0DD24D394FD
:102D600091E0A92EB12CEC89FD89DD2069F0C50127
:102D700008A002C0880F991F0A94E2F7808360E0E0
:102D800079E08DE390E005C0108260E874E88EE1A0
:102D900090E0A80197010E942C1C21503040404037
:102DA0005040569547953795279580E12030380754
:102DB00020F0DD2011F0DD24D6CFE889F9893083B9
:102DC000EA89FB89208319A2EE89FF89408121E0ED
:102DD00030E0C9010C8C02C0880F991F0A94E2F7F9
:102DE000482B4083EE89FF894081C9010D8C02C0C8
:102DF000880F991F0A94E2F7482B4083EE89FF89D8
:102E00004081C9010E8C02C0880F991F0A94E2F715
:102E1000482B4083EE89FF8980810F8C02C0220FEE
:102E2000331F0A94E2F7209528232083DF91CF9166
:102E30001F910F91FF90EF90DF90BF90AF9008959A
:102E4000DC011C96ED91FC911D97E05CFF4F2191F8
:102E5000319180819181281B390B2F733070C9010A
:102E60000895DC011C96ED91FC911D97E05CFF4FED
:102E700020813181E054F040DF01AE5BBF4F8D9186
:102E80009C9111972817390719F42FEF3FEF07C0CE
:102E90008D919C91E80FF91F8081282F30E0C901A6
:102EA0000895DC011C96ED91FC911D97E05CFF4FAD
:102EB00020813181E054F040DF01AE5BBF4F8D9146
:102EC0009C9111972817390719F42FEF3FEF10C085
:102ED0008D919C911197E80FF91F20818D919C9104
:102EE000119701968F73907011969C938E9330E09A
:102EF000C9010895DC0191968C919197882339F04E
:102F00005496ED91FC915597808186FFF9CF91966B
:102F10001C920895CF93DF93EC01EE85FF85E05C72
:102F2000FF4F20813181E054F0402F5F3F4F2F73DE
:102F30003070DF01AE5BBF4F8D919C9111972817C8
:102F40003907D1F3E05CFF4F80819181E054F0407C
:102F5000E80FF91F6083EE85FF85E05CFF4F31834A
:102F60002083EE89FF89208181E090E00F8C02C0F0
:102F7000880F991F0A94E2F7282B208381E089A308
:102F8000EC89FD8980818064808381E090E0DF911D
:102F9000CF910895109227031092260388EE93E0B4
:102FA000A0E0B0E08093280390932903A0932A0324
:102FB000B0932B0388E391E090932503809324033F
:102FC0008CE992E0909331038093300380EE92E09D
:102FD000909333038093320385EC90E09093350314
:102FE0008093340384EC90E090933703809336030E
:102FF00080EC90E0909339038093380381EC90E06B
:1030000090933B0380933A0382EC90E090933D03CE
:1030100080933C0386EC90E090933F0380933E03C3
:1030200084E08093400383E08093410387E08093B2
:10303000420385E08093430381E080934403089535
:10304000CF93DF930E948E140E940D02CBE4D6E151
:103050000E9446042097E1F30E944B16F9CFCF92CD
:10306000DF92EF92FF920F931F93CF93DF937C0138
:103070006B018A01C0E0D0E00FC0D6016D916D01F7
:10308000D701ED91FC910190F081E02DC7010995E8
:10309000C80FD91F015010400115110571F7CE015D
:1030A000DF91CF911F910F91FF90EF90DF90CF9024
:1030B0000895EF92FF920F931F938C01DC01ED9125
:1030C000FC910190F081E02D6DE009957C01D80123
:1030D000ED91FC910190F081E02DC8016AE0099525
:1030E0009C012E0D3F1DC9011F910F91FF90EF9084
:1030F0000895CF93DF93EC016115710519F420E079
:1031000030E00FC0DB010D900020E9F71197A61BFE
:10311000B70BE881F9810280F381E02DAD010995BB
:103120009C01C901DF91CF9108954F925F927F92E8
:103130008F929F92AF92BF92CF92DF92EF92FF92C7
:103140000F931F93DF93CF93CDB7DEB7A1970FB641
:10315000F894DEBF0FBECDBF2C01742ECB01223000
:1031600008F42AE019A231E2C32ED12CCC0EDD1EC8
:10317000822E9924AA24BB24672D752FA5019401C2
:103180000E942C1C79018A01C801B701A501940194
:103190000E94DA1B472D461B0894C108D1084A300B
:1031A00014F4405D01C0495CF6014083E114F10470
:1031B0000105110521F07E2C5F2DC801DDCFC20174
:1031C000B6010E947918A1960FB6F894DEBF0FBE23
:1031D000CDBFCF91DF911F910F91FF90EF90DF90C6
:1031E000CF90BF90AF909F908F907F905F904F90C7
:1031F0000895CF92DF92EF92FF920F931F93CF9398
:10320000DF93EC016A017B012115310541F4E8816E
:10321000F9810190F081E02D642F09951FC02A30BB
:103220003105D1F477FF17C0E881F9810190F08171
:10323000E02D6DE209958C0144275527BA014C1900
:103240005D096E097F09CE012AE00E949518980158
:10325000280F391F04C02AE00E9495189C01C9015B
:10326000DF91CF911F910F91FF90EF90DF90CF9062
:103270000895EF92FF920F931F937C010E94F9181B
:103280008C01C7010E9459189C01200F311FC901F0
:103290001F910F91FF90EF900895EF92FF920F937F
:1032A0001F937B019A010027F7FC0095102FB801AE
:1032B000A7010E94F9181F910F91FF90EF900895B8
:1032C0000E9479180895EF92FF920F931F937C014B
:1032D0000E9479188C01C7010E945918080F191F04
:1032E000C8011F910F91FF90EF9008952F923F9288
:1032F0004F925F926F927F928F929F92AF92BF9206
:10330000CF92DF92EF92FF920F931F93DF93CF93B1
:10331000CDB7DEB73B014C0119012A016D897E89C9
:103320008F89988D6A197B098C099D09621A730A25
:10333000840A950AA40193010E94DA1BE218F3089B
:1033400004091509A80197010E944E1C2A0D3B1D76
:103350004C1D5D1DB901CA01CF91DF911F910F91E5
:10336000FF90EF90DF90CF90BF90AF909F908F90A5
:103370007F906F905F904F903F902F90089550589E
:10338000BB27AA270ED075C166D130F06BD120F0D3
:1033900031F49F3F11F41EF45BC10EF4E095E7FB9E
:1033A00051C1E92F77D180F3BA17620773078407F9
:1033B000950718F071F49EF58FC10EF4E0950B2E71
:1033C000BA2FA02D0B01B90190010C01CA01A00177
:1033D0001124FF27591B99F0593F50F4503E68F1D2
:1033E0001A16F040A22F232F342F4427585FF3CF13
:1033F000469537952795A795F0405395C9F77EF4E4
:103400001F16BA0B620B730B840BBAF09150A1F02C
:10341000FF0FBB1F661F771F881FC2F70EC0BA0FB2
:10342000621F731F841F48F4879577956795B7953A
:10343000F7959E3F08F0B3CF9395880F08F0992732
:10344000EE0F979587950895D9D008F481E00895F7
:103450000CD00FC107D140F0FED030F021F45F3F17
:1034600019F0F0C0511139C1F3C014D198F3992368
:10347000C9F35523B1F3951B550BBB27AA27621738
:103480007307840738F09F5F5F4F220F331F441F7D
:10349000AA1FA9F333D00E2E3AF0E0E830D09150B5
:1034A0005040E695001CCAF729D0FE2F27D0660FA2
:1034B000771F881FBB1F261737074807AB07B0E8E1
:1034C00009F0BB0B802DBF01FF2793585F4F2AF0F7
:1034D0009E3F510568F0B6C000C15F3FECF3983ED7
:1034E000DCF3869577956795B795F7959F5FC9F754
:1034F000880F911D9695879597F90895E1E0660FDD
:10350000771F881FBB1F621773078407BA0720F055
:10351000621B730B840BBA0BEE1F88F7E0950895BE
:1035200004D06894B111D9C00895BCD088F09F57D9
:1035300090F0B92F9927B751A0F0D1F0660F771FFF
:10354000881F991F1AF0BA95C9F712C0B13081F0DF
:10355000C3D0B1E00895C0C0672F782F8827B85F27
:1035600039F0B93FCCF3869577956795B395D9F740
:103570003EF490958095709561957F4F8F4F9F4F4A
:103580000895E89409C097FB3EF490958095709556
:1035900061957F4F8F4F9F4F9923A9F0F92F96E99F
:1035A000BB279395F695879577956795B795F11114
:1035B000F8CFFAF4BB0F11F460FF1BC06F5F7F4FB1
:1035C0008F4F9F4F16C0882311F096E911C07723C3
:1035D00021F09EE8872F762F05C0662371F096E8CC
:1035E000862F70E060E02AF09A95660F771F881F9B
:1035F000DAF7880F9695879597F90895990F00083F
:10360000550FAA0BE0E8FEEF16161706E807F907B4
:10361000C0F012161306E407F50798F0621B730B4F
:10362000840B950B39F40A2661F0232B242B252BD0
:1036300021F408950A2609F4A140A6958FEF811D73
:10364000811D089597F99F6780E870E060E0089514
:103650009FEF80EC089500240A94161617061806AA
:103660000906089500240A94121613061406050686
:103670000895092E0394000C11F4882352F0BB0F17
:1036800040F4BF2B11F460FF04C06F5F7F4F8F4F7A
:103690009F4F089557FD9058440F551F59F05F3FB5
:1036A00071F04795880F97FB991F61F09F3F79F064
:1036B00087950895121613061406551FF2CF4695E6
:1036C000F1DF08C0161617061806991FF1CF869568
:1036D0007105610508940895E894BB27662777274C
:1036E000CB0197F908958ADF08F48FEF08950BD086
:1036F000C0CFB1DF28F0B6DF18F0952309F0A2CFD4
:10370000A7CF1124EACFC6DFA0F3959FD1F3950F81
:1037100050E0551F629FF001729FBB27F00DB11D55
:10372000639FAA27F00DB11DAA1F649F6627B00DE5
:10373000A11D661F829F2227B00DA11D621F739FCE
:10374000B00DA11D621F839FA00D611D221F749FDC
:103750003327A00D611D231F849F600D211D822F23
:10376000762F6A2F11249F5750408AF0E1F088236A
:103770004AF0EE0FFF1FBB1F661F771F881F915077
:103780005040A9F79E3F510570F05CCFA6CF5F3F38
:10379000ECF3983EDCF3869577956795B795F795AA
:1037A000E7959F5FC1F7FE2B880F911D9695879532
:1037B00097F90895629FD001739FF001829FE00DF9
:1037C000F11D649FE00DF11D929FF00D839FF00DA0
:1037D000749FF00D659FF00D9927729FB00DE11D4C
:1037E000F91F639FB00DE11DF91FBD01CF01112429
:1037F0000895991B79E004C0991F961708F0961B4D
:10380000881F7A95C9F780950895AA1BBB1B51E1C3
:1038100007C0AA1FBB1FA617B70710F0A61BB70B40
:10382000881F991F5A95A9F780959095BC01CD01E5
:10383000089597FB092E07260AD077FD04D0E5DF0F
:1038400006D000201AF4709561957F4F0895F6F721
:10385000909581959F4F0895A1E21A2EAA1BBB1B3C
:10386000FD010DC0AA1FBB1FEE1FFF1FA217B3074C
:10387000E407F50720F0A21BB30BE40BF50B661F62
:10388000771F881F991F1A9469F760957095809526
:1038900090959B01AC01BD01CF01089597FB092EC6
:1038A00005260ED057FD04D0D7DF0AD0001C38F40F
:1038B00050954095309521953F4F4F4F5F4F08955C
:1038C000F6F790958095709561957F4F8F4F9F4F3C
:1038D0000895EE0FFF1F0590F491E02D0994F894E0
:0238E000FFCF18
:1038E20043757272656E743A20004D6F746F722068
:1038F20073746F7000566F6C7461676520002000EE
:10390200102700000000000081102F180000400066
:1039120014005400000000008A172F1820175117B6
:0439220031177A17C8
:00000001FF
