:100000000C9476010C949E010C949E010C949E011C
:100010000C949E010C949E010C949E010C949E01E4
:100020000C949E010C949E010C9458180C94DF18AB
:100030000C949E010C949E010C949E010C949E01C4
:100040000C949E010C9454120C949E010C949E01ED
:100050000C949E010C949E010C949E010C9412131E
:100060000C949E010C949E010C949E010C949E0194
:100070000C949E010C949E010C949E010C949E0184
:100080000C949E010C949E010C949E010C949E0174
:100090000C949E010C949E010C949E010C949E0164
:1000A0000C949E010C94540E0C949E0100000000D0
:1000B000240027002A002D00300000000000250049
:1000C00028002B002E003100000000002300260035
:1000D00029002C002F000404040404030405020278
:1000E00002020403020202020606060606060404D1
:1000F00002020204040802011040804010204080E7
:10010000408008020401804020100201108010206D
:1001100040400000000200080E0000030401000B34
:1001200000000000000000000000000000000000CF
:10013000070605040100080A0B0C0D090403090455
:100140002203410072006400750069006E006F00B8
:1001500020004C0065006F006E00610072006400BA
:100160006F001803410072006400750069006E00A2
:100170006F0020004C004C00430012010002000000
:1001800000404123368000010102000112010002FB
:10019000020000404123368000010102000100C13D
:1001A0008081C1080B000202020100090400000165
:1001B00002020000052400100105240101010424AD
:1001C000020605240600010705810310004009040A
:1001D0000100020A000000070502024000000705B6
:1001E000830240000005010902A1010901A1008567
:1001F00001050919012903150025019503750181E0
:100200000295017505810305010930093109381589
:1002100081257F750895038106C0C005010906A1E7
:10022000018502050719E029E715002501750195EB
:10023000088102950175088103950675081500254A
:10024000650507190029658100C009040200010342
:100250000000000921010100012265000705840357
:1002600040000100000000000000002A2B280000D0
:10027000000000000000000000000000000000007E
:100280000000002C9EB4A0A1A2A434A6A7A5AE365F
:100290002D3738271E1F20212223242526B333B6CD
:1002A0002EB7B89F8485868788898A8B8C8D8E8FA0
:1002B000909192939495969798999A9B9C9D2F31A3
:1002C00030A3AD350405060708090A0B0C0D0E0F07
:1002D000101112131415161718191A1B1C1DAFB183
:1002E000B0B50000FB029417BB1AC01B11241FBE3F
:1002F000CFEFDAE0DEBFCDBF11E0A0E0B1E0EEEE7F
:10030000FEE302C005900D92A434B107D9F712E0C4
:10031000A4E4B1E001C01D92AE3EB107E1F712E0E6
:10032000CCEED2E004C02297FE010E94711FC43EB1
:10033000D107C9F70E94CE150C94751F0C940000CC
:10034000EF92FF920F93DF93CF93CDB7DEB7609715
:100350000FB6F894DEBF0FBECDBFA82F002309F45F
:1003600061C07E010894E11CF11C88E0F701119244
:100370008A95E9F729833A834B835C836D837E8377
:10038000AF83988780E2801BE82FFF27E7FDF09579
:100390004D815E816F817885181684F01D861E86DA
:1003A0001F86188A882799278E1B9F0B04C0769575
:1003B0006795579547958A95D2F728C0202F332700
:1003C00027FD3095DB01CA01022E04C0B695A79522
:1003D000979587950A94D2F78D879E87AF87B88BBC
:1003E00004C0440F551F661F771FEA95D2F7898115
:1003F0009A81AB81BC8104C0B695A79597958795E6
:100400002A95D2F7482B592B6A2B7B2B49875A8781
:100410006B877C8729853A854B855C856D857E85D4
:10042000AF8598898A2F60960FB6F894DEBF0FBE0D
:10043000CDBFCF91DF910F91FF90EF900895EF9294
:10044000FF920F93DF93CF93CDB7DEB760970FB6D0
:10045000F894DEBF0FBECDBFA82F002309F461C002
:100460007E010894E11CF11C88E0F70111928A9545
:10047000E9F729833A834B835C836D837E83AF8363
:10048000988780E2801BE82FFF27E7FDF0954981E0
:100490005A816B817C81181684F019861A861B8616
:1004A0001C86882799278E1B9F0B04C0440F551F5D
:1004B000661F771F8A95D2F728C0202F332727FD84
:1004C0003095DB01CA01022E04C0880F991FAA1FB4
:1004D000BB1F0A94D2F789879A87AB87BC8704C071
:1004E0007695679557954795EA95D2F78D819E81C8
:1004F000AF81B88504C0880F991FAA1FBB1F2A951A
:10050000D2F7482B592B6A2B7B2B4D875E876F8741
:10051000788B29853A854B855C856D857E85AF8591
:1005200098898A2F60960FB6F894DEBF0FBECDBFB4
:10053000CF91DF910F91FF90EF9008950F931F934C
:10054000DF93CF93CDB7DEB72E970FB6F894DEBF0B
:100550000FBECDBF0D831E832F8338878D819E8173
:10056000AF81B885863829E7920726E3A2072BE4F6
:10057000B20751F1873829E7920726E3A2072BE457
:10058000B20770F4863C29E3920726E3A2072BE426
:10059000B20701F1865A9945A643BB4409F50EC03E
:1005A000863429EB920726E3A2072BE4B20779F001
:1005B0008652994DA643BB4499F403C088E090E06D
:1005C0000BC080E190E008C084E090E005C082E0CC
:1005D00090E002C081E090E09093860180938501D5
:1005E0002E960FB6F894DEBF0FBECDBFCF91DF9130
:1005F0001F910F910895CF92EF920F9384E491E0B1
:100600000E9410118DE491E067E046E024EF31E0B4
:100610000E94FA048FE591E062E04AE024E105E1FE
:1006200056E1E52E37E1C32E0E94D71084E791E012
:1006300064E070E00E94BF060F91EF90CF900895A4
:1006400089E061E00E946B1588E061E00E946B1513
:1006500008958CE061E00E94DE1483E061E00E9476
:10066000DE1489E061E00E94DE148DE061E00E940A
:10067000DE148BE061E00E94DE1488E061E00E94FD
:10068000DE1489E061E00E946B1588E061E00E9461
:100690006B1584E791E00E94F60E8FE591E060E132
:1006A00042E020E00E9421108EE190E0909348010A
:1006B000809347018FE090E090934A018093490135
:1006C00084E491E065E070E00E944D121092840194
:1006D0001092830110928601109285011092880178
:1006E0001092870108950F931F930FE511E0C80141
:1006F0000E941910C80160E040E00E94EA0FC801A2
:1007000060E071E00E94DE1660914B0170914C0137
:10071000C8014AE050E00E94CB161F910F91089546
:100720000F931F938DE491E065E00E94E9058C0131
:1007300065E070E080E090E00E948013C80169E30A
:1007400070E00E940B1FCB011F910F910895CF9372
:10075000DF93EC01888199818738910521F481EF3D
:100760009FEF9B838A83888199814E9721F48FE044
:1007700090E09B838A836881798184E491E00E9480
:100780006611888199812A813B81820F931F998309
:100790008883DF91CF9108950F931F93CF93DF93B9
:1007A000EC018B018130910571F489E061E00E94D8
:1007B0006B1588E060E00E946B158CE061E00E94A0
:1007C0006B1583E00FC089E060E00E946B1588E044
:1007D00061E00E946B15CE018095682F8DE00E942C
:1007E0006B158BE0B8010E943914DF91CF911F91F6
:1007F0000F9108951F93CF93DF93EC01162F89E09B
:1008000060E00E946B1588E060E00E946B1511307B
:1008100039F48CE061E00E946B158DE060E006C069
:100820008CE060E00E946B158DE061E00E946B152A
:1008300083E0BE010E9439148BE0BE010E9439148E
:10084000DF91CF911F9108950E94200384E690E0EC
:1008500061E00E94FA0368EE73E080E090E00E949D
:10086000801380E090E064E670E00E94CC0368EEC4
:1008700073E080E090E00E9480130E94200384E6F1
:1008800090E060E00E94FA0308958430910519F128
:100890008530910534F48130910599F00297E9F49F
:1008A00013C08830910519F04097B9F404C084E66C
:1008B00090E060E003C084E690E061E00E94FA030B
:1008C000089581E090E002C080E090E064E670E08E
:1008D0000E94CC0308950E9420030895CF92DF92D6
:1008E000EF92FF920F931F9387E491E00E94A7037A
:1008F0000E94900390934C0180934B01449734F4F1
:1009000081E090E090938801809387010E947303B7
:1009100084E791E065E771E00E94DF0D892B11F11A
:10092000C0907501D0907601E0907701F090780149
:100930000091790110917A0120917B0130917C0125
:1009400040917D0150917E0160917F017091800105
:1009500080918101909182010E949E0284E791E042
:100960000E94C4068091830190918401009719F040
:100970000197C9F515C08091850190918601009776
:1009800091F10E9445048091850190918601049720
:1009900031F181E090E090938401809383011FC046
:1009A0008091870190918801019739F40E94240475
:1009B000109288011092870112C080918501909158
:1009C0008601009781F00E944504809185019091F5
:1009D0008601049721F410928401109283011092F1
:1009E0008601109285011F910F91FF90EF90DF908B
:1009F000CF900895CF93DF93EC01862F90E0FC0118
:100A0000EC50FF4FE491EC83A42FB0E0FD01EC50DB
:100A1000FF4FE491ED838A529F4FFC01449150E0D7
:100A2000440F551FFA01E654FF4F859194919F831F
:100A30008E83AA52BF4FFD018491E82FF0E0EE0FA4
:100A4000FF1FE853FF4F859194919B878A87FA0196
:100A5000E455FF4F8591949199878887F1E0253F70
:100A60003F0714F024EF31E089E390E0AC01249FCC
:100A7000C001259F900D349F900D11244C969D87A9
:100A80008C87DF91CF910895CF93DF93EC01E885B8
:100A9000F98580819C81892B8083EE81FF81908103
:100AA0008C8180958923808384E090E00E94D91313
:100AB000EE81FF8180819C81892B80838AE090E098
:100AC0000E94D913EE81FF8190818C8180958923CA
:100AD0008083E885F98590818C8180958923808346
:100AE0000E945A13605B794B8F4F9F4F6E877F87B1
:100AF000888B998BEA85FB85208130E08D8190E0A1
:100B000028233923232BC9F00E945A132E853F85B1
:100B100048895989261737074807590770F0EACFDF
:100B20000E945A132E853F85488959892617370711
:100B30004807590710F480E019C0EA85FB85208139
:100B400030E08D8190E028233923232B49F30E9444
:100B50005A132C853D8540E050E0260F371F481F73
:100B6000591F2E873F87488B598B81E0DF91CF91AA
:100B70000895CF93DF93EC010E944405882361F42C
:100B800022C00E945A132E853F854889598926170D
:100B9000370748075907B8F0EA85FB85208130E020
:100BA0008D8190E028233923232B59F70E945A1373
:100BB0004C855D85455050402E853F85421B530B2B
:100BC000460F571F02C040E050E0CA01DF91CF91AD
:100BD00008958F929F92AF92BF92CF92DF92EF9241
:100BE000FF920F931F93DF93CF93CDB7DEB76C01C6
:100BF000162FADB6BEB6862F90E0880F991F2DB781
:100C00003EB7281B390B0FB6F8943EBF0FBE2DBF61
:100C1000EDB6FEB60894E11CF11CEDB7FEB71282EA
:100C2000118200E05DE1852E912C3CC0C6010E943E
:100C3000B905009729F41150F6018485958525C0E2
:100C4000002311F420E018C0202F08C0AA0FBB1FFA
:100C5000AE0DBF1DED93FC93215071F0A22FB0E0BB
:100C6000FD013197EE0FFF1FEE0DFF1D0190F0818A
:100C7000E02DE817F90750F3E22FF0E0EE0FFF1F29
:100C8000EE0DFF1D918380830F5F011758F4892FAC
:100C9000992786958695B401681B790B80E090E0D2
:100CA0000E948013011710F21E7FF701E10FF11D62
:100CB000808191810FB6F894BEBE0FBEADBECF91BC
:100CC000DF911F910F91FF90EF90DF90CF90BF9039
:100CD000AF909F908F900895DF92EF92FF920F93C5
:100CE0001F93CF93DF93EC01882777FD8095982F92
:100CF0000E94CD1D7B018C0120E030E040E45FE3E9
:100D00000E947D1E20E030E048E452E40E94321D43
:100D10000E949A1DC617D70714F4DD241CC0DD24D9
:100D2000C801B70120E030E040EA5FE30E947D1E89
:100D300020E030E048E452E40E94321D20E030E040
:100D400040E85FE30E94CA1C0E949A1D6C177D0751
:100D500014F0DD24D3948D2D90E0DF91CF911F917D
:100D60000F91FF90EF90DF9008956C597F4F0E9494
:100D70006C060895645670400E946C060895609356
:100D8000890110928B01089582E080938A0110926C
:100D900056020895AF92BF92CF92DF92EF92FF92E8
:100DA0000F931F93CF93DF936B01DB011A96CD91C5
:100DB000DC911B978A819B8168E273E20E94B506F1
:100DC000892B09F480C080915602843009F08CC0D0
:100DD0008C819D816AEC78E00E94BA06892B09F427
:100DE00083C08E819F8160E372E00E94B506892BEB
:100DF00009F47AC0F601118610868FEF9FEFAFEFEE
:100E0000BFEF84839583A683B78381E090E09183CD
:100E1000808354C08C819D8164E971E10E94BA068F
:100E2000892B09F450C02696EE24FF24870123E085
:100E3000A22EB12C8881998160E372E00E94B506F0
:100E4000892B09F440C08A819B8160E476E00E948E
:100E5000BA06892B69F0EE0CFF1C001F111F81E000
:100E600090E0A0E0B0E0E82AF92A0A2B1B2B0CC086
:100E70008A819B8160E372E00E94BA06892B19F196
:100E8000EE0CFF1C001F111F249691E4A916B1045B
:100E900029F0A2E0B0E0AA0EBB1ECCCF80E290E029
:100EA000F60191878087D6011496ED92FD920D93FD
:100EB0001C93179781E090E08D939C9321E030E0A4
:100EC00040E050E004C020E030E040E050E0B901F4
:100ED000CA01DF91CF911F910F91FF90EF90DF90AA
:100EE000CF90BF90AF90089580915602843458F30C
:100EF00091CFAF92BF92CF92DF92EF92FF920F937A
:100F00001F93CF93DF936B01809156028A3108F4CF
:100F100080C0DB011A96CD91DC911B978881998165
:100F2000845F914080F4FB01118610868FEF9FEF64
:100F3000AFEFBFEF84839583A683B78389E090E00A
:100F40009183808361C08A819B8160E679E00E9401
:100F5000B506892B09F45DC02696EE24FF2487018F
:100F600062E0A62EB12C30C022978881998122960A
:100F700068E572E00E94BA06892B79F1888199812F
:100F800060EB74E00E94B506892B69F0EE0CFF1C43
:100F9000001F111F81E090E0A0E0B0E0E82AF92AEC
:100FA0000A2B1B2B0CC08881998168E572E00E9496
:100FB000B506892B71F1EE0CFF1C001F111FA2E07A
:100FC000B0E0AA0EBB1E24968091560295012F5FB9
:100FD0003F4F90E0281739073CF2C50101979595DE
:100FE0008795F601918780870C971CF411861086EF
:100FF00010C0D6011496ED92FD920D931C93179795
:1010000082E090E08D939C9321E030E040E050E05E
:1010100004C020E030E040E050E0B901CA01DF91B7
:10102000CF911F910F91FF90EF90DF90CF90BF90E5
:10103000AF900895AF92BF92CF92DF92EF92FF925E
:101040000F931F93CF93DF936B01809156028A31E8
:1010500008F489C0DB011A96CD91DC911B97888139
:1010600099818052934080F4FB01118610868FEFA6
:101070009FEFAFEFBFEF84839583A683B78389E0AB
:1010800090E0918380836AC08A819B816CEA7DE0D5
:101090000E94B506892B09F466C08C819D816CEA9B
:1010A0007DE00E94B506892B09F45DC02896EE24E8
:1010B000FF248701A3E0AA2EB12C30C0229788819B
:1010C0009981229666EB73E00E94BA06892B79F12A
:1010D0008881998160E679E00E94B506892B69F0E4
:1010E000EE0CFF1C001F111F81E090E0A0E0B0E0BB
:1010F000E82AF92A0A2B1B2B0CC0888199816CEBFA
:1011000072E00E94B506892B71F1EE0CFF1C001FE6
:10111000111FA2E0B0E0AA0EBB1E249680915602D9
:1011200095012F5F3F4F90E0281739073CF2C5012A
:10113000019795958795F601918780870C971CF408
:101140001186108610C0D6011496ED92FD920D9373
:101150001C93179789E090E08D939C9321E030E0F9
:1011600040E050E004C020E030E040E050E0B90151
:10117000CA01DF91CF911F910F91FF90EF90DF9007
:10118000CF90BF90AF9008956F927F928F929F9271
:10119000AF92BF92CF92DF92EF92FF920F931F9385
:1011A000CF93DF934B0180915602823208F47AC0CC
:1011B000DB011A96CD91DC911B978A819B816EE5AC
:1011C00071E00E94B506892B09F46CC036E0A32EAD
:1011D000B12CAC0EBD1EEE24FF24870122E0C22EEE
:1011E000D12C37C0E5012297888199816EE977E09B
:1011F0000E94B506892B69F0EE0CFF1C001F111F21
:1012000081E090E0A0E0B0E0E82AF92A0A2B1B2B4D
:101210000DC0888199816EEE72E00E94B506892B1F
:1012200009F440C0EE0CFF1C001F111FD5018D9169
:101230009C916EE571E00E94BA06E4E0F0E0AE0E2B
:10124000BF1E892B11F463010FC022E030E0C20EF3
:10125000D31E36010894611C711C8091560290E0E7
:10126000681679060CF4BECFC6010197959587954F
:10127000D40119969C938E93189740972CF4199645
:101280001C921E9218970EC0F401E482F582068328
:1012900017838AE090E09183808321E030E040E092
:1012A00050E004C020E030E040E050E0B901CA0165
:1012B000DF91CF911F910F91FF90EF90DF90CF9032
:1012C000BF90AF909F908F907F906F9008956F9296
:1012D0007F928F929F92AF92BF92CF92DF92EF92C6
:1012E000FF920F931F93CF93DF93FB013A015901B4
:1012F0006801DA012D913C9184859585281739077D
:1013000024F071E0E72EF12C56C0C901880F991F17
:101310000284F385E02DE80FF91F80819181982EDA
:10132000892E20FD06C00CE91FEF51E0E52EF12CBF
:1013300004C004E610E0EE24FF24B8016C0D7D1D0E
:10134000892D982D0E946C06892B19F021E030E040
:1013500020C0E601CC0FDD1FB8016C0F7D1F892D69
:10136000982D0E946C06892B19F022E030E011C004
:10137000CC0DDD1D0C0F1D1F892D982DB8010E946D
:101380006C06892B21F4EE24EA94FE2C14C023E091
:1013900030E0F501808191810196918380838217ED
:1013A00093074CF011821082D3018D919C9111977B
:1013B00001968D939C93C701DF91CF911F910F915F
:1013C000FF90EF90DF90CF90BF90AF909F908F9065
:1013D0007F906F9008952F923F924F925F926F92FD
:1013E0007F928F929F92AF92BF92CF92DF92EF92B5
:1013F000FF920F931F93DF93CF9300D000D000D0C4
:10140000CDB7DEB71C015B01809156028D3008F428
:101410007EC081E090E09A8389831C821B82A3E0D6
:101420008A2E912C8C0E9D1EC1013E010894611CD8
:10143000711CA301940109E713E00E946709892B3D
:1014400009F065C0C101B501A30194010E946709BB
:10145000019709F05CC0C101B501A30194010E948C
:101460006709892B09F053C044245524CC24DD247A
:101470007601C4018D829E832FC0C101B501A301F5
:101480002D813E8109E713E00E9467094C01C101EB
:10149000B501A3012D813E810E94670921E08216DA
:1014A000910479F4892B99F5CC0CDD1CEE1CFF1C02
:1014B00081E090E0A0E0B0E0C82AD92AEA2AFB2A1D
:1014C00008C0892821F5019711F5CC0CDD1CEE1C14
:1014D000FF1C0894411C511C8091560290E0298108
:1014E0003A81281739074CF2D50119965C924E9231
:1014F0001897F501C482D582E682F78283E090E0F6
:101500009183808321E030E040E050E004C020E09F
:1015100030E040E050E0B901CA0126960FB6F894D9
:10152000DEBF0FBECDBFCF91DF911F910F91FF9016
:10153000EF90DF90CF90BF90AF909F908F907F9073
:101540006F905F904F903F902F9008952F923F9211
:101550004F925F926F927F928F929F92AF92BF92C3
:10156000CF92DF92EF92FF920F931F93DF93CF936F
:10157000CDB7DEB728970FB6F894DEBF0FBECDBF4C
:101580001C014B01DB011C968D919C911D97181637
:1015900019060CF0C4C081E090E09A8389831A9602
:1015A0000D911C911B97F801828193816AE67AE084
:1015B0000E94B506892B09F4B2C082E090E09A83BC
:1015C0008983D80114968D919C91159769E773E0F2
:1015D0000E94BA06892B09F4A2C083E090E09A83A6
:1015E00089831C821B8203E0A02EB12CAC0EBD1E91
:1015F000C101B4013E010894611C711CA301950155
:101600000CEB11E00E946709892B09F088C0C10129
:10161000B401A30195010E946709019709F07FC0F9
:10162000CC24DD24760144245524C501AD829E835B
:10163000C3016F82988756C0C101B4014F8158859C
:101640002D813E810CEB11E00E9467093C01B3E063
:101650004B16510461F4C101B4014F8158852D81AD
:101660003E810E9467096816790609F058C0C101D9
:10167000B4014F8158852D813E810CEB11E00E9411
:1016800067095C01E3E04E16510459F4C101B4014D
:101690004F8158852D813E810E946709A816B906A1
:1016A000F1F56114710489F4F1E0AF16B104B9F5F4
:1016B000CC0CDD1CEE1CFF1C81E090E0A0E0B0E053
:1016C000C82AD92AEA2AFB2A0AC091E069167104BD
:1016D00031F5AB2821F5CC0CDD1CEE1CFF1C089469
:1016E000411C511C29813A81D4011C968D919C91F9
:1016F0001D97281739070CF49FCF19965C924E92CC
:101700001897F401C482D582E682F78284E090E0E3
:101710009183808321E030E040E050E004C020E08D
:1017200030E040E050E0B901CA0128960FB6F894C5
:10173000DEBF0FBECDBFCF91DF911F910F91FF9004
:10174000EF90DF90CF90BF90AF909F908F907F9061
:101750006F905F904F903F902F9008956F927F927F
:101760008F929F92AF92BF92CF92DF92EF92FF92B1
:101770000F931F93CF93DF937B01FB01C285D3852A
:101780008A819B816EEA7DE00E94B506892B09F46F
:1017900074C08C819D8166ED76E00E94B506892B30
:1017A00009F46BC0269600E010E0DD24CC249924D7
:1017B00088247724662483E0A82EB12C888199811F
:1017C00066EF71E00E94B506892B09F456C08A8144
:1017D0009B816CED74E00E94BA06892B69F0980138
:1017E0004D2D5C2D692D782D872D962D01E00E94C1
:1017F0001F02022F016013C08A819B8160E971E0A2
:101800000E94BA06892BC9F198014D2D5C2D692DD6
:10181000782D872D962D01E00E941F02022F132F95
:10182000D42EC52E962E872E782E692E2496F1E67C
:10183000AF16B10429F082E090E0A80EB91EBECF29
:10184000C801F70104839583468357839801872D48
:10185000962D00E20E94A001C901F7012283938323
:1018600087E090E09183808380E390E09187808798
:1018700021E030E040E050E004C020E030E040E013
:1018800050E0B901CA01DF91CF911F910F91FF90F4
:10189000EF90DF90CF90BF90AF909F908F907F9010
:1018A0006F9008958F929F92AF92BF92CF92DF92E6
:1018B000EF92FF920F931F93CF93DF936B01809171
:1018C0005602823209F0B2C0DB011A96CD91DC914A
:1018D0001B978A819B8168E572E00E94B506892B7F
:1018E00009F4A4C08091560221E030E0281B3109A0
:1018F000220F331FC21BD30B8881998168E572E0E8
:101900000E94B506892B09F491C0F6011186108654
:101910008FEF9FEFAFEFBFEF84839583A683B783ED
:1019200088E090E09183808369C080915602813283
:1019300008F469C0D50114968D919C91159760EAC1
:101940007FE00E94BA06892B09F45DC0E501269666
:10195000EE24FF24870133E0832E912C8881998126
:1019600068E572E00E94B506892B09F44CC08A81B3
:101970009B8160E476E00E94BA06892B69F0EE0C48
:10198000FF1C001F111F81E090E0A0E0B0E0E82AFA
:10199000F92A0A2B1B2B0CC08A819B8166E272E01C
:1019A0000E94BA06892B79F1EE0CFF1C001F111F53
:1019B000A2E0B0E08A0E9B1E2496B3E28B1691043F
:1019C00069F6E6E4F0E0AE0EBF1ED5018D919C9164
:1019D00068E572E00E94B506892BA9F080E190E0ED
:1019E000F60191878087D6011496ED92FD920D93B2
:1019F0001C93179788E090E08D939C9321E030E052
:101A000040E050E004C020E030E040E050E0B901A8
:101A1000CA01DF91CF911F910F91FF90EF90DF905E
:101A2000CF90BF90AF909F908F900895F601A284C1
:101A3000B384D50112968D919C91139760E47FE158
:101A40000E94B506892B09F070CFDDCF2F923F920F
:101A50004F925F926F927F928F929F92AF92BF92BE
:101A6000CF92DF92EF92FF920F931F93DF93CF936A
:101A700000D0CDB7DEB71B01FB018485958586308C
:101A800091052CF420E030E040E050E081C0F5EC1E
:101A9000AF2EFDE9BF2EFCE1CF2EF1E8DF2EE6E010
:101AA0004E2E512C9C01220F331F3A83298359C09B
:101AB000F101A285B385F2013497EA0FFB1FE080A4
:101AC000F180A40DB51D6D917C9180E090E00E94A5
:101AD000CB1D3B014C0100E010E0C801B7010E94A2
:101AE000CB1D7B018C012DEC3CEC4CE45FE30E94B0
:101AF0007D1E9B01AC01C401B3010E942E1D8823F1
:101B00001CF400E010E018C0C401B3012DEC3CEC63
:101B10004CE45FE30E947D1E9B01AC01C801B7014C
:101B20000E942E1D082F112707FD10950027110F69
:101B3000001F11270F5F1F4FC601B50123E931E0D8
:101B400040E051E00E94E01E5801CC24B7FCC09454
:101B5000DC2CA626B726C826D92622E030E0420E85
:101B6000531E89819A814816590609F0A1CFF101C7
:101B7000A482B582C682D78280E290E09187808776
:101B80008FEF9FEF9183808321E030E040E050E0D1
:101B9000B901CA010F900F90CF91DF911F910F9162
:101BA000FF90EF90DF90CF90BF90AF909F908F907D
:101BB0007F906F905F904F903F902F9008950F937C
:101BC0001F93CF93DF938C01EB018EE891E09B870D
:101BD0008A87809156028C871D8680918A01853084
:101BE00009F057C0C8010E94CA0661157105810538
:101BF000910509F051C0C801BE010E947907611525
:101C000071058105910509F047C0C801BE010E9418
:101C10001A086115710581059105F1F5C801BE012C
:101C20000E94C4086115710581059105A9F5C801D7
:101C3000BE010E94EB09611571058105910561F5F1
:101C4000C801BE010E94A60A6115710581059105B2
:101C500019F5C801BE010E94AE0B61157105810521
:101C60009105D1F4C801BE010E94520C61157105A5
:101C70008105910589F4C801BE010E94260D6115F8
:101C800071058105910541F482E080938A011092EB
:101C9000560220E030E002C021E030E0C901DF91CF
:101CA000CF911F910F9108951F920F920FB60F922F
:101CB00011242F933F934F935F936F937F938F9351
:101CC0009F93AF93BF93EF93FF93809189010E94FD
:101CD0009E15482F80918C0190918D0101969093D3
:101CE0008D0180938C0180915602843618F085E036
:101CF00080938A0180918A018330D1F0843020F46E
:101D0000823009F059C006C0843071F1853009F085
:101D100053C04CC0442309F04FC080918C01909176
:101D20008D018436910508F443C0109256021EC0FE
:101D3000413009F041C080915602E82FF0E0209137
:101D40008C0130918D01EE0FFF1FE757FE4F368358
:101D500025838F5F8093560210928D0110928C0123
:101D600084E080938A0128C04423B9F4809156020C
:101D7000E82FF0E020918C0130918D01EE0FFF1FD4
:101D8000E757FE4F368325838F5F8093560210926C
:101D90008D0110928C0183E0E4CF80918C019091B1
:101DA0008D018536910540F085E0DBCF442321F499
:101DB00010928D0110928C0180918B01882329F063
:101DC000442311F42D9A01C02D98FF91EF91BF91FA
:101DD000AF919F918F917F916F915F914F913F91C3
:101DE0002F910F900FBE0F901F901895F89410929E
:101DF000C00081E08093C1001092C2001092C30025
:101E00001092C400EFEBF0E083E0808380E28093E7
:101E1000D1001082EEEBF0E0118210820190F0818F
:101E2000E02D84E080937200789482E080938A01B0
:101E3000109256028091890160E00E94DE1408959C
:101E40000F931F938C01FC01868160E00E946B154B
:101E500081E090E00E94D913F801868161E00E9440
:101E60006B1581E090E00E94D913F801868160E053
:101E70000E946B1584E690E00E94D9131F910F9188
:101E80000895CF92DF92EF92FF920F931F93CF931B
:101E9000DF93D82EC92E282F392FC9018C01C0E01D
:101EA000D0E0E62EFF24F801878161E00E94DE1475
:101EB000B7010C2E02C0759567950A94E2F7617020
:101EC000F80187810E946B1521960F5F1F4FC83064
:101ED000D10549F78D2D9C2D0E94200FDF91CF91C8
:101EE0001F910F91FF90EF90DF90CF900895CF92C8
:101EF000DF92EF92FF920F931F93CF93DF93D82E31
:101F0000C92E282F392FC9018C01C0E0D0E0E62E60
:101F1000FF24F801878161E00E94DE14B7010C2ED6
:101F200002C0759567950A94E2F76170F8018781A0
:101F30000E946B1521960F5F1F4FC430D10549F7E2
:101F40008D2D9C2D0E94200FDF91CF911F910F911D
:101F5000FF90EF90DF90CF9008951F93CF93DF9382
:101F6000EC01162F8C81642F0E946B158D818F3FA1
:101F700019F060E00E946B158F8584FF05C0CE01CB
:101F8000612F0E94410F0EC0612F70E084E07595B3
:101F900067958A95E1F7CE010E94770FCE01612FF8
:101FA0000E94770FDF91CF911F91089541E00E9429
:101FB000AD0F81E090E0089540E00E94AD0F0895DC
:101FC000FC016089862F8460808B6C60CF010E9449
:101FD000DC0F0895DF93CF93CDB7DEB728970FB608
:101FE000F894DEBF0FBECDBF9C01FE013196ACE17F
:101FF000B1E088E00D9001928150E1F7F901838909
:10200000481710F0482F4150E42FF0E0EE0FFF1F6B
:10201000EC0FFD1F8181680F6068C9010E94DC0F11
:1020200028960FB6F894DEBF0FBECDBFCF91DF91DB
:10203000089561E00E94DC0F80ED97E00E94D913C3
:102040000895CF93DF93EC01423018F08F858860BC
:102050008F874B8B1C8A222329F0413019F48F85FE
:1020600084608F8780E593EC0E94D9138C8160E0B7
:102070000E946B158E8160E00E946B158D818F3FF1
:1020800019F060E00E946B156F8564FD1DC0CE01E4
:1020900063E00E94770F84E991E10E94D913CE0199
:1020A00063E00E94770F84E991E10E94D913CE0189
:1020B00063E00E94770F86E990E00E94D913CE0179
:1020C00062E00E94770F16C06062CE010E94DC0FB2
:1020D00084E991E10E94D9136F856062CE010E946C
:1020E000DC0F86E990E00E94D9136F856062CE0113
:1020F0000E94DC0F6F856062CE010E94DC0F84E0DD
:10210000888BCE010E94E00FCE010E94191082E060
:10211000898BCE0166E00E94DC0FDF91CF9108959C
:102120006F927F928F92AF92CF92EF920F931F9305
:10213000DF93CF93CDB7DEB73C01162F842FF30189
:10214000448325830683E782C086A18682869D8597
:1021500093879E8594879F8595879889968761E068
:102160000E94DE14F30185818F3F19F061E00E9427
:10217000DE14F301868161E00E94DE14112319F060
:10218000F301178603C080E1F3018787C30160E193
:1021900041E020E00E942110CF91DF911F910F912B
:1021A000EF90CF90AF908F907F906F9008958F9227
:1021B000AF92CF92EF920F931F93CF93DF93DC01F7
:1021C000362F542F722F102FAE2C8C2C13961C925E
:1021D0001E92129788E191E011969C938E9300D005
:1021E00000D0EDB7FEB73196CDB7DEB719821182B8
:1021F00012821382CD0161E0432F2FEF052FE72ECE
:10220000C12E0E9490100F900F900F900F90DF91B1
:10221000CF911F910F91EF90CF90AF908F90089535
:10222000FC01809157028C3090F480838F5F809303
:102230005702815090E0FC01EE0FFF1FE80FF91FDD
:10224000E85AFD4F88EB9BE09283818308958FEFDE
:1022500080830895FC0120812C30B8F58181992775
:1022600087FD909548E850E0481B590B440F551FD7
:10227000440F551F6417750784F08281992787FDE5
:10228000909548E552E0481B590B440F551F440FE9
:10229000551F641775070CF4AB0142505040CA013A
:1022A000AA2797FDA095BA2F880F991FAA1FBB1FB9
:1022B0004FB7F89430E0F901EE0FFF1FE20FF31F64
:1022C000E85AFD4F928381834FBF0895AF92BF922A
:1022D000CF92DF92EF92FF920F931F93CF93DF93F2
:1022E000EC019B0182E0603278070CF048C077FF78
:1022F00003C020E030E005C0653B710514F024EB1D
:1023000030E000D000D0B901882777FD8095982F64
:102310002981332727FD3095E8E8AE2EB12CA21A8B
:10232000B30AAA0CBB1CAA0CBB1CCC24B7FCC094DF
:10233000DC2CEA81FF27E7FDF09528E532E02E1B33
:102340003F0B220F331F220F331F442737FD4095C9
:10235000542FEDB7FEB7218332834383548320E0AB
:1023600030E040E050E004EBE02EF12C012D112D87
:102370000E94281A9B010F900F900F900F90CE0192
:10238000B9010E942A11DF91CF911F910F91FF9007
:10239000EF90DF90CF90BF90AF900895CF92DF92F3
:1023A000EF92FF921F93CF93DF93EC01162F7A01E8
:1023B000690188818C3008F064C0862F61E00E943A
:1023C000DE14888190E0FC01EE0FFF1FE80FF91F7B
:1023D000E85AFD4F1F738081807C812B808380E2CF
:1023E00092E08E199F0964E070E00E941F1F6983CC
:1023F00080E699E08C199D0964E070E00E941F1F3F
:102400006A83A8818A2F6CE00E94FF1E682F70E00B
:10241000AB01440F551F460F571F440F551F440F64
:10242000551F20E030E0C901840F951FFC01EE0F1D
:10243000FF1FE80FF91FE85AFD4F808186FD15C088
:102440002F5F3F4F2C30310571F724C01092800070
:1024500082E0809381001092850010928400B19AEE
:1024600080916F00826080936F008A2F90E0FC0162
:10247000EE0FFF1FE80FF91FE85AFD4F80818064BF
:1024800080838881DF91CF911F91FF90EF90DF9043
:10249000CF900895672BD1F2E8CF40E252E020E6DA
:1024A00039E00E94CE1108951F920F920FB60F923D
:1024B00011242F933F934F935F936F937F938F9349
:1024C0009F93AF93BF93EF93FF9380917C0287FF1D
:1024D00005C010928500109284002BC020917C02D0
:1024E000332727FD30958091570290E02817390750
:1024F00004F580917C02992787FD9095FC01EE0FF1
:10250000FF1FE80FF91FE85AFD4F808186FF11C0B9
:1025100080917C02992787FD9095FC01EE0FFF1FAB
:10252000E80FF91FE85AFD4F80818F7360E00E9429
:102530006B1580917C028F5F80937C0220917C02DE
:10254000332727FD30958091570290E028173907EF
:102550000CF04EC080917C028C300CF049C0209170
:1025600084003091850080917C02992787FD9095A9
:10257000FC01EE0FFF1FE80FF91FE85AFD4F8181A4
:102580009281280F391F3093890020938800809111
:102590007C02992787FD9095FC01EE0FFF1FE80F45
:1025A000F91FE85AFD4F808186FF2BC080917C0285
:1025B000992787FD9095FC01EE0FFF1FE80FF91F8B
:1025C000E85AFD4F80818F7361E00E946B1519C03E
:1025D00080E49CE905C08091840090918500049678
:1025E00090938900809388008FEF80937C0209C0CC
:1025F0008091840090918500049680549C4940F31A
:10260000EACFFF91EF91BF91AF919F918F917F9111
:102610006F915F914F913F912F910F900FBE0F904F
:102620001F9018951F920F920FB60F9211242F939F
:102630003F938F939F93AF93BF938091810290912B
:102640008202A0918302B0918402309185020196AA
:10265000A11DB11D232F2D5F2D3720F02D57019681
:10266000A11DB11D20938502809381029093820267
:10267000A0938302B093840280917D0290917E02A8
:10268000A0917F02B09180020196A11DB11D80939F
:102690007D0290937E02A0937F02B0938002BF914F
:1026A000AF919F918F913F912F910F900FBE0F90FF
:1026B0001F9018959FB7F89420917D0230917E026B
:1026C00040917F025091800286B5A89B06C08F3F43
:1026D00021F02F5F3F4F4F4F5F4F9FBF542F432F2E
:1026E000322F2227280F311D411D511D82E0220F5C
:1026F000331F441F551F8A95D1F7B901CA010895A8
:102700009B01AC017FB7F89480917D0290917E028D
:10271000A0917F02B091800266B5A89B05C06F3F73
:1027200019F00196A11DB11D7FBFBA2FA92F982FB7
:102730008827860F911DA11DB11D62E0880F991F8A
:10274000AA1FBB1F6A95D1F7BC012DC0FFB7F89433
:1027500080917D0290917E02A0917F02B0918002D3
:10276000E6B5A89B05C0EF3F19F00196A11DB11D6C
:10277000FFBFBA2FA92F982F88278E0F911DA11D5B
:10278000B11DE2E0880F991FAA1FBB1FEA95D1F780
:10279000861B970B885E9340C8F221503040404022
:1027A000504068517C4F211531054105510571F6A6
:1027B0000895019739F0880F991F880F991F029784
:1027C0000197F1F70895789484B5826084BD84B54B
:1027D000816084BD85B5826085BD85B5816085BD1C
:1027E000EEE6F0E0808181608083E1E8F0E0108235
:1027F000808182608083808181608083E0E8F0E076
:10280000808181608083E1E9F0E080818260808363
:10281000808181608083E0E9F0E080818160808355
:10282000E1ECF0E08081846080838081826080833D
:10283000808181608083E3ECF0E08081816080832F
:10284000E0ECF0E0808182608083E2ECF0E0808167
:1028500081608083EAE7F0E080818460808380810A
:1028600082608083808181608083808180688083B2
:1028700008951F93CF93DF93182FEB0161E00E941F
:10288000DE14209709F48FC0CF3FD10509F48EC024
:10289000E12FF0E0EE5EFE4F8491883009F440C0F5
:1028A000893070F4823019F1833020F4813009F0DE
:1028B00077C018C0833001F1843009F071C026C0A0
:1028C0008B3009F44BC08C3030F4893099F18A3068
:1028D00009F066C039C08C3009F44DC08E3009F063
:1028E0005FC051C084B5806884BDC7BD63C084B576
:1028F000806284BDC8BD5EC0809180008068809386
:102900008000D0938900C093880054C080918000DB
:10291000806280938000D0938B00C0938A004AC06D
:1029200080919000806880939000D0939900C0932C
:10293000980040C080919000806280939000D09376
:102940009B00C0939A0036C080919000886080936D
:102950009000D0939D00C0939C002CC08091C0003B
:1029600080688093C0008091C0008F7B8093C000FE
:10297000C093CF001FC08091C00080628093C000D0
:10298000C093D00017C08091C20088608093C200BD
:102990008091C2008B7F8093C200C093D2000AC096
:1029A000C038D1051CF4812F60E002C0812F61E0A6
:1029B0000E946B15DF91CF911F910895CF93DF9304
:1029C000482F50E0CA018C509F4FFC0134914A526D
:1029D0005F4FFA018491882369F190E0880F991F75
:1029E000FC01E455FF4FA591B491FC01E654FF4F63
:1029F000C591D491662351F42FB7F8948C91932FFD
:102A0000909589238C93888189230BC0623061F46F
:102A10002FB7F8948C91932F909589238C9388816C
:102A2000832B88832FBF06C09FB7F8948C91832B8C
:102A30008C939FBFDF91CF910895883071F18930D9
:102A400068F4823031F1833020F4813009F042C0E3
:102A50001DC0833089F08430E9F512C08B3059F104
:102A60008C3028F48930E9F08A30A1F51EC08C3012
:102A700031F18E3079F529C0809180008F7703C0C5
:102A8000809180008F7D80938000089584B58F773A
:102A900002C084B58F7D84BD0895809190008F77AA
:102AA00007C0809190008F7D03C080919000877F48
:102AB0008093900008958091C0008F7703C080912B
:102AC000C0008F7D8093C00008958091C200877FF1
:102AD0008093C2000895FF920F931F93F62E482F04
:102AE00050E0CA018E5E9E4FFC012491CA018C50B9
:102AF0009F4FFC0114914A525F4FFA010491002349
:102B0000C9F0222319F0822F0E941D15E02FF0E05A
:102B1000EE0FFF1FE654FF4FA591B4919FB7F894B5
:102B2000FF2021F48C911095812302C08C91812B80
:102B30008C939FBF1F910F91FF9008950F931F9348
:102B4000482F50E0CA018E5E9E4FFC012491CA01BD
:102B50008C509F4FFC0104914A525F4FFA0114912F
:102B6000112319F420E030E015C0222319F0822F40
:102B70000E941D15812F90E0880F991F88539F4F49
:102B8000FC01A591B4918C9120E030E0802311F0FC
:102B900021E030E0C9011F910F910895CF93DF9399
:102BA0000E94E3138EE892E00E9495170E94290389
:102BB000C0E0D0E00E946E042097E1F30E94000084
:102BC000F9CFCF92DF92EF92FF920F931F93CF93A3
:102BD000DF937C016B018A01C0E0D0E00FC0D60119
:102BE0006D916D01D701ED91FC910190F081E02D87
:102BF000C7010995C80FD91F0150104001151105D3
:102C000071F7CE01DF91CF911F910F91FF90EF905F
:102C1000DF90CF900895CF93DF93EC01611571059C
:102C200019F420E030E00FC0DB010D900020E9F73F
:102C30001197A61BB70BE881F9810280F381E02D83
:102C4000AD0109959C01C901DF91CF9108954F9283
:102C50005F927F928F929F92AF92BF92CF92DF92BC
:102C6000EF92FF920F931F93DF93CF93CDB7DEB711
:102C7000A1970FB6F894DEBF0FBECDBF2C01742E06
:102C8000CB01223008F42AE019A231E2C32ED12C64
:102C9000CC0EDD1E822E9924AA24BB24672D752F0D
:102CA000A50194010E94321F79018A01C801B70170
:102CB000A50194010E94E01E472D461B0894C108FF
:102CC000D1084A3014F4405D01C0495CF6014083EC
:102CD000E114F1040105110521F07E2C5F2DC801DE
:102CE000DDCFC201B6010E940B16A1960FB6F89473
:102CF000DEBF0FBECDBFCF91DF911F910F91FF902F
:102D0000EF90DF90CF90BF90AF909F908F907F908B
:102D10005F904F900895CF92DF92EF92FF920F93C2
:102D20001F93CF93DF93EC016A017B0121153105DD
:102D300041F4E881F9810190F081E02D642F09953B
:102D40001FC02A303105D1F477FF17C0E881F9811F
:102D50000190F081E02D6DE209958C014427552703
:102D6000BA014C195D096E097F09CE012AE00E9463
:102D700027169801280F391F04C02AE00E94271641
:102D80009C01C901DF91CF911F910F91FF90EF90AE
:102D9000DF90CF900895EF92FF920F931F937B01E6
:102DA0009A010027F7FC0095102FB801A7010E9497
:102DB0008B161F910F91FF90EF9008950E940B16B4
:102DC0000895282F809188028823C1F057FF1AC0E8
:102DD00015C02898909387028091F1008193E217A3
:102DE000F307B9F74115510539F08091F2008823B6
:102DF00019F48BE68093E800AFBF02C04FEF5FEF9E
:102E0000CA010895AFB7F89427702093E900809124
:102E1000F200282F30E0241735070CF4A901FB013C
:102E20009B01240F311D94E6DACFDF93CF930F92ED
:102E3000CDB7DEB7BE016F5F7F4F41E050E00E942B
:102E4000E116019719F02FEF3FEF03C08981282F7A
:102E500030E0C9010F90CF91DF910895FF920F9359
:102E60001F93F82E142F052F40918B0250918C0246
:102E7000212F302FC901DC01FB016EEF29C0F7FEC5
:102E800002C0949101C090812091890230918A0200
:102E900024173507ACF48091E8008570E1F3809148
:102EA000E80082FF03C02FEF3FEF17C09093F100BF
:102EB000C90101968F739070892B11F46093E8001B
:102EC0002F5F3F4F30938A022093890211973196EA
:102ED0001097A9F6812F902F9C01C9011F910F9186
:102EE000FF9008959C018091E80082FFFCCFF901DA
:102EF000260F311D03C08091F1008193E217F30783
:102F0000D1F7289884E6809387028BEF8093E800BE
:102F1000CB0108958093E9008091F200882319F095
:102F20008AE38093E800089508951092880281E072
:102F30008093D70080EA8093D80082E189BD09B4EC
:102F400000FEFDCF61E070E080E090E00E94801321
:102F500080E98093D8008CE08093E2001092E0003A
:102F6000559A209A08955F926F927F928F929F92C6
:102F7000AF92BF92CF92DF92EF92FF920F931F9387
:102F8000CF93DF93E82E842E752E809188028823BC
:102F900071F18B01242F352FC901EC017AEFF72E47
:102FA00067E0962E9E2050E4552E8E2D90E040E254
:102FB000A42EB12CA822B9223AE3632E20E4C22E1B
:102FC000D12CC822D92258C09FB7F8949092E9001A
:102FD0008091E80085FD02C020E004C08091F200ED
:102FE000252D281B9FBF222361F4FA9419F42FEF9B
:102FF0003FEF4DC061E070E080E090E00E94801300
:103000003BC0822F90E0C817D9070CF42C2FC21BAD
:10301000D1094FB7F8949092E900A114B10421F4BA
:1030200006C01092F10021502223D9F719C0E7FC05
:1030300003C0F801922F10C0C801322F06C0FC0156
:103040000196E491E093F10031503323C1F706C0BB
:1030500081918093F10091509923D1F7020F111DB6
:103060008091E80085FF05C0209729F4C114D104A0
:1030700011F06092E8004FBF209709F0A5CF5D984E
:1030800084E680938602282D372DC9019C01C90151
:10309000DF91CF911F910F91FF90EF90DF90CF9034
:1030A000BF90AF909F908F907F906F905F900895AA
:1030B0001F920F920FB60F9211242F933F934F93AD
:1030C0005F936F937F938F939F93AF93BF93EF9390
:1030D000FF938091E1001092E100982F83FF0FC0D1
:1030E0001092E90081E08093EB001092EC0082E303
:1030F0008093ED001092880288E08093F00092FFA8
:1031000034C083E08093E9008091F200882319F0B5
:103110008AE38093E8008FB7F89492E09093E900F7
:103120009091F2008FBF992321F083ED92E00E94ED
:10313000FE1A80918602882351F080918602815088
:103140008093860280918602882309F45D9A80919B
:103150008702882351F080918702815080938702F3
:1031600080918702882309F4289AFF91EF91BF91FB
:10317000AF919F918F917F916F915F914F913F910F
:103180002F910F900FBE0F901F9018950F931F93C4
:10319000DF93CF930F92CDB7DEB719828E010F5F09
:1031A0001F4FC8010E94241BC8010E94BD1C8981B9
:1031B00090E00F90CF91DF911F910F9108951F9292
:1031C0000F920FB60F921124EF92FF921F932F933D
:1031D0003F934F935F936F937F938F939F93AF939F
:1031E000BF93EF93FF93DF93CF93CDB7DEB7619794
:1031F000DEBFCDBF1092E9008091E80083FF0FC1D0
:10320000FE0131969E01275F3F4F03C08091F10080
:103210008193E217F307D1F7289884E68093870219
:1032200082EF8093E800998197FF05C08091E800C4
:1032300080FFFCCF03C08EEF8093E800292F30E0A1
:10324000C90180769070892B09F0C2C08A818823D9
:1032500029F41092F1001092F100D6C0813009F4E7
:10326000D3C0833009F4D0C0853049F48091E800A0
:1032700080FFFCCF8B8180688093E300C5C08630DF
:1032800009F07CC01C81EF80F8841230C1F51092E7
:10329000E90010928A021092890210928C02109218
:1032A0008B020E94C61899E0FE013996DF01292F92
:1032B0001D922A95E9F799871A8791E09E8790E8F1
:1032C000988B9AEF998B2091890230918A02275F1F
:1032D0003F4F3C872B878D871092E90010928A021E
:1032E00010928902F0928C02E0928B0280E0BF0182
:1032F00049E050E00E942E170E94C61885C0109227
:10330000E90010928A0210928902F0928C02E092F7
:103310008B02123241F482E290E00E94B51C892BAC
:1033200009F476C071C0113079F488E0E816F10430
:1033300019F481E080938D0280918D02882309F039
:103340006BC0EAE7F1E013C0133009F061C08B8174
:10335000882319F4ECE3F1E00AC0823019F4E0E4C8
:10336000F1E005C0813009F053C0E2E6F1E044919C
:1033700080E8BF0150E00E942E1746C0873009F454
:1033800047C0883021F481E08093F1003DC089304E
:10339000D9F523703070232BD9F5EFE9F1E091E0F6
:1033A00031E026E39093E9003093EB008491809321
:1033B000EC002093ED009F5F3196953099F78EE7F2
:1033C0008093EA001092EA008B81809388021CC0EF
:1033D0008F8198851092E90010928A0210928902DA
:1033E00090938C0280938B028D81882329F4CE01E7
:1033F00001960E94301B06C0823051F4CE01019626
:103400000E94861B882321F08EEF8093E80007C07E
:1034100081E28093EB0003C0ECE8F1E0A8CF619675
:10342000DEBFCDBFCF91DF91FF91EF91BF91AF9103
:103430009F918F917F916F915F914F913F912F91CC
:103440001F91FF90EF900F900FBE0F901F90189557
:103450002F923F924F925F926F927F928F929F92A4
:10346000AF92BF92CF92DF92EF92FF920F931F9392
:10347000DF93CF93CDB7DEB73B014C0119012A0191
:103480006D897E898F89988D6A197B098C099D09C0
:10349000621A730A840A950AA40193010E94E01E2D
:1034A000E218F30804091509A80197010E94541FA6
:1034B0002A0D3B1D4C1D5D1DB901CA01CF91DF9145
:1034C0001F910F91FF90EF90DF90CF90BF90AF9042
:1034D0009F908F907F906F905F904F903F902F9034
:1034E00008952091CF023091D0028091D102909125
:1034F000D202281B390B2F733070C9010895209117
:10350000CF023091D0028091D1029091D20228173F
:10351000390719F42FEF3FEF09C0E091D102F09184
:10352000D202E157FD4F8081282F30E0C901089574
:103530002091CF023091D0028091D1029091D2029D
:103540002817390719F42FEF3FEF13C0E091D1028C
:10355000F091D202E157FD4F20818091D1029091EC
:10356000D20201968F7390709093D2028093D10211
:1035700030E0C90108951092D6021092D50288EE6B
:1035800093E0A0E0B0E08093D7029093D802A0939C
:10359000D902B093DA0288E291E09093D40280934A
:1035A000D30208950F931F93DF93CF930F92CDB75C
:1035B000DEB78C01698380911101882369F083E073
:1035C000BE016F5F7F4F41E050E00E94B3171816B5
:1035D000190614F49C0107C081E090E0F801938380
:1035E000828320E030E0C9010F90CF91DF911F91DD
:1035F0000F91089583E00E948A170895CF93DF9377
:1036000012C082E00E9415172FEF8F3F9207C9F07A
:10361000E091CF02F091D002E157FD4F8083D0932B
:10362000D002C093CF02C091CF02D091D002219698
:10363000CF73D0708091D1029091D202C817D90770
:1036400001F7DF91CF910895FC0180818E5F808327
:1036500080E863EA71E042E450E00E942E1708958A
:10366000FC0181819081913A59F4813209F04CC07A
:1036700080E06AE071E047E050E00E942E1742C00F
:10368000913209F041C0803239F48AE091E067E07C
:1036900070E00E94721736C0823209F035C0828114
:1036A0008093110180910A0190910B01A0910C016E
:1036B000B0910D01805B9440A040B04019F580911D
:1036C000110180FD12C087E797E79093010880936E
:1036D00000082BE088E190E00FB6F894A89580935D
:1036E00060000FBE209360000DC088E10FB6F89413
:1036F00080936000109260000FBEA89510920108A0
:103700001092000881E0089580E00895FC01918105
:103710008081813A31F4913089F080E0933089F4EE
:103720000DC0813269F49B3021F4828180931201B3
:1037300005C09A3029F482818093130181E00895B5
:1037400080E00895EF92FF920F931F938C01E62E75
:10375000DC01ED91FC910480F581E02D0995F82EB6
:10376000D801ED91FC910680F781E02DC8016E2D06
:1037700009958F2D90E01F910F91FF90EF90089584
:103780001092E1021092E5021092E4028AE391E0C5
:103790009093E3028093E2020895EF92FF920F93D9
:1037A0001F93DF93CF930F92CDB7DEB789838B0141
:1037B0007A0184E0BE016F5F7F4F41E050E00E94DC
:1037C000B31784E4B801A7010E94B3170F90CF91FB
:1037D000DF911F910F91FF90EF90089582E048E0F4
:1037E00050E00E94CD1B0895FC01168217821086BE
:1037F00011861286138614823496BF010E94EE1B36
:103800000895DC01683810F0685829C0E62FF0E010
:1038100067FF13C0E058F04081E090E002C0880FDD
:10382000991FEA95E2F7809514962C911497282316
:1038300014962C93149760E012C0ED59FD4F6491DB
:10384000662319F420E030E01DC067FF08C014961D
:103850008C9114978D7F14968C9314976F77FD013C
:1038600090E0662321F08681861709F416829F5F17
:1038700031969630B1F7CD011496BD010E94EE1B32
:1038800021E030E0C9010895CF93DF93DC0168386F
:1038900010F0685825C0E62FF0E067FF12C0E0582E
:1038A000F04081E090E002C0880F991FEA95E2F7AE
:1038B00014962C911497282B14962C93149760E04F
:1038C0000FC0ED59FD4F64916623D9F167FF08C021
:1038D00014968C911497826014968C9314976F773A
:1038E00016968C9116978617A9F117968C911797B3
:1038F000861781F118968C911897861759F11996A9
:103900008C911997861731F11A968C911A97861710
:1039100009F11B968C911B978617E1F0ED01E0E011
:10392000F0E09E2F8E81882321F4EA0FFB1F66832F
:1039300006C09F5F31962196E630F10591F79630EB
:1039400049F481E090E013969C938E93129720E0C7
:1039500030E007C0CD011496BD010E94EE1B21E0AE
:1039600030E0C901DF91CF91089580E865EE71E004
:1039700045E650E00E942E170895FC0180818F5F7C
:10398000808380E86AE472E049E150E00E942E17EB
:1039900008955058BB27AA270ED075C166D130F0C4
:1039A0006BD120F031F49F3F11F41EF45BC10EF493
:1039B000E095E7FB51C1E92F77D180F3BA17620791
:1039C00073078407950718F071F49EF58FC10EF404
:1039D000E0950B2EBA2FA02D0B01B90190010C011F
:1039E000CA01A0011124FF27591B99F0593F50F437
:1039F000503E68F11A16F040A22F232F342F44278F
:103A0000585FF3CF469537952795A795F040539586
:103A1000C9F77EF41F16BA0B620B730B840BBAF056
:103A20009150A1F0FF0FBB1F661F771F881FC2F7C1
:103A30000EC0BA0F621F731F841F48F487957795D5
:103A40006795B795F7959E3F08F0B3CF9395880F8C
:103A500008F09927EE0F979587950895D9D008F427
:103A600081E008950CD00FC107D140F0FED030F0B6
:103A700021F45F3F19F0F0C0511139C1F3C014D1E6
:103A800098F39923C9F35523B1F3951B550BBB2725
:103A9000AA2762177307840738F09F5F5F4F220FD2
:103AA000331F441FAA1FA9F333D00E2E3AF0E0E8CB
:103AB00030D091505040E695001CCAF729D0FE2F17
:103AC00027D0660F771F881FBB1F261737074807A9
:103AD000AB07B0E809F0BB0B802DBF01FF2793585F
:103AE0005F4F2AF09E3F510568F0B6C000C15F3FAE
:103AF000ECF3983EDCF3869577956795B795F79547
:103B00009F5FC9F7880F911D9695879597F908953E
:103B1000E1E0660F771F881FBB1F621773078407DA
:103B2000BA0720F0621B730B840BBA0BEE1F88F7E9
:103B3000E095089504D06894B111D9C00895BCD01F
:103B400088F09F5790F0B92F9927B751A0F0D1F086
:103B5000660F771F881F991F1AF0BA95C9F712C010
:103B6000B13081F0C3D0B1E00895C0C0672F782F85
:103B70008827B85F39F0B93FCCF38695779567957C
:103B8000B395D9F73EF490958095709561957F4FE8
:103B90008F4F9F4F0895E89409C097FB3EF490958E
:103BA0008095709561957F4F8F4F9F4F9923A9F016
:103BB000F92F96E9BB279395F695879577956795A5
:103BC000B795F111F8CFFAF4BB0F11F460FF1BC0E9
:103BD0006F5F7F4F8F4F9F4F16C0882311F096E97C
:103BE00011C0772321F09EE8872F762F05C066232A
:103BF00071F096E8862F70E060E02AF09A95660FE3
:103C0000771F881FDAF7880F9695879597F908959B
:103C1000990F0008550FAA0BE0E8FEEF16161706DD
:103C2000E807F907C0F012161306E407F50798F045
:103C3000621B730B840B950B39F40A2661F0232B5E
:103C4000242B252B21F408950A2609F4A140A695DA
:103C50008FEF811D811D089597F99F6780E870E0BF
:103C600060E008959FEF80EC089500240A941616F2
:103C7000170618060906089500240A94121613065A
:103C8000140605060895092E0394000C11F48823E8
:103C900052F0BB0F40F4BF2B11F460FF04C06F5F04
:103CA0007F4F8F4F9F4F089557FD9058440F551FDA
:103CB00059F05F3F71F04795880F97FB991F61F0AE
:103CC0009F3F79F087950895121613061406551F25
:103CD000F2CF4695F1DF08C0161617061806991F91
:103CE000F1CF86957105610508940895E894BB2786
:103CF00066277727CB0197F908950BD0C4CFB5DF9E
:103D000028F0BADF18F0952309F0A6CFABCF112425
:103D1000EECFCADFA0F3959FD1F3950F50E0551F6A
:103D2000629FF001729FBB27F00DB11D639FAA2710
:103D3000F00DB11DAA1F649F6627B00DA11D661F5F
:103D4000829F2227B00DA11D621F739FB00DA11D80
:103D5000621F839FA00D611D221F749F3327A00D3A
:103D6000611D231F849F600D211D822F762F6A2FD6
:103D700011249F5750408AF0E1F088234AF0EE0F5B
:103D8000FF1FBB1F661F771F881F91505040A9F768
:103D90009E3F510570F060CFAACF5F3FECF3983E95
:103DA000DCF3869577956795B795F795E7959F5FCF
:103DB000C1F7FE2B880F911D9695879597F9089569
:103DC000629FD001739FF001829FE00DF11D649FFF
:103DD000E00DF11D929FF00D839FF00D749FF00D8B
:103DE000659FF00D9927729FB00DE11DF91F639F2C
:103DF000B00DE11DF91FBD01CF0111240895991BDC
:103E000079E004C0991F961708F0961B881F7A95D1
:103E1000C9F780950895AA1BBB1B51E107C0AA1FD3
:103E2000BB1FA617B70710F0A61BB70B881F991F5B
:103E30005A95A9F780959095BC01CD01089597FBFF
:103E4000092E07260AD077FD04D0E5DF06D0002032
:103E50001AF4709561957F4F0895F6F790958195C6
:103E60009F4F0895A1E21A2EAA1BBB1BFD010DC096
:103E7000AA1FBB1FEE1FFF1FA217B307E407F5071A
:103E800020F0A21BB30BE40BF50B661F771F881FF6
:103E9000991F1A9469F760957095809590959B018C
:103EA000AC01BD01CF01089597FB092E05260ED068
:103EB00057FD04D0D7DF0AD0001C38F45095409548
:103EC000309521953F4F4F4F5F4F0895F6F79095EE
:103ED0008095709561957F4F8F4F9F4F0895EE0F9E
:0E3EE000FF1F0590F491E02D0994F894FFCF98
:103EEE0043757272656E743A200000E100000000A6
:103EFE000000010100000000D60FE1150000400097
:103F0E001400540000000000D21AE115711A981A1C
:103F1E007F1AFA1AFE1A00000000A21BE115441CBB
:043F2E00011CF41B63
:00000001FF
