:100000000C9476010C949E010C949E010C949E011C
:100010000C949E010C949E010C949E010C949E01E4
:100020000C949E010C949E010C948E1B0C94151C38
:100030000C949E010C949E010C949E010C949E01C4
:100040000C949E010C9422140C949E010C949E011D
:100050000C949E010C949E010C949E010C94E0144F
:100060000C949E010C949E010C949E010C949E0194
:100070000C949E010C949E010C949E010C949E0184
:100080000C949E010C949E010C949E010C949E0174
:100090000C949E010C949E010C949E010C949E0164
:1000A0000C949E010C9422100C949E010000000000
:1000B000240027002A002D00300000000000250049
:1000C00028002B002E003100000000002300260035
:1000D00029002C002F000404040404030405020278
:1000E00002020403020202020606060606060404D1
:1000F00002020204040802011040804010204080E7
:10010000408008020401804020100201108010206D
:1001100040400000000200080E0000030401000B34
:1001200000000000000000000000000000000000CF
:10013000070605040100080A0B0C0D09080B000254
:10014000020201000904000001020200000524006F
:100150001001052401010104240206052406000102
:100160000705810310004009040100020A00000095
:100170000705020240000007058302400000040357
:1001800009042203410072006400750069006E00DA
:100190006F0020004C0065006F006E00610072006F
:1001A00064006F001803410072006400750069006C
:1001B0006E006F0020004C004C0043001201000252
:1001C00000000040412336800001010200011201BD
:1001D00000020200004041233680000101020001BC
:1001E00000C18081C105010902A1010901A10085A9
:1001F00001050919012903150025019503750181E0
:100200000295017505810305010930093109381589
:1002100081257F750895038106C0C005010906A1E7
:10022000018502050719E029E715002501750195EB
:10023000088102950175088103950675081500254A
:10024000650507190029658100C009040200010342
:100250000000000921010100012265000705840357
:1002600040000100000000000000002A2B280000D0
:10027000000000000000000000000000000000007E
:100280000000002C9EB4A0A1A2A434A6A7A5AE365F
:100290002D3738271E1F20212223242526B333B6CD
:1002A0002EB7B89F8485868788898A8B8C8D8E8FA0
:1002B000909192939495969798999A9B9C9D2F31A3
:1002C00030A3AD350405060708090A0B0C0D0E0F07
:1002D000101112131415161718191A1B1C1DAFB183
:1002E000B0B50000FB02E717CA1AE11D11241FBEBA
:1002F000CFEFDAE0DEBFCDBF11E0A0E0B1E0E8E390
:10030000F3E402C005900D92A839B107D9F713E0C4
:10031000A8E9B1E001C01D92A435B107E1F712E0F0
:10032000CCEED2E004C02297FE010E949621C43E8A
:10033000D107C9F70E94B2180C949A210C940000BE
:10034000EF92FF920F93DF93CF93CDB7DEB7609715
:100350000FB6F894DEBF0FBECDBFA82F002309F45F
:1003600061C07E010894E11CF11C88E0F701119244
:100370008A95E9F729833A834B835C836D837E8377
:10038000AF83988780E2801BE82FFF27E7FDF09579
:100390004D815E816F817885181684F01D861E86DA
:1003A0001F86188A882799278E1B9F0B04C0769575
:1003B0006795579547958A95D2F728C0202F332700
:1003C00027FD3095DB01CA01022E04C0B695A79522
:1003D000979587950A94D2F78D879E87AF87B88BBC
:1003E00004C0440F551F661F771FEA95D2F7898115
:1003F0009A81AB81BC8104C0B695A79597958795E6
:100400002A95D2F7482B592B6A2B7B2B49875A8781
:100410006B877C8729853A854B855C856D857E85D4
:10042000AF8598898A2F60960FB6F894DEBF0FBE0D
:10043000CDBFCF91DF910F91FF90EF900895EF9294
:10044000FF920F93DF93CF93CDB7DEB760970FB6D0
:10045000F894DEBF0FBECDBFA82F002309F461C002
:100460007E010894E11CF11C88E0F70111928A9545
:10047000E9F729833A834B835C836D837E83AF8363
:10048000988780E2801BE82FFF27E7FDF0954981E0
:100490005A816B817C81181684F019861A861B8616
:1004A0001C86882799278E1B9F0B04C0440F551F5D
:1004B000661F771F8A95D2F728C0202F332727FD84
:1004C0003095DB01CA01022E04C0880F991FAA1FB4
:1004D000BB1F0A94D2F789879A87AB87BC8704C071
:1004E0007695679557954795EA95D2F78D819E81C8
:1004F000AF81B88504C0880F991FAA1FBB1F2A951A
:10050000D2F7482B592B6A2B7B2B4D875E876F8741
:10051000788B29853A854B855C856D857E85AF8591
:1005200098898A2F60960FB6F894DEBF0FBECDBFB4
:10053000CF91DF910F91FF90EF9008950F931F934C
:10054000DF93CF93CDB7DEB72E970FB6F894DEBF0B
:100550000FBECDBF0D831E832F8338878D819E8173
:10056000AF81B885863829E7920726E3A2072BE4F6
:10057000B20751F1873829E7920726E3A2072BE457
:10058000B20770F4863C29E3920726E3A2072BE426
:10059000B20701F1865A9945A643BB4409F50EC03E
:1005A000863429EB920726E3A2072BE4B20779F001
:1005B0008652994DA643BB4499F403C088E090E06D
:1005C0000BC080E190E008C084E090E005C082E0CC
:1005D00090E002C081E090E09093EC018093EB0109
:1005E0002E960FB6F894DEBF0FBECDBFCF91DF9130
:1005F0001F910F910895CF92EF920F9388E991E0A8
:100600000E94DE1283EB91E067E046E028EC30E0E8
:100610000E94C80685EC91E062E04AE024E105E131
:1006200056E1E52E37E1C32E0E94A5128AED91E036
:1006300064E070E00E948D080F91EF90CF900895D4
:1006400080E393E060E875E20E949C178CE061E033
:100650000E94AC1683E061E00E94AC1689E061E084
:100660000E94AC168DE061E00E94AC168BE061E068
:100670000E94AC1688E061E00E94AC1689E061E05F
:100680000E94391788E061E00E9439178AED91E0F5
:100690000E94C41085EC91E060E142E020E00E94FD
:1006A000EF118AE590E090939E0180939D018FE089
:1006B00090E09093A00180939F0110929C01109272
:1006C0009B0188E290E09093A2018093A10188E9C8
:1006D00091E065E070E00E941B1488EC90E090933C
:1006E000A8018093A7019093AA018093A9019093F8
:1006F000AC018093AB019093AE018093AD019093D8
:10070000B0018093AF019093B2018093B1019093B7
:10071000A4018093A3011092EA011092E9011092C2
:10072000EC011092EB011092EE011092ED01089590
:100730000F931F9305EC11E0C8010E94E711C80157
:1007400060E040E00E94B811C80160E071E00E94E2
:10075000011A6091A3017091A401C8014AE050E020
:100760000E94CF191F910F910895CF93DF93682FA7
:1007700083EB91E00E94B70769E370E00E943021AB
:10078000EB016115710511F4C8ECD0E068E270E08E
:1007900080E090E00E944E15CE01DF91CF91089548
:1007A000EF92FF920F931F93CF93DF932AE530E0F0
:1007B000281B390B442737FD4095542FCA01B90136
:1007C0000E94EE1F7B018C0120E030E040E050E011
:1007D0000E949E20882324F1C801B70120E030E068
:1007E00044EB51E40E944F1F88231CF4C3E0D0E087
:1007F0003FC0C801B70120E030E044E352E40E946A
:100800004F1F18169CF5C801B70120E030E047E8FB
:1008100052E40E944F1F18164CF5C5E0D0E028C0E6
:10082000C801B70120E030E044EB51EC0E949E206B
:1008300018161CF4C2E0D0E01BC0C801B70120E0CC
:1008400030E044E352EC0E949E20882364F4C0E030
:10085000D0E0C801B70120E030E047E852EC0E9448
:100860009E2088232CF0C1E0D0E002C0C4E0D0E09C
:1008700081E090E00E94B5038F30910524F483E07D
:1008800090E00E94B503CC0FDD1FC955DE4F998360
:10089000888388EC90E09093A4018093A3017091E9
:1008A000A5016091A601E7EAF1E020E030E0408197
:1008B00051814817590714F0AC0102C0722F632F01
:1008C0002F5F3F4F32962630310511F0CA01EFCF2E
:1008D0007093A5016093A6015093A4014093A301D6
:1008E00080E393E06AE071E00E94011A6091A70141
:1008F0007091A80180E393E04AE050E00E94E21981
:1009000080E393E061E171E00E94011A6091A90126
:100910007091AA0180E393E04AE050E00E94E2195E
:1009200080E393E068E171E00E94011A6091AB01FD
:100930007091AC0180E393E04AE050E00E94E2193C
:1009400080E393E06EE171E00E94011A6091AD01D5
:100950007091AE0180E393E04AE050E00E94E2191A
:1009600080E393E064E271E00E94011A6091AF01BC
:100970007091B00180E393E04AE050E00E94E219F8
:1009800080E393E06AE271E00E94011A6091B10194
:100990007091B20180E393E04AE050E00E94E219D6
:1009A00080E393E060E371E00E94011A6091A3018B
:1009B0007091A40180E393E04AE050E00E94E219C4
:1009C000DF91CF911F910F91FF90EF90089580E3F9
:1009D00093E060E471E00E94041A89E061E00E9403
:1009E000391788E061E00E9439170895CF93DF93AB
:1009F000EC016A817B8180E393E04AE050E00E9451
:100A0000E21988819981892B39F480E393E06BE4C2
:100A100071E00E94041A41C08E819F81865A9F4FC7
:100A20002A813B812817390721F481EF9FEF9D83AD
:100A30008C838AE590E02E813F81821B930B2A8173
:100A40003B812817390721F48FE090E09D838C8348
:100A50002C813D818A819B81280F391F3B832A830A
:100A60006AE570E08E819F81681B790B62177307BE
:100A70000CF4B9017B836A832E813F81C901875AB7
:100A80009F4F861797071CF4B901665A7F4F7B83E7
:100A90006A8388E991E00E943413DF91CF91089531
:100AA0000F931F93CF93DF93EC018B01813091055E
:100AB00071F489E061E00E94391788E060E00E94EB
:100AC00039178CE061E00E94391783E00FC089E09C
:100AD00060E00E94391788E061E00E943917CE017A
:100AE0008095682F8DE00E9439178BE0B8010E9435
:100AF0000716DF91CF911F910F9108951F93CF9308
:100B0000DF93EC01162F89E060E00E94391788E03E
:100B100060E00E943917113039F48CE061E00E94E6
:100B200039178DE060E006C08CE060E00E94391764
:100B30008DE061E00E94391783E0BE010E94071634
:100B40008BE0BE010E940716DF91CF911F9108959F
:100B50008430910519F18530910534F48130910587
:100B600099F00297E9F413C08830910519F0409785
:100B7000B9F404C086E490E060E003C086E490E04D
:100B800061E00E947E05089581E090E002C080E06F
:100B900090E066E470E00E94500508950E94E7042A
:100BA0000895CF92DF92EF92FF920F931F938BE9FC
:100BB00091E00E94F60480919D0190919E010E9417
:100BC000D0038091A3019091A4010F9734F481E0A8
:100BD00090E09093EE018093ED010E9498038AEDDE
:100BE00091E06BED71E00E94AD0F892B11F1C09087
:100BF000DB01D090DC01E090DD01F090DE0100919E
:100C0000DF011091E0012091E1013091E20140917A
:100C1000E3015091E4016091E5017091E60180915A
:100C2000E7019091E8010E949E028AED91E00E9406
:100C300092088091E9019091EA018130910581F15A
:100C4000823091051CF4892B49F09BC082309105BC
:100C500009F451C0039709F094C076C08091EB016C
:100C60009091EC01009709F48CC00E94A805809136
:100C7000EB019091EC01049751F081E090E09093AA
:100C8000EA018093E90190939C0180939B0110926B
:100C9000EC011092EB011092EE011092ED0171C087
:100CA0008091ED019091EE01019749F40E94E704D3
:100CB00082E090E09093EA018093E90117C080916F
:100CC000EB019091EC01009709F45BC00E94A8052C
:100CD0008091EB019091EC01049741F41092EA01AC
:100CE0001092E90110929C0110929B011092EC016C
:100CF0001092EB0146C087E390E061E00E947E0520
:100D00006CE271E080E090E00E944E150E94E704E2
:100D100020E030E08091A5019091A601039714F4A2
:100D200021E030E0C90167E370E00E9450058AE5E8
:100D300090E09093A2018093A10183E090E09093D2
:100D4000EA018093E9011DC08091A3019091A40163
:100D50004597BCF081E090E09093EA018093E9012F
:100D60001092EE011092ED0188E290E09093A201C2
:100D70008093A1010E94E70486E490E060E00E9475
:100D80007E051F910F91FF90EF90DF90CF90089517
:100D9000CF93DF93EC01862F90E0FC01EC50FF4FE6
:100DA000E491EC83A42FB0E0FD01EC50FF4FE491FF
:100DB000ED838A529F4FFC01449150E0440F551F30
:100DC000FA01E654FF4F859194919F838E83AA5236
:100DD000BF4FFD018491E82FF0E0EE0FFF1FE853B5
:100DE000FF4F859194919B878A87FA01E455FF4FC5
:100DF0008591949199878887F1E0253F3F0714F00A
:100E000024EF31E089E390E0AC01249FC001259FED
:100E1000900D349F900D11244C969D878C87DF9107
:100E2000CF910895CF93DF93EC01E885F985808118
:100E30009C81892B8083EE81FF8190818C818095BC
:100E40008923808384E090E00E94A715EE81FF81D2
:100E500080819C81892B80838AE090E00E94A71585
:100E6000EE81FF8190818C81809589238083E88544
:100E7000F98590818C818095892380830E94281533
:100E8000605B794B8F4F9F4F6E877F87888B998BE5
:100E9000EA85FB85208130E08D8190E0282339238D
:100EA000232BC9F00E9428152E853F854889598932
:100EB000261737074807590770F0EACF0E94281510
:100EC0002E853F85488959892617370748075907CE
:100ED00010F480E019C0EA85FB85208130E08D8127
:100EE00090E028233923232B49F30E9428152C85D1
:100EF0003D8540E050E0260F371F481F591F2E87C1
:100F00003F87488B598B81E0DF91CF910895CF9334
:100F1000DF93EC010E941207882361F422C00E9433
:100F200028152E853F854889598926173707480790
:100F30005907B8F0EA85FB85208130E08D8190E08B
:100F400028233923232B59F70E9428154C855D85CA
:100F5000455050402E853F85421B530B460F571F6F
:100F600002C040E050E0CA01DF91CF9108958F9216
:100F70009F92AF92BF92CF92DF92EF92FF920F9328
:100F80001F93DF93CF93CDB7DEB76C01162FADB6AD
:100F9000BEB6862F90E0880F991F2DB73EB7281B4D
:100FA000390B0FB6F8943EBF0FBE2DBFEDB6FEB69F
:100FB0000894E11CF11CEDB7FEB71282118200E02B
:100FC0005DE1852E912C3CC0C6010E9487070097E9
:100FD00029F41150F6018485958525C0002311F46C
:100FE00020E018C0202F08C0AA0FBB1FAE0DBF1DE8
:100FF000ED93FC93215071F0A22FB0E0FD013197E9
:10100000EE0FFF1FEE0DFF1D0190F081E02DE817A0
:10101000F90750F3E22FF0E0EE0FFF1FEE0DFF1D7A
:10102000918380830F5F011758F4892F9927869544
:101030008695B401681B790B80E090E00E944E1504
:10104000011710F21E7FF701E10FF11D80819181E0
:101050000FB6F894BEBE0FBEADBECF91DF911F910B
:101060000F91FF90EF90DF90CF90BF90AF909F9047
:101070008F900895DF92EF92FF920F931F93CF937B
:10108000DF93EC01882777FD8095982F0E94EE1F53
:101090007B018C0120E030E040E45FE30E94A2206D
:1010A00020E030E048E452E40E94531F0E94BB1F3E
:1010B000C617D70714F4DD241CC0DD24C801B7010E
:1010C00020E030E040EA5FE30E94A22020E030E030
:1010D00048E452E40E94531F20E030E040E85FE320
:1010E0000E94EB1E0E94BB1F6C177D0714F0DD24CD
:1010F000D3948D2D90E0DF91CF911F910F91FF90B0
:10110000EF90DF9008956C597F4F0E943A08089540
:10111000645670400E943A0808956093EF0110925F
:10112000F101089582E08093F0011092BC020895CD
:10113000AF92BF92CF92DF92EF92FF920F931F93E5
:10114000CF93DF936B01DB011A96CD91DC911B9756
:101150008A819B8168E273E20E948308892B09F4EB
:1011600080C08091BC02843009F08CC08C819D814C
:101170006AEC78E00E948808892B09F483C08E818C
:101180009F8160E372E00E948308892B09F47AC092
:10119000F601118610868FEF9FEFAFEFBFEF8483CC
:1011A0009583A683B78381E090E09183808354C0C8
:1011B0008C819D8164E971E10E948808892B09F482
:1011C00050C02696EE24FF24870123E0A22EB12CE6
:1011D0008881998160E372E00E948308892B09F479
:1011E00040C08A819B8160E476E00E948808892B58
:1011F00069F0EE0CFF1C001F111F81E090E0A0E0E1
:10120000B0E0E82AF92A0A2B1B2B0CC08A819B81AB
:1012100060E372E00E948808892B19F1EE0CFF1C34
:10122000001F111F249691E4A916B10429F0A2E031
:10123000B0E0AA0EBB1ECCCF80E290E0F601918711
:101240008087D6011496ED92FD920D931C9317970B
:1012500081E090E08D939C9321E030E040E050E00D
:1012600004C020E030E040E050E0B901CA01DF9165
:10127000CF911F910F91FF90EF90DF90CF90BF9093
:10128000AF9008958091BC02843458F391CFAF920F
:10129000BF92CF92DF92EF92FF920F931F93CF9363
:1012A000DF936B018091BC028A3108F480C0DB01BE
:1012B0001A96CD91DC911B9788819981845F91402A
:1012C00080F4FB01118610868FEF9FEFAFEFBFEF29
:1012D00084839583A683B78389E090E0918380839C
:1012E00061C08A819B8160E679E00E948308892B36
:1012F00009F45DC02696EE24FF24870162E0A62E45
:10130000B12C30C0229788819981229668E572E0DD
:101310000E948808892B79F18881998160EB74E0BB
:101320000E948308892B69F0EE0CFF1C001F111F1F
:1013300081E090E0A0E0B0E0E82AF92A0A2B1B2B1C
:101340000CC08881998168E572E00E948308892B2E
:1013500071F1EE0CFF1C001F111FA2E0B0E0AA0EFD
:10136000BB1E24968091BC0295012F5F3F4F90E0F9
:10137000281739073CF2C501019795958795F60125
:10138000918780870C971CF41186108610C0D601B7
:101390001496ED92FD920D931C93179782E090E0C6
:1013A0008D939C9321E030E040E050E004C020E0C9
:1013B00030E040E050E0B901CA01DF91CF911F91C8
:1013C0000F91FF90EF90DF90CF90BF90AF90089576
:1013D000AF92BF92CF92DF92EF92FF920F931F9343
:1013E000CF93DF936B018091BC028A3108F489C0EE
:1013F000DB011A96CD91DC911B97888199818052EF
:10140000934080F4FB01118610868FEF9FEFAFEFC2
:10141000BFEF84839583A683B78389E090E09183AF
:1014200080836AC08A819B816CEA7DE00E94830888
:10143000892B09F466C08C819D816CEA7DE00E9455
:101440008308892B09F45DC02896EE24FF248701C8
:10145000A3E0AA2EB12C30C02297888199812296D0
:1014600066EB73E00E948808892B79F18881998165
:1014700060E679E00E948308892B69F0EE0CFF1C7E
:10148000001F111F81E090E0A0E0B0E0E82AF92AF7
:101490000A2B1B2B0CC0888199816CEB72E00E9497
:1014A0008308892B71F1EE0CFF1C001F111FA2E0B5
:1014B000B0E0AA0EBB1E24968091BC0295012F5F5E
:1014C0003F4F90E0281739073CF2C50101979595E9
:1014D0008795F601918780870C971CF411861086FA
:1014E00010C0D6011496ED92FD920D931C931797A0
:1014F00089E090E08D939C9321E030E040E050E063
:1015000004C020E030E040E050E0B901CA01DF91C2
:10151000CF911F910F91FF90EF90DF90CF90BF90F0
:10152000AF9008956F927F928F929F92AF92BF92E9
:10153000CF92DF92EF92FF920F931F93CF93DF939F
:101540004B018091BC02823208F47AC0DB011A960A
:10155000CD91DC911B978A819B816EE571E00E94A1
:101560008308892B09F46CC036E0A32EB12CAC0E95
:10157000BD1EEE24FF24870122E0C22ED12C37C0ED
:10158000E5012297888199816EE977E00E948308BE
:10159000892B69F0EE0CFF1C001F111F81E090E009
:1015A000A0E0B0E0E82AF92A0A2B1B2B0DC08881A5
:1015B00099816EEE72E00E948308892B09F440C085
:1015C000EE0CFF1C001F111FD5018D919C916EE543
:1015D00071E00E948808E4E0F0E0AE0EBF1E892BA7
:1015E00011F463010FC022E030E0C20ED31E3601B9
:1015F0000894611C711C8091BC0290E06816790609
:101600000CF4BECFC601019795958795D401199624
:101610009C938E93189740972CF419961C921E92C7
:1016200018970EC0F401E482F582068317838AE0DE
:1016300090E09183808321E030E040E050E004C0FE
:1016400020E030E040E050E0B901CA01DF91CF91E5
:101650001F910F91FF90EF90DF90CF90BF90AF90D0
:101660009F908F907F906F9008956F927F928F924E
:101670009F92AF92BF92CF92DF92EF92FF920F9321
:101680001F93CF93DF93FB013A0159016801DA01FF
:101690002D913C91848595852817390724F071E0B8
:1016A000E72EF12C56C0C901880F991F0284F385DB
:1016B000E02DE80FF91F80819181982E892E20FD61
:1016C00006C00CE91FEF51E0E52EF12C04C004E642
:1016D00010E0EE24FF24B8016C0D7D1D892D982D9E
:1016E0000E943A08892B19F021E030E020C0E60181
:1016F000CC0FDD1FB8016C0F7D1F892D982D0E9426
:101700003A08892B19F022E030E011C0CC0DDD1D24
:101710000C0F1D1F892D982DB8010E943A08892BA6
:1017200021F4EE24EA94FE2C14C023E030E0F5010D
:1017300080819181019691838083821793074CF079
:1017400011821082D3018D919C91119701968D93F6
:101750009C93C701DF91CF911F910F91FF90EF9064
:10176000DF90CF90BF90AF909F908F907F906F90C1
:1017700008952F923F924F925F926F927F928F9235
:101780009F92AF92BF92CF92DF92EF92FF920F9310
:101790001F93DF93CF9300D000D000D0CDB7DEB73A
:1017A0001C015B018091BC028D3008F47EC081E099
:1017B00090E09A8389831C821B82A3E08A2E912C5D
:1017C0008C0E9D1EC1013E010894611C711CA30179
:1017D000940109E713E00E94350B892B09F065C0DD
:1017E000C101B501A30194010E94350B019709F0D5
:1017F0005CC0C101B501A30194010E94350B892B86
:1018000009F053C044245524CC24DD247601C401BE
:101810008D829E832FC0C101B501A3012D813E8120
:1018200009E713E00E94350B4C01C101B501A3018A
:101830002D813E810E94350B21E08216910479F4BE
:10184000892B99F5CC0CDD1CEE1CFF1C81E090E08F
:10185000A0E0B0E0C82AD92AEA2AFB2A08C08928D1
:1018600021F5019711F5CC0CDD1CEE1CFF1C089432
:10187000411C511C8091BC0290E029813A812817BB
:1018800039074CF2D50119965C924E921897F501E2
:10189000C482D582E682F78283E090E091838083E0
:1018A00021E030E040E050E004C020E030E040E0E3
:1018B00050E0B901CA0126960FB6F894DEBF0FBEFC
:1018C000CDBFCF91DF911F910F91FF90EF90DF90EF
:1018D000CF90BF90AF909F908F907F906F905F90D0
:1018E0004F903F902F9008952F923F924F925F928A
:1018F0006F927F928F929F92AF92BF92CF92DF9220
:10190000EF92FF920F931F93DF93CF93CDB7DEB784
:1019100028970FB6F894DEBF0FBECDBF1C014B0158
:10192000DB011C968D919C911D97181619060CF0E1
:10193000C4C081E090E09A8389831A960D911C912E
:101940001B97F801828193816AE67AE00E948308FE
:10195000892B09F4B2C082E090E09A838983D80190
:1019600014968D919C91159769E773E00E94880801
:10197000892B09F4A2C083E090E09A8389831C82BA
:101980001B8203E0A02EB12CAC0EBD1EC101B40120
:101990003E010894611C711CA30195010CEB11E040
:1019A0000E94350B892B09F088C0C101B401A30145
:1019B00095010E94350B019709F07FC0CC24DD24EE
:1019C000760144245524C501AD829E83C3016F82F4
:1019D000988756C0C101B4014F8158852D813E8141
:1019E0000CEB11E00E94350B3C01B3E04B165104A7
:1019F00061F4C101B4014F8158852D813E810E945F
:101A0000350B6816790609F058C0C101B4014F8141
:101A100058852D813E810CEB11E00E94350B5C0155
:101A2000E3E04E16510459F4C101B4014F815885C9
:101A30002D813E810E94350BA816B906F1F561147F
:101A4000710489F4F1E0AF16B104B9F5CC0CDD1CDA
:101A5000EE1CFF1C81E090E0A0E0B0E0C82AD92A8B
:101A6000EA2AFB2A0AC091E06916710431F5AB2815
:101A700021F5CC0CDD1CEE1CFF1C0894411C511CF4
:101A800029813A81D4011C968D919C911D9728172C
:101A900039070CF49FCF19965C924E921897F40177
:101AA000C482D582E682F78284E090E091838083CD
:101AB00021E030E040E050E004C020E030E040E0D1
:101AC00050E0B901CA0128960FB6F894DEBF0FBEE8
:101AD000CDBFCF91DF911F910F91FF90EF90DF90DD
:101AE000CF90BF90AF909F908F907F906F905F90BE
:101AF0004F903F902F9008956F927F928F929F9278
:101B0000AF92BF92CF92DF92EF92FF920F931F930B
:101B1000CF93DF937B01FB01C285D3858A819B81B3
:101B20006EEA7DE00E948308892B09F474C08C81E1
:101B30009D8166ED76E00E948308892B09F46BC0D5
:101B4000269600E010E0DD24CC2499248824772414
:101B5000662483E0A82EB12C8881998166EF71E01C
:101B60000E948308892B09F456C08A819B816CED01
:101B700074E00E948808892B69F098014D2D5C2D36
:101B8000692D782D872D962D01E00E941F02022FCE
:101B9000016013C08A819B8160E971E00E9488081E
:101BA000892BC9F198014D2D5C2D692D782D872D3C
:101BB000962D01E00E941F02022F132FD42EC52E56
:101BC000962E872E782E692E2496F1E6AF16B10454
:101BD00029F082E090E0A80EB91EBECFC801F7013F
:101BE00004839583468357839801872D962D00E2C1
:101BF0000E94A001C901F7012283938387E090E04E
:101C00009183808380E390E09187808721E030E0BA
:101C100040E050E004C020E030E040E050E0B90196
:101C2000CA01DF91CF911F910F91FF90EF90DF904C
:101C3000CF90BF90AF909F908F907F906F900895BE
:101C40008F929F92AF92BF92CF92DF92EF92FF92CC
:101C50000F931F93CF93DF936B018091BC0282326D
:101C600009F0B2C0DB011A96CD91DC911B978A81F5
:101C70009B8168E572E00E948308892B09F4A4C067
:101C80008091BC0221E030E0281B3109220F331F74
:101C9000C21BD30B8881998168E572E00E9483089A
:101CA000892B09F491C0F601118610868FEF9FEF02
:101CB000AFEFBFEF84839583A683B78388E090E07E
:101CC0009183808369C08091BC02813208F469C02D
:101CD000D50114968D919C91159760EA7FE00E9442
:101CE0008808892B09F45DC0E5012696EE24FF24BF
:101CF000870133E0832E912C8881998168E572E019
:101D00000E948308892B09F44CC08A819B8160E47E
:101D100076E00E948808892B69F0EE0CFF1C001FFA
:101D2000111F81E090E0A0E0B0E0E82AF92A0A2B38
:101D30001B2B0CC08A819B8166E272E00E9488089E
:101D4000892B79F1EE0CFF1C001F111FA2E0B0E0FF
:101D50008A0E9B1E2496B3E28B16910469F6E6E484
:101D6000F0E0AE0EBF1ED5018D919C9168E572E04A
:101D70000E948308892BA9F080E190E0F601918709
:101D80008087D6011496ED92FD920D931C931797C0
:101D900088E090E08D939C9321E030E040E050E0BB
:101DA00004C020E030E040E050E0B901CA01DF911A
:101DB000CF911F910F91FF90EF90DF90CF90BF9048
:101DC000AF909F908F900895F601A284B384D501BF
:101DD00012968D919C91139760E47FE10E94830895
:101DE000892B09F070CFDDCF2F923F924F925F92F7
:101DF0006F927F928F929F92AF92BF92CF92DF921B
:101E0000EF92FF920F931F93DF93CF9300D0CDB744
:101E1000DEB71B01FB0184859585863091052CF486
:101E200020E030E040E050E081C0F5ECAF2EFDE96D
:101E3000BF2EFCE1CF2EF1E8DF2EE6E04E2E512C36
:101E40009C01220F331F3A83298359C0F101A285D7
:101E5000B385F2013497EA0FFB1FE080F180A40DF7
:101E6000B51D6D917C9180E090E00E94EC1F3B01DC
:101E70004C0100E010E0C801B7010E94EC1F7B019B
:101E80008C012DEC3CEC4CE45FE30E94A2209B0112
:101E9000AC01C401B3010E944F1F88231CF400E071
:101EA00010E018C0C401B3012DEC3CEC4CE45FE33E
:101EB0000E94A2209B01AC01C801B7010E944F1FE4
:101EC000082F112707FD10950027110F001F11275C
:101ED0000F5F1F4FC601B50123E931E040E051E03B
:101EE0000E9405215801CC24B7FCC094DC2CA62606
:101EF000B726C826D92622E030E0420E531E89813B
:101F00009A814816590609F0A1CFF101A482B58241
:101F1000C682D78280E290E0918780878FEF9FEF23
:101F20009183808321E030E040E050E0B901CA01B4
:101F30000F900F90CF91DF911F910F91FF90EF9035
:101F4000DF90CF90BF90AF909F908F907F906F90D9
:101F50005F904F903F902F9008950F931F93CF93D2
:101F6000DF938C01EB0184EF91E09B878A8780915E
:101F7000BC028C871D868091F001853009F057C026
:101F8000C8010E949808611571058105910509F045
:101F900051C0C801BE010E94470961157105810544
:101FA000910509F047C0C801BE010E94E80961150A
:101FB000710581059105F1F5C801BE010E94920AE3
:101FC0006115710581059105A9F5C801BE010E9441
:101FD000B90B611571058105910561F5C801BE0157
:101FE0000E94740C611571058105910519F5C801F0
:101FF000BE010E947C0D6115710581059105D1F42A
:10200000C801BE010E94200E611571058105910570
:1020100089F4C801BE010E94F40E611571058105A5
:10202000910541F482E08093F0011092BC0220E01F
:1020300030E002C021E030E0C901DF91CF911F9173
:102040000F9108951F920F920FB60F9211242F93A4
:102050003F934F935F936F937F938F939F93AF9330
:10206000BF93EF93FF938091EF010E946C17482F6D
:102070008091F2019091F30101969093F301809386
:10208000F2018091BC02843618F085E08093F00163
:102090008091F0018330D1F0843020F4823009F057
:1020A00059C006C0843071F1853009F053C04CC06E
:1020B000442309F04FC08091F2019091F3018436DE
:1020C000910508F443C01092BC021EC0413009F0D3
:1020D00041C08091BC02E82FF0E02091F2013091E4
:1020E000F301EE0FFF1FE151FE4F368325838F5F13
:1020F0008093BC021092F3011092F20184E080936D
:10210000F00128C04423B9F48091BC02E82FF0E02C
:102110002091F2013091F301EE0FFF1FE151FE4FCC
:10212000368325838F5F8093BC021092F301109257
:10213000F20183E0E4CF8091F2019091F3018536C2
:10214000910540F085E0DBCF442321F41092F301A8
:102150001092F2018091F101882329F0442311F4B7
:102160002D9A01C02D98FF91EF91BF91AF919F9152
:102170008F917F916F915F914F913F912F910F9030
:102180000FBE0F901F901895F8941092C00081E038
:102190008093C1001092C2001092C3001092C4003C
:1021A000EFEBF0E083E0808380E28093D100108247
:1021B000EEEBF0E0118210820190F081E02D84E0DE
:1021C00080937200789482E08093F0011092BC02B8
:1021D0008091EF0160E00E94AC1608950F931F9369
:1021E0008C01FC01868160E00E94391781E090E05B
:1021F0000E94A715F801868161E00E94391781E0ED
:1022000090E00E94A715F801868160E00E943917CE
:1022100084E690E00E94A7151F910F910895CF9238
:10222000DF92EF92FF920F931F93CF93DF93D82EFD
:10223000C92E282F392FC9018C01C0E0D0E0E62E2D
:10224000FF24F801878161E00E94AC16B7010C2ED3
:1022500002C0759567950A94E2F76170F80187816D
:102260000E94391721960F5F1F4FC830D10549F7DB
:102270008D2D9C2D0E94EE10DF91CF911F910F911B
:10228000FF90EF90DF90CF900895CF92DF92EF9282
:10229000FF920F931F93CF93DF93D82EC92E282F31
:1022A000392FC9018C01C0E0D0E0E62EFF24F801EF
:1022B000878161E00E94AC16B7010C2E02C07595B3
:1022C00067950A94E2F76170F80187810E943917D7
:1022D00021960F5F1F4FC430D10549F78D2D9C2DDE
:1022E0000E94EE10DF91CF911F910F91FF90EF9020
:1022F000DF90CF9008951F93CF93DF93EC01162FBB
:102300008C81642F0E9439178D818F3F19F060E016
:102310000E9439178F8584FF05C0CE01612F0E946E
:102320000F110EC0612F70E084E0759567958A9556
:10233000E1F7CE010E944511CE01612F0E944511A7
:10234000DF91CF911F91089541E00E947B1181E0C0
:1023500090E0089540E00E947B110895FC0160899F
:10236000862F8460808B6C60CF010E94AA11089533
:10237000DF93CF93CDB7DEB728970FB6F894DEBFC3
:102380000FBECDBF9C01FE013196AFE6B1E088E003
:102390000D9001928150E1F7F9018389481710F0FF
:1023A000482F4150E42FF0E0EE0FFF1FEC0FFD1F10
:1023B0008181680F6068C9010E94AA1128960FB632
:1023C000F894DEBF0FBECDBFCF91DF91089561E0DD
:1023D0000E94AA1180ED97E00E94A7150895CF935F
:1023E000DF93EC01423018F08F8588608F874B8B2C
:1023F0001C8A222329F0413019F48F8584608F874D
:1024000080E593EC0E94A7158C8160E00E9439174B
:102410008E8160E00E9439178D818F3F19F060E056
:102420000E9439176F8564FD1DC0CE0163E00E94D4
:10243000451184E991E10E94A715CE0163E00E9455
:10244000451184E991E10E94A715CE0163E00E9445
:10245000451186E990E00E94A715CE0162E00E9436
:10246000451116C06062CE010E94AA1184E991E173
:102470000E94A7156F856062CE010E94AA1186E9AD
:1024800090E00E94A7156F856062CE010E94AA119C
:102490006F856062CE010E94AA1184E0888BCE0114
:1024A0000E94AE11CE010E94E71182E0898BCE011D
:1024B00066E00E94AA11DF91CF9108956F927F92FA
:1024C0008F92AF92CF92EF920F931F93DF93CF93A0
:1024D000CDB7DEB73C01162F842FF301448325834B
:1024E0000683E782C086A18682869D8593879E8526
:1024F00094879F8595879889968761E00E94AC169E
:10250000F30185818F3F19F061E00E94AC16F30161
:10251000868161E00E94AC16112319F0F301178641
:1025200003C080E1F3018787C30160E141E020E05F
:102530000E94EF11CF91DF911F910F91EF90CF90FB
:10254000AF908F907F906F9008958F92AF92CF92BF
:10255000EF920F931F93CF93DF93DC01362F542F0D
:10256000722F102FAE2C8C2C13961C921E92129749
:102570008BE691E011969C938E9300D000D0EDB73E
:10258000FEB73196CDB7DEB719821182128213825F
:10259000CD0161E0432F2FEF052FE72EC12E0E94C2
:1025A0005E120F900F900F900F90DF91CF911F91BF
:1025B0000F91EF90CF90AF908F900895FC01809194
:1025C000BD028C3090F480838F5F8093BD02815078
:1025D00090E0FC01EE0FFF1FE80FF91FE254FD4FE2
:1025E00088EB9BE09283818308958FEF8083089529
:1025F000FC0120812C30B8F58181992787FD9095C9
:1026000048E850E0481B590B440F551F440F551F15
:102610006417750784F08281992787FD909548E5B6
:1026200052E0481B590B440F551F440F551F6417A8
:1026300075070CF4AB0142505040CA01AA2797FD20
:10264000A095BA2F880F991FAA1FBB1F4FB7F894E8
:1026500030E0F901EE0FFF1FE20FF31FE254FD4FD0
:10266000928381834FBF0895AF92BF92CF92DF9242
:10267000EF92FF920F931F93CF93DF93EC019B0197
:1026800082E0603278070CF048C077FF03C020E09A
:1026900030E005C0653B710514F024EB30E000D05C
:1026A00000D0B901882777FD8095982F298133279D
:1026B00027FD3095E8E8AE2EB12CA21AB30AAA0C79
:1026C000BB1CAA0CBB1CCC24B7FCC094DC2CEA813C
:1026D000FF27E7FDF09528E532E02E1B3F0B220F88
:1026E000331F220F331F442737FD4095542FEDB77A
:1026F000FEB7218332834383548320E030E040E0FF
:1027000050E004EBE02EF12C012D112D0E945E1DF6
:102710009B010F900F900F900F90CE01B9010E9476
:10272000F812DF91CF911F910F91FF90EF90DF9002
:10273000CF90BF90AF900895CF92DF92EF92FF922B
:102740001F93CF93DF93EC01162F7A0169018881E3
:102750008C3008F064C0862F61E00E94AC1688813E
:1027600090E0FC01EE0FFF1FE80FF91FE254FD4F50
:102770001F738081807C812B808380E292E08E19A0
:102780009F0964E070E00E944421698380E699E03B
:102790008C199D0964E070E00E9444216A83A8813D
:1027A0008A2F6CE00E942421682F70E0AB01440F57
:1027B000551F460F571F440F551F440F551F20E04C
:1027C00030E0C901840F951FFC01EE0FFF1FE80FD9
:1027D000F91FE254FD4F808186FD15C02F5F3F4FEA
:1027E0002C30310571F724C01092800082E0809374
:1027F00081001092850010928400B19A80916F0040
:10280000826080936F008A2F90E0FC01EE0FFF1F23
:10281000E80FF91FE254FD4F808180648083888136
:10282000DF91CF911F91FF90EF90DF90CF900895AF
:10283000672BD1F2E8CF40E252E020E639E00E9477
:102840009C1308951F920F920FB60F9211242F938D
:102850003F934F935F936F937F938F939F93AF9328
:10286000BF93EF93FF938091E20287FF05C0109220
:102870008500109284002BC02091E202332727FDAF
:1028800030958091BD0290E02817390704F58091BA
:10289000E202992787FD9095FC01EE0FFF1FE80FDC
:1028A000F91FE254FD4F808186FF11C08091E20242
:1028B000992787FD9095FC01EE0FFF1FE80FF91F88
:1028C000E254FD4F80818F7360E00E943917809140
:1028D000E2028F5F8093E2022091E202332727FD1C
:1028E00030958091BD0290E0281739070CF04EC05A
:1028F0008091E2028C300CF049C02091840030912C
:1029000085008091E202992787FD9095FC01EE0FEA
:10291000FF1FE80FF91FE254FD4F81819281280FBC
:10292000391F30938900209388008091E202992713
:1029300087FD9095FC01EE0FFF1FE80FF91FE25491
:10294000FD4F808186FF2BC08091E202992787FD91
:102950009095FC01EE0FFF1FE80FF91FE254FD4FA9
:1029600080818F7361E00E94391719C080E49CE96F
:1029700005C0809184009091850004969093890011
:10298000809388008FEF8093E20209C080918400D9
:1029900090918500049680549C4940F3EACFFF91C2
:1029A000EF91BF91AF919F918F917F916F915F91C7
:1029B0004F913F912F910F900FBE0F901F90189540
:1029C0001F920F920FB60F9211242F933F938F9364
:1029D0009F93AF93BF938091E7029091E802A091FB
:1029E000E902B091EA023091EB020196A11DB11DFE
:1029F000232F2D5F2D3720F02D570196A11DB11DDE
:102A00002093EB028093E7029093E802A093E902FF
:102A1000B093EA028091E3029091E402A091E50272
:102A2000B091E6020196A11DB11D8093E30290933F
:102A3000E402A093E502B093E602BF91AF919F91AB
:102A40008F913F912F910F900FBE0F901F9018956F
:102A50009FB7F8942091E3023091E4024091E5029F
:102A60005091E60286B5A89B06C08F3F21F02F5FEC
:102A70003F4F4F4F5F4F9FBF542F432F322F22277F
:102A8000280F311D411D511D82E0220F331F441FAD
:102A9000551F8A95D1F7B901CA0108959B01AC0170
:102AA0007FB7F8948091E3029091E402A091E5024F
:102AB000B091E60266B5A89B05C06F3F19F001967C
:102AC000A11DB11D7FBFBA2FA92F982F8827860F70
:102AD000911DA11DB11D62E0880F991FAA1FBB1F88
:102AE0006A95D1F7BC012DC0FFB7F8948091E3023D
:102AF0009091E402A091E502B091E602E6B5A89BB0
:102B000005C0EF3F19F00196A11DB11DFFBFBA2FFF
:102B1000A92F982F88278E0F911DA11DB11DE2E0CE
:102B2000880F991FAA1FBB1FEA95D1F7861B970B29
:102B3000885E9340C8F22150304040405040685178
:102B40007C4F211531054105510571F60895019716
:102B500039F0880F991F880F991F02970197F1F795
:102B60000895789484B5826084BD84B5816084BD05
:102B700085B5826085BD85B5816085BDEEE6F0E0F6
:102B8000808181608083E1E8F0E010828081826052
:102B90008083808181608083E0E8F0E080818160D3
:102BA0008083E1E9F0E080818260808380818160C0
:102BB0008083E0E9F0E0808181608083E1ECF0E0F7
:102BC0008081846080838081826080838081816055
:102BD0008083E3ECF0E0808181608083E0ECF0E0D2
:102BE000808182608083E2ECF0E08081816080837C
:102BF000EAE7F0E080818460808380818260808366
:102C000080818160808380818068808308951F93A4
:102C1000CF93DF93182FEB0161E00E94AC16209751
:102C200009F48FC0CF3FD10509F48EC0E12FF0E049
:102C3000EE5EFE4F8491883009F440C0893070F414
:102C4000823019F1833020F4813009F077C018C048
:102C5000833001F1843009F071C026C08B3009F453
:102C60004BC08C3030F4893099F18A3009F066C05D
:102C700039C08C3009F44DC08E3009F05FC051C0AE
:102C800084B5806884BDC7BD63C084B5806284BDDF
:102C9000C8BD5EC080918000806880938000D09322
:102CA0008900C093880054C0809180008062809326
:102CB0008000D0938B00C0938A004AC0809190001E
:102CC000806880939000D0939900C093980040C092
:102CD00080919000806280939000D0939B00C0937D
:102CE0009A0036C080919000886080939000D093C5
:102CF0009D00C0939C002CC08091C0008068809390
:102D0000C0008091C0008F7B8093C000C093CF0033
:102D10001FC08091C00080628093C000C093D0002B
:102D200017C08091C20088608093C2008091C20069
:102D30008B7F8093C200C093D2000AC0C038D105F7
:102D40001CF4812F60E002C0812F61E00E943917DE
:102D5000DF91CF911F910895CF93DF93482F50E0DB
:102D6000CA018C509F4FFC0134914A525F4FFA01C7
:102D70008491882369F190E0880F991FFC01E45544
:102D8000FF4FA591B491FC01E654FF4FC591D4913A
:102D9000662351F42FB7F8948C91932F9095892343
:102DA0008C93888189230BC0623061F42FB7F8942B
:102DB0008C91932F909589238C938881832B888382
:102DC0002FBF06C09FB7F8948C91832B8C939FBF25
:102DD000DF91CF910895883071F1893068F48230A5
:102DE00031F1833020F4813009F042C01DC08330BE
:102DF00089F08430E9F512C08B3059F18C3028F419
:102E00008930E9F08A30A1F51EC08C3031F18E3066
:102E100079F529C0809180008F7703C08091800070
:102E20008F7D80938000089584B58F7702C084B52C
:102E30008F7D84BD0895809190008F7707C0809129
:102E400090008F7D03C080919000877F80939000D9
:102E500008958091C0008F7703C08091C0008F7D5E
:102E60008093C00008958091C200877F8093C20044
:102E70000895FF920F931F93F62E482F50E0CA013A
:102E80008E5E9E4FFC012491CA018C509F4FFC0125
:102E900014914A525F4FFA0104910023C9F0222392
:102EA00019F0822F0E94EB16E02FF0E0EE0FFF1FCB
:102EB000E654FF4FA591B4919FB7F894FF2021F4F9
:102EC0008C911095812302C08C91812B8C939FBF94
:102ED0001F910F91FF9008950F931F93482F50E07B
:102EE000CA018E5E9E4FFC012491CA018C509F4FF7
:102EF000FC0104914A525F4FFA011491112319F415
:102F000020E030E015C0222319F0822F0E94EB163A
:102F1000812F90E0880F991F88539F4FFC01A59146
:102F2000B4918C9120E030E0802311F021E030E07A
:102F3000C9011F910F910895089520912C0330919C
:102F40002D0380912E0390912F03281B390B2F7393
:102F50003070C901089520912C0330912D03809188
:102F60002E0390912F032817390719F42FEF3FEF05
:102F700009C0E0912E03F0912F03E451FD4F8081B1
:102F8000282F30E0C901089520912C0330912D03A2
:102F900080912E0390912F032817390719F42FEFF2
:102FA0003FEF13C0E0912E03F0912F03E451FD4F4A
:102FB000208180912E0390912F0301968F73907042
:102FC00090932F0380932E0330E0C901089510924F
:102FD00033031092320388EE93E0A0E0B0E08093D8
:102FE000340390933503A0933603B09337038BE7F4
:102FF00091E0909331038093300308950F931F93D2
:10300000DF93CF930F92CDB7DEB78C0169838091A8
:103010006401882369F083E0BE016F5F7F4F41E068
:1030200050E00E94E91A1816190614F49C0107C012
:1030300081E090E0F8019383828320E030E0C901D1
:103040000F90CF91DF911F910F91089583E00E941F
:10305000C01A0895CF93DF9312C082E00E944B1AEA
:103060002FEF8F3F9207C9F0E0912C03F0912D03D1
:10307000E451FD4F8083D0932D03C0932C03C09166
:103080002C03D0912D032196CF73D07080912E0305
:1030900090912F03C817D90701F7DF91CF910895B9
:1030A000FC0180818E5F808380E86CE371E042E404
:1030B00050E00E94641A0895FC0181819081913A48
:1030C00059F4813209F04CC080E06DE571E047E0D1
:1030D00050E00E94641A42C0913209F041C080322F
:1030E00039F48DE591E067E070E00E94A81A36C0DF
:1030F000823209F035C082818093640180915D0144
:1031000090915E01A0915F01B0916001805B94405D
:10311000A040B04019F58091640180FD12C087E79E
:1031200097E790930108809300082BE088E190E0F6
:103130000FB6F894A895809360000FBE20936000AE
:103140000DC088E10FB6F894809360001092600083
:103150000FBEA895109201081092000881E0089512
:1031600080E00895CF93DF930E94B11586E493E049
:103170000E94CB1A0E942003C0E0D0E00E94D1053B
:103180002097E1F30E940000F9CFCF92DF92EF92F7
:10319000FF920F931F93CF93DF937C016B018A0102
:1031A000C0E0D0E00FC0D6016D916D01D701ED9167
:1031B000FC910190F081E02DC7010995C80FD91F3E
:1031C000015010400115110571F7CE01DF91CF912B
:1031D0001F910F91FF90EF90DF90CF900895EF92A5
:1031E000FF920F931F938C01DC01ED91FC910190F4
:1031F000F081E02D6DE009957C01D801ED91FC9105
:103200000190F081E02DC8016AE009959C012E0D26
:103210003F1DC9011F910F91FF90EF900895CF932B
:10322000DF93EC016115710519F420E030E00FC067
:10323000DB010D900020E9F71197A61BB70BE88181
:10324000F9810280F381E02DAD0109959C01C9014E
:10325000DF91CF9108954F925F927F928F929F92CC
:10326000AF92BF92CF92DF92EF92FF920F931F9394
:10327000DF93CF93CDB7DEB7A1970FB6F894DEBF3B
:103280000FBECDBF2C01742ECB01223008F42AE0F2
:1032900019A231E2C32ED12CCC0EDD1E822E992430
:1032A000AA24BB24672D752FA50194010E945721E4
:1032B00079018A01C801B701A50194010E94052185
:1032C000472D461B0894C108D1084A3014F4405DCC
:1032D00001C0495CF6014083E114F10401051105C8
:1032E00021F07E2C5F2DC801DDCFC201B6010E9406
:1032F0000F19A1960FB6F894DEBF0FBECDBFCF91C8
:10330000DF911F910F91FF90EF90DF90CF90BF90D2
:10331000AF909F908F907F905F904F900895CF9245
:10332000DF92EF92FF920F931F93CF93DF93EC0105
:103330006A017B012115310541F4E881F981019091
:10334000F081E02D642F09951FC02A303105D1F49A
:1033500077FF17C0E881F9810190F081E02D6DE2DF
:1033600009958C0144275527BA014C195D096E094E
:103370007F09CE012AE00E942B199801280F391FDE
:1033800004C02AE00E942B199C01C901DF91CF9152
:103390001F910F91FF90EF90DF90CF900895EF92E3
:1033A000FF920F931F937B019A010027F7FC009572
:1033B000102FB801A7010E948F191F910F91FF9044
:1033C000EF900895CF92DF92EF92FF920F931F93A9
:1033D0006C017B019A010027F7FC0095102FB801C2
:1033E000A7010E948F198C01C6010E94EF18080FD7
:1033F000191FC8011F910F91FF90EF90DF90CF90A0
:1034000008950E940F190895EF92FF920F931F9352
:103410007C010E940F198C01C7010E94EF18080F50
:10342000191FC8011F910F91FF90EF900895282F49
:10343000809140038823C1F057FF1AC015C0289817
:1034400090933F038091F1008193E217F307B9F75E
:103450004115510539F08091F200882319F48BE66B
:103460008093E800AFBF02C04FEF5FEFCA0108953D
:10347000AFB7F89427702093E9008091F200282FCD
:1034800030E0241735070CF4A901FB019B01240F40
:10349000311D94E6DACFDF93CF930F92CDB7DEB72D
:1034A000BE016F5F7F4F41E050E00E94171A019705
:1034B00019F02FEF3FEF03C08981282F30E0C901B9
:1034C0000F90CF91DF910895FF920F931F93F82EE5
:1034D000142F052F4091430350914403212F302F87
:1034E000C901DC01FB016EEF29C0F7FE02C0949117
:1034F00001C0908120914103309142032417350788
:10350000ACF48091E8008570E1F38091E80082FFDF
:1035100003C02FEF3FEF17C09093F100C901019650
:103520008F739070892B11F46093E8002F5F3F4FE9
:103530003093420320934103119731961097A9F6D7
:10354000812F902F9C01C9011F910F91FF90089529
:103550009C018091E80082FFFCCFF901260F311D0C
:1035600003C08091F1008193E217F307D1F7289807
:1035700084E680933F038BEF8093E800CB010895AE
:103580008093E9008091F200882319F08AE3809308
:10359000E800089508951092400381E08093D700D9
:1035A00080EA8093D80082E189BD09B400FEFDCF96
:1035B00061E070E080E090E00E944E1580E9809329
:1035C000D8008CE08093E2001092E000559A209A97
:1035D00008955F926F927F928F929F92AF92BF9267
:1035E000CF92DF92EF92FF920F931F93CF93DF93CF
:1035F000E82E842E752E80914003882371F18B0173
:10360000242F352FC901EC017AEFF72E67E0962EB3
:103610009E2050E4552E8E2D90E040E2A42EB12C39
:10362000A822B9223AE3632E20E4C22ED12CC8226C
:10363000D92258C09FB7F8949092E9008091E80091
:1036400085FD02C020E004C08091F200252D281BDA
:103650009FBF222361F4FA9419F42FEF3FEF4DC07E
:1036600061E070E080E090E00E944E153BC0822F48
:1036700090E0C817D9070CF42C2FC21BD1094FB703
:10368000F8949092E900A114B10421F406C01092BC
:10369000F10021502223D9F719C0E7FC03C0F8013B
:1036A000922F10C0C801322F06C0FC010196E49190
:1036B000E093F10031503323C1F706C0819180932C
:1036C000F10091509923D1F7020F111D8091E8006C
:1036D00085FF05C0209729F4C114D10411F0609230
:1036E000E8004FBF209709F0A5CF5D9884E680934E
:1036F0003E03282D372DC9019C01C901DF91CF91CF
:103700001F910F91FF90EF90DF90CF90BF90AF90FF
:103710009F908F907F906F905F9008951F920F926F
:103720000FB60F9211242F933F934F935F936F9394
:103730007F938F939F93AF93BF93EF93FF9380916A
:10374000E1001092E100982F83FF0FC01092E90072
:1037500081E08093EB001092EC0082E38093ED0017
:103760001092400388E08093F00092FF34C083E021
:103770008093E9008091F200882319F08AE3809316
:10378000E8008FB7F89492E09093E9009091F200EE
:103790008FBF992321F080E393E00E942A18809143
:1037A0003E03882351F080913E03815080933E0375
:1037B00080913E03882309F45D9A80913F0388231A
:1037C00051F080913F03815080933F0380913F03EC
:1037D000882309F4289AFF91EF91BF91AF919F91AF
:1037E0008F917F916F915F914F913F912F910F90AA
:1037F0000FBE0F901F9018950F931F93DF93CF93D9
:103800000F92CDB7DEB719828E010F5F1F4FC8012F
:103810000E945018C8010E94DE1E898190E00F901E
:10382000CF91DF911F910F9108951F920F920FB6C4
:103830000F921124EF92FF921F932F933F934F9378
:103840005F936F937F938F939F93AF93BF93EF9308
:10385000FF93DF93CF93CDB7DEB76197DEBFCDBFC8
:103860001092E9008091E80083FF0FC1FE013196BC
:103870009E01275F3F4F03C08091F1008193E217C3
:10388000F307D1F7289884E680933F0382EF809373
:10389000E800998197FF05C08091E80080FFFCCF88
:1038A00003C08EEF8093E800292F30E0C9018076B5
:1038B0009070892B09F0C2C08A81882329F4109264
:1038C000F1001092F100D6C0813009F4D3C08330EA
:1038D00009F4D0C0853049F48091E80080FFFCCF26
:1038E0008B8180688093E300C5C0863009F07CC07E
:1038F0001C81EF80F8841230C1F51092E90010921B
:1039000042031092410310924403109243030E9419
:10391000FC1B99E0FE013996DF01292F1D922A95A3
:10392000E9F799871A8791E09E8790E8988B9AEF3C
:10393000998B2091410330914203275F3F4F3C8791
:103940002B878D871092E900109242031092410359
:10395000F0924403E092430380E0BF0149E050E06D
:103960000E94641A0E94FC1B85C01092E90010920C
:10397000420310924103F0924403E0924303123257
:1039800041F482E290E00E94D61E892B09F476C0B1
:1039900071C0113079F488E0E816F10419F481E07F
:1039A0008093450380914503882309F06BC0ECEBBD
:1039B000F1E013C0133009F061C08B81882319F442
:1039C000EEE7F1E00AC0823019F4E2E8F1E005C068
:1039D000813009F053C0E4EAF1E0449180E8BF018E
:1039E00050E00E94641A46C0873009F447C088300E
:1039F00021F481E08093F1003DC08930D9F5237036
:103A00003070232BD9F5E1EEF1E091E031E026E3CF
:103A10009093E9003093EB0084918093EC00209325
:103A2000ED009F5F3196953099F78EE78093EA001D
:103A30001092EA008B81809340031CC08F8198858F
:103A40001092E900109242031092410390934403B4
:103A5000809343038D81882329F4CE0101960E942F
:103A60005C1806C0823051F4CE0101960E94A71D59
:103A7000882321F08EEF8093E80007C081E28093D5
:103A8000EB0003C0EEECF1E0A8CF6196DEBFCDBF46
:103A9000CF91DF91FF91EF91BF91AF919F918F9166
:103AA0007F916F915F914F913F912F911F91FF9067
:103AB000EF900F900FBE0F901F9018952F923F928E
:103AC0004F925F926F927F928F929F92AF92BF922E
:103AD000CF92DF92EF92FF920F931F93DF93CF93DA
:103AE000CDB7DEB73B014C0119012A016D897E89F2
:103AF0008F89988D6A197B098C099D09621A730A4E
:103B0000840A950AA40193010E940521E218F30892
:103B100004091509A80197010E9479212A0D3B1D6E
:103B20004C1D5D1DB901CA01CF91DF911F910F910D
:103B3000FF90EF90DF90CF90BF90AF909F908F90CD
:103B40007F906F905F904F903F902F900895FC0171
:103B500091818081813A31F4913089F080E0933015
:103B600089F40DC0813269F49B3021F48281809305
:103B7000650105C09A3029F482818093660181E055
:103B8000089580E00895EF92FF920F931F938C01A8
:103B9000E62EDC01ED91FC910480F581E02D099584
:103BA000F82ED801ED91FC910680F781E02DC80137
:103BB0006E2D09958F2D90E01F910F91FF90EF9042
:103BC00008951092470310924B0310924A038DE818
:103BD00091E090934903809348030895EF92FF92F8
:103BE0000F931F93DF93CF930F92CDB7DEB78983E7
:103BF0008B017A0184E0BE016F5F7F4F41E050E0AE
:103C00000E94E91A84E4B801A7010E94E91A0F9002
:103C1000CF91DF911F910F91FF90EF90089582E077
:103C200048E050E00E94EE1D0895FC0116821782C4
:103C3000108611861286138614823496BF010E9464
:103C40000F1E0895DC01683810F0685829C0E62F6F
:103C5000F0E067FF13C0E058F04081E090E002C060
:103C6000880F991FEA95E2F7809514962C91149786
:103C7000282314962C93149760E012C0ED59FD4F41
:103C80006491662319F420E030E01DC067FF08C08E
:103C900014968C9114978D7F14968C9314976F774C
:103CA000FD0190E0662321F08681861709F41682D3
:103CB0009F5F31969630B1F7CD011496BD010E94F9
:103CC0000F1E21E030E0C9010895CF93DF93DC019E
:103CD000683810F0685825C0E62FF0E067FF12C082
:103CE000E058F04081E090E002C0880F991FEA950B
:103CF000E2F714962C911497282B14962C93149772
:103D000060E00FC0ED59FD4F64916623D9F167FF64
:103D100008C014968C911497826014968C93149713
:103D20006F7716968C9116978617A9F117968C9136
:103D30001797861781F118968C911897861759F165
:103D400019968C911997861731F11A968C911A97BA
:103D5000861709F11B968C911B978617E1F0ED01F0
:103D6000E0E0F0E09E2F8E81882321F4EA0FFB1F14
:103D7000668306C09F5F31962196E630F10591F784
:103D8000963049F481E090E013969C938E931297BD
:103D900020E030E007C0CD011496BD010E940F1E47
:103DA00021E030E0C901DF91CF91089580E865EE10
:103DB00071E045E650E00E94641A0895FC0180819C
:103DC0008F5F808380E86AE472E049E150E00E94FE
:103DD000641A08955058BB27AA270ED075C166D122
:103DE00030F06BD120F031F49F3F11F41EF45BC131
:103DF0000EF4E095E7FB51C1E92F77D180F3BA17B4
:103E0000620773078407950718F071F49EF58FC158
:103E10000EF4E0950B2EBA2FA02D0B01B9019001E5
:103E20000C01CA01A0011124FF27591B99F0593F29
:103E300050F4503E68F11A16F040A22F232F342F71
:103E40004427585FF3CF469537952795A795F040BF
:103E50005395C9F77EF41F16BA0B620B730B840BD4
:103E6000BAF09150A1F0FF0FBB1F661F771F881F8C
:103E7000C2F70EC0BA0F621F731F841F48F48795E4
:103E800077956795B795F7959E3F08F0B3CF9395D3
:103E9000880F08F09927EE0F979587950895D9D048
:103EA00008F481E008950CD00FC107D140F0FED096
:103EB00030F021F45F3F19F0F0C0511139C1F3C067
:103EC00014D198F39923C9F35523B1F3951B550BDE
:103ED000BB27AA2762177307840738F09F5F5F4FDD
:103EE000220F331F441FAA1FA9F333D00E2E3AF01E
:103EF000E0E830D091505040E695001CCAF729D038
:103F0000FE2F27D0660F771F881FBB1F2617370786
:103F10004807AB07B0E809F0BB0B802DBF01FF27B6
:103F200093585F4F2AF09E3F510568F0B6C000C11C
:103F30005F3FECF3983EDCF3869577956795B795F0
:103F4000F7959F5FC9F7880F911D9695879597F90B
:103F50000895E1E0660F771F881FBB1F6217730784
:103F60008407BA0720F0621B730B840BBA0BEE1F99
:103F700088F7E095089504D06894B111D9C00895E8
:103F8000BCD088F09F5790F0B92F9927B751A0F077
:103F9000D1F0660F771F881F991F1AF0BA95C9F7DD
:103FA00012C0B13081F0C3D0B1E00895C0C0672F16
:103FB000782F8827B85F39F0B93FCCF3869577958D
:103FC0006795B395D9F73EF4909580957095619576
:103FD0007F4F8F4F9F4F0895E89409C097FB3EF4A1
:103FE00090958095709561957F4F8F4F9F4F992346
:103FF000A9F0F92F96E9BB279395F69587957795C4
:104000006795B795F111F8CFFAF4BB0F11F460FF83
:104010001BC06F5F7F4F8F4F9F4F16C0882311F0DB
:1040200096E911C0772321F09EE8872F762F05C0EF
:10403000662371F096E8862F70E060E02AF09A958A
:10404000660F771F881FDAF7880F9695879597F97F
:104050000895990F0008550FAA0BE0E8FEEF161619
:104060001706E807F907C0F012161306E407F5076C
:1040700098F0621B730B840B950B39F40A2661F0E0
:10408000232B242B252B21F408950A2609F4A14083
:10409000A6958FEF811D811D089597F99F6780E890
:1040A00070E060E008959FEF80EC089500240A948A
:1040B0001616170618060906089500240A94121603
:1040C0001306140605060895092E0394000C11F436
:1040D000882352F0BB0F40F4BF2B11F460FF04C0E3
:1040E0006F5F7F4F8F4F9F4F089557FD9058440F3C
:1040F000551F59F05F3F71F04795880F97FB991F47
:1041000061F09F3F79F08795089512161306140603
:10411000551FF2CF4695F1DF08C016161706180690
:10412000991FF1CF86957105610508940895E8946B
:10413000BB2766277727CB0197F908958ADF08F414
:104140008FEF08950BD0C0CFB1DF28F0B6DF18F0A5
:10415000952309F0A2CFA7CF1124EACFC6DFA0F3A1
:10416000959FD1F3950F50E0551F629FF001729F0C
:10417000BB27F00DB11D639FAA27F00DB11DAA1F2B
:10418000649F6627B00DA11D661F829F2227B00D78
:10419000A11D621F739FB00DA11D621F839FA00D03
:1041A000611D221F749F3327A00D611D231F849F53
:1041B000600D211D822F762F6A2F11249F575040AA
:1041C0008AF0E1F088234AF0EE0FFF1FBB1F661F45
:1041D000771F881F91505040A9F79E3F510570F0FE
:1041E0005CCFA6CF5F3FECF3983EDCF386957795E6
:1041F0006795B795F795E7959F5FC1F7FE2B880FF9
:10420000911D9695879597F90895629FD001739FA8
:10421000F001829FE00DF11D649FE00DF11D929F62
:10422000F00D839FF00D749FF00D659FF00D9927A1
:10423000729FB00DE11DF91F639FB00DE11DF91FC5
:10424000BD01CF0111240895991B79E004C0991F85
:10425000961708F0961B881F7A95C9F780950895E0
:10426000AA1BBB1B51E107C0AA1FBB1FA617B7079C
:1042700010F0A61BB70B881F991F5A95A9F78095B8
:104280009095BC01CD01089597FB092E07260AD011
:1042900077FD04D0E5DF06D000201AF47095619513
:1042A0007F4F0895F6F7909581959F4F0895A1E26D
:1042B0001A2EAA1BBB1BFD010DC0AA1FBB1FEE1FA0
:1042C000FF1FA217B307E407F50720F0A21BB30BEB
:1042D000E40BF50B661F771F881F991F1A9469F767
:1042E00060957095809590959B01AC01BD01CF01C3
:1042F000089597FB092E05260ED057FD04D0D7DF71
:104300000AD0001C38F450954095309521953F4FC8
:104310004F4F5F4F0895F6F7909580957095619592
:104320007F4F8F4F9F4F0895EE0FFF1F0590F49121
:08433000E02D0994F894FFCF81
:1043380043757272656E743A2000323730203D2022
:1043480000333135203D2000302D203D2000302B1A
:10435800203D20003435203D20003930203D20000C
:104368004D696E2064697374616E6365203D200039
:104378004D6F746F722073746F7000536572766F2F
:10438800206E6F742072756E6E696E670000E100B2
:104398000000000000010100000000A411C5180081
:1043A8000040001400540000000000FE17C5189DCE
:1043B80017C417AB1726182A1800000000C31DC51C
:0843C80018651E221E151E00DF
:00000001FF
