:100000000C9463000C948B000C948B000C948B006C
:100010000C948B000C948B000C948B000C948B0034
:100020000C948B000C948B000C948B000C940D1092
:100030000C943A0E0C948B000C948B000C948B0057
:100040000C94C6100C948B000C9485130C94D31351
:100050000C948B000C948B000C948B000C948B00F4
:100060000C948B000C948B000000000024002700EF
:100070002A0000000000250028002B0000000000DE
:1000800023002600290004040404040404040202DA
:100090000202020203030303030301020408102007
:1000A0004080010204081020010204081020000012
:1000B0000007000201000003040600000000000029
:1000C0000000E8013F1511241FBECFEFD8E0DEBFCE
:1000D000CDBF11E0A0E0B1E0E2E0F4E302C00590A2
:1000E0000D92A235B107D9F713E0A2E5B1E001C046
:1000F0001D92AB32B107E1F710E0C6ECD0E004C0CE
:100100002297FE010E94FB19C23CD107C9F70E9449
:1001100095150C94FF190C940000EF92FF920F9329
:10012000DF93CF93CDB7DEB760970FB6F894DEBFFD
:100130000FBECDBFA82F002309F461C07E01089433
:10014000E11CF11C88E0F70111928A95E9F72983F7
:100150003A834B835C836D837E83AF83988780E291
:10016000801BE82FFF27E7FDF0954D815E816F81B1
:100170007885181684F01D861E861F86188A8827A3
:1001800099278E1B9F0B04C07695679557954795C9
:100190008A95D2F728C0202F332727FD3095DB0121
:1001A000CA01022E04C0B695A795979587950A9423
:1001B000D2F78D879E87AF87B88B04C0440F551F39
:1001C000661F771FEA95D2F789819A81AB81BC813E
:1001D00004C0B695A795979587952A95D2F7482B91
:1001E000592B6A2B7B2B49875A876B877C872985FC
:1001F0003A854B855C856D857E85AF8598898A2F8C
:1002000060960FB6F894DEBF0FBECDBFCF91DF91E1
:100210000F91FF90EF900895EF92FF920F93DF936D
:10022000CF93CDB7DEB760970FB6F894DEBF0FBEA1
:10023000CDBFA82F002309F461C07E010894E11C02
:10024000F11C88E0F70111928A95E9F729833A8336
:100250004B835C836D837E83AF83988780E2801BB2
:10026000E82FFF27E7FDF09549815A816B817C815A
:10027000181684F019861A861B861C8688279927EB
:100280008E1B9F0B04C0440F551F661F771F8A9556
:10029000D2F728C0202F332727FD3095DB01CA0174
:1002A000022E04C0880F991FAA1FBB1F0A94D2F701
:1002B00089879A87AB87BC8704C0769567955795E1
:1002C0004795EA95D2F78D819E81AF81B88504C0AC
:1002D000880F991FAA1FBB1F2A95D2F7482B592BAD
:1002E0006A2B7B2B4D875E876F87788B29853A85B4
:1002F0004B855C856D857E85AF8598898A2F609654
:100300000FB6F894DEBF0FBECDBFCF91DF910F9136
:10031000FF90EF9008950F931F93DF93CF93CDB786
:10032000DEB72E970FB6F894DEBF0FBECDBF0D839C
:100330001E832F8338878D819E81AF81B885863853
:1003400029E7920726E3A2072BE4B20751F1873889
:1003500029E7920726E3A2072BE4B20770F4863C54
:1003600029E3920726E3A2072BE4B20701F1865A9C
:100370009945A643BB4409F50EC0863429EB920784
:1003800026E3A2072BE4B20779F08652994DA643E3
:10039000BB4499F403C088E090E00BC080E190E09A
:1003A00008C084E090E005C082E090E002C081E0F7
:1003B00090E090937D0180937C012E960FB6F89487
:1003C000DEBF0FBECDBFCF91DF911F910F9108957A
:1003D00082E591E00E94710E8BE691E067E070E0AB
:1003E0000E9417060895EF92FF920F931F9389E0E2
:1003F00093E040E855E260E070E00E940E148CE06B
:1004000061E00E94021283E061E00E94021289E032
:1004100061E00E9402128DE061E00E9402128BE016
:1004200061E00E94021288E061E00E94021289E00D
:1004300061E00E94411288E061E00E9441128BE677
:1004400091E00E942D0E7C0102E511E0C8016AE0F6
:1004500070E00E940610C801B70142E350E00E941C
:10046000090F8AE590E090935601809355018EE143
:1004700090E0909358018093570188E290E0909328
:100480005A018093590185E061E00E94021286E0E2
:1004900060E00E94021280E991E0909360018093F5
:1004A0005F01909362018093610190936401809356
:1004B0006301909366018093650190936801809336
:1004C000670190936A018093690190935C01809326
:1004D0005B0110927B0110927A0110927D011092C3
:1004E0007C0110927F0110927E011F910F91FF906D
:1004F000EF90089585E060E00E94411262E070E0B4
:1005000080E090E00E940E1185E061E00E944112BF
:100510006AE070E080E090E00E940E1185E060E00B
:100520000E94411286E061E020E432E44FE050E0B6
:100530000E94E8120895CF93DF930E947A0229E384
:1005400030E040E050E00E94BC19E901232B11F497
:10055000C0E9D1E060E570E080E090E00E940E111B
:10056000CE01DF91CF910895EF92FF920F931F93E9
:10057000CF93DF932AE530E0281B390B442737FD62
:100580004095542FCA01B9010E9453187B018C0178
:1005900020E030E040E050E00E940319882324F17D
:1005A000C801B70120E030E044EB51E40E94B417E9
:1005B00088231CF4C3E0D0E03FC0C801B70120E0AD
:1005C00030E044E352E40E94B41718169CF5C801C9
:1005D000B70120E030E047E852E40E94B417181653
:1005E0004CF5C5E0D0E028C0C801B70120E030E0FC
:1005F00044EB51EC0E94031918161CF4C2E0D0E041
:100600001BC0C801B70120E030E044E352EC0E9477
:100610000319882364F4C0E0D0E0C801B70120E0EA
:1006200030E047E852EC0E94031988232CF0C1E027
:10063000D0E002C0C4E0D0E081E090E00E949B02E4
:100640008431910524F483E090E00E949B02CC0F5A
:10065000DD1FC15ADE4F9983888380E991E0909332
:100660005C0180935B0170915D0160915E01EFE53B
:10067000F1E020E030E0408151814817590714F043
:10068000AC0102C0722F632F2F5F3F4F329626308E
:10069000310511F0CA01EFCF70935D0160935E01E7
:1006A00050935C0140935B0189E093E060E071E06E
:1006B0000E94F01660915F017091600189E093E003
:1006C0004AE050E00E94D11689E093E067E071E0D3
:1006D0000E94F016609161017091620189E093E0DF
:1006E0004AE050E00E94D11689E093E06EE071E0AC
:1006F0000E94F016609163017091640189E093E0BB
:100700004AE050E00E94D11689E093E064E171E094
:100710000E94F016609165017091660189E093E096
:100720004AE050E00E94D11689E093E06AE171E06E
:100730000E94F016609167017091680189E093E072
:100740004AE050E00E94D11689E093E060E271E057
:100750000E94F0166091690170916A0189E093E04E
:100760004AE050E00E94D11689E093E066E271E031
:100770000E94F01660915B0170915C0189E093E04A
:100780004AE050E00E94D116DF91CF911F910F9166
:10079000FF90EF900895CF93DF93EC0182E591E015
:1007A0000E94F70E882309F441C08C819D81865AEE
:1007B0009F4F288139812817390721F482EE9FEF56
:1007C0009B838A838AE590E02C813D81821B930B79
:1007D000288139812817390721F48EE190E09B8325
:1007E0008A832A813B8188819981280F391F398327
:1007F00028836AE570E08C819D81681B790B621704
:1008000073070CF4B901798368832C813D81C90198
:10081000875A9F4F861797071CF4B901665A7F4F76
:100820007983688382E591E00E94190FDF91CF916F
:1008300008950F931F93CF93DF93EC018B018130C9
:10084000910571F489E061E00E94411288E060E066
:100850000E9441128CE061E00E94411283E00FC0CF
:1008600089E060E00E94411288E061E00E9441124C
:10087000CE018095682F8DE00E9441128BE0B80177
:100880000E94A211DF91CF911F910F9108951F93A4
:10089000CF93DF93EC01162F89E060E00E944112B4
:1008A00088E060E00E944112113039F48CE061E090
:1008B0000E9441128DE060E006C08CE060E00E9482
:1008C00041128DE061E00E94411283E0BE010E946E
:1008D000A2118BE0BE010E94A211DF91CF911F9166
:1008E000089589E093E066E371E00E94F31689E0E1
:1008F00061E00E94411288E061E00E944112089587
:100900008430910519F18530910534F481309105D9
:1009100099F00297E9F413C08830910519F04097D7
:10092000B9F404C086E490E060E003C086E490E09F
:1009300061E00E944704089581E090E002C080E0F9
:1009400090E066E470E00E94190408950E9471042A
:100950000895CF92DF92EF92FF920F931F938091B1
:100960005501909156010E94B40260E570E080E06C
:1009700090E00E940E118BE691E06CE671E00E941F
:10098000370D892BD1F1C0906C01D0906D01E090B2
:100990006E01F0906F010091700110917101209132
:1009A0007201309173014091740150917501609111
:1009B00076017091770180917801909179010E9480
:1009C0008B014091700150917101609172017091A1
:1009D000730189E093E020E130E00E947D16609190
:1009E0007C0170917D0189E093E04AE050E00E9433
:1009F000D1168BE691E00E941C0685E591E00E94ED
:100A0000CB0380915B0190915C01449734F481E0C9
:100A100090E090937F0180937E0180917C01909182
:100A20007D01049741F410927B0110927A0182E5D6
:100A300091E00E948B0E80917A0190917B01813030
:100A40009105C1F1823091051CF4892B49F095C0C4
:100A50008230910509F44BC0039709F08EC070C035
:100A600080917C0190917D01009709F486C00E94DD
:100A7000800480917C0190917D01049791F081E048
:100A800090E090937B0180937A0182E591E00E944F
:100A9000F70E882331F482E591E06AE070E00E946D
:100AA000061010927D0110927C0110927F0110922D
:100AB0007E0163C080917E0190917F01019749F48E
:100AC0000E94710482E090E090937B0180937A0110
:100AD00009C080917C0190917D01009709F44DC07F
:100AE0000E94800410927D0110927C0146C087E331
:100AF00090E061E00E9447046CE271E080E090E0E9
:100B00000E940E110E94710420E030E080915D018E
:100B100090915E01039714F421E030E0C90167E38E
:100B200070E00E9419048AE590E090935A01809346
:100B3000590183E090E090937B0180937A011DC07E
:100B400080915B0190915C014A97BCF081E090E05C
:100B500090937B0180937A0110927F0110927E0125
:100B600088E290E090935A01809359010E947104A9
:100B700086E490E060E00E9447041F910F91FF908F
:100B8000EF90DF90CF900895DF92EF92FF920F9356
:100B90001F93CF93DF93EC01882777FD8095982FE3
:100BA0000E9453187B018C0120E030E040E45FE3B9
:100BB0000E94071920E030E048E452E40E94B81790
:100BC0000E942018C617D70714F4DD241CC0DD24AA
:100BD000C801B70120E030E040EA5FE30E94071956
:100BE00020E030E048E452E40E94B81720E030E012
:100BF00040E85FE30E9450170E9420186C177D07A1
:100C000014F0DD24D3948D2D90E0DF91CF911F91CE
:100C10000F91FF90EF90DF9008956C597F4F0E94E5
:100C2000C4050895645670400E94C40508956093F9
:100C3000800110928201089582E0809381011092D8
:100C40004D020895AF92BF92CF92DF92EF92FF9242
:100C50000F931F93CF93DF936B01DB011A96CD9116
:100C6000DC911B978A819B8168E273E20E940D06EA
:100C7000892B09F480C080914D02843009F08CC02A
:100C80008C819D816AEC78E00E941206892B09F420
:100C900083C08E819F8160E372E00E940D06892BE4
:100CA00009F47AC0F601118610868FEF9FEFAFEF3F
:100CB000BFEF84839583A683B78381E090E091831F
:100CC000808354C08C819D8164E971E10E94120689
:100CD000892B09F450C02696EE24FF24870123E0D7
:100CE000A22EB12C8881998160E372E00E940D06EA
:100CF000892B09F440C08A819B8160E476E00E94E0
:100D00001206892B69F0EE0CFF1C001F111F81E0F9
:100D100090E0A0E0B0E0E82AF92A0A2B1B2B0CC0D7
:100D20008A819B8160E372E00E941206892B19F18F
:100D3000EE0CFF1C001F111F249691E4A916B104AC
:100D400029F0A2E0B0E0AA0EBB1ECCCF80E290E07A
:100D5000F60191878087D6011496ED92FD920D934E
:100D60001C93179781E090E08D939C9321E030E0F5
:100D700040E050E004C020E030E040E050E0B90145
:100D8000CA01DF91CF911F910F91FF90EF90DF90FB
:100D9000CF90BF90AF90089580914D02843458F366
:100DA00091CFAF92BF92CF92DF92EF92FF920F93CB
:100DB0001F93CF93DF936B0180914D028A3108F42A
:100DC00080C0DB011A96CD91DC911B9788819981B7
:100DD000845F914080F4FB01118610868FEF9FEFB6
:100DE000AFEFBFEF84839583A683B78389E090E05C
:100DF0009183808361C08A819B8160E679E00E9453
:100E00000D06892B09F45DC02696EE24FF24870188
:100E100062E0A62EB12C30C022978881998122965B
:100E200068E572E00E941206892B79F18881998128
:100E300060EB74E00E940D06892B69F0EE0CFF1C3C
:100E4000001F111F81E090E0A0E0B0E0E82AF92A3D
:100E50000A2B1B2B0CC08881998168E572E00E94E7
:100E60000D06892B71F1EE0CFF1C001F111FA2E073
:100E7000B0E0AA0EBB1E249680914D0295012F5F13
:100E80003F4F90E0281739073CF2C501019795952F
:100E90008795F601918780870C971CF41186108640
:100EA00010C0D6011496ED92FD920D931C931797E6
:100EB00082E090E08D939C9321E030E040E050E0B0
:100EC00004C020E030E040E050E0B901CA01DF9109
:100ED000CF911F910F91FF90EF90DF90CF90BF9037
:100EE000AF900895AF92BF92CF92DF92EF92FF92B0
:100EF0000F931F93CF93DF936B0180914D028A3143
:100F000008F489C0DB011A96CD91DC911B9788818A
:100F100099818052934080F4FB01118610868FEFF7
:100F20009FEFAFEFBFEF84839583A683B78389E0FC
:100F300090E0918380836AC08A819B816CEA7DE026
:100F40000E940D06892B09F466C08C819D816CEA94
:100F50007DE00E940D06892B09F45DC02896EE24E1
:100F6000FF248701A3E0AA2EB12C30C022978881EC
:100F70009981229666EB73E00E941206892B79F123
:100F80008881998160E679E00E940D06892B69F0DD
:100F9000EE0CFF1C001F111F81E090E0A0E0B0E00C
:100FA000E82AF92A0A2B1B2B0CC0888199816CEB4B
:100FB00072E00E940D06892B71F1EE0CFF1C001FE0
:100FC000111FA2E0B0E0AA0EBB1E249680914D0234
:100FD00095012F5F3F4F90E0281739073CF2C5017C
:100FE000019795958795F601918780870C971CF45A
:100FF0001186108610C0D6011496ED92FD920D93C5
:101000001C93179789E090E08D939C9321E030E04A
:1010100040E050E004C020E030E040E050E0B901A2
:10102000CA01DF91CF911F910F91FF90EF90DF9058
:10103000CF90BF90AF9008956F927F928F929F92C2
:10104000AF92BF92CF92DF92EF92FF920F931F93D6
:10105000CF93DF934B0180914D02823208F47AC026
:10106000DB011A96CD91DC911B978A819B816EE5FD
:1010700071E00E940D06892B09F46CC036E0A32EA6
:10108000B12CAC0EBD1EEE24FF24870122E0C22E3F
:10109000D12C37C0E5012297888199816EE977E0EC
:1010A0000E940D06892B69F0EE0CFF1C001F111F1A
:1010B00081E090E0A0E0B0E0E82AF92A0A2B1B2B9F
:1010C0000DC0888199816EEE72E00E940D06892B19
:1010D00009F440C0EE0CFF1C001F111FD5018D91BB
:1010E0009C916EE571E00E941206E4E0F0E0AE0E25
:1010F000BF1E892B11F463010FC022E030E0C20E45
:10110000D31E36010894611C711C80914D0290E041
:10111000681679060CF4BECFC601019795958795A0
:10112000D40119969C938E93189740972CF4199696
:101130001C921E9218970EC0F401E482F582068379
:1011400017838AE090E09183808321E030E040E0E3
:1011500050E004C020E030E040E050E0B901CA01B6
:10116000DF91CF911F910F91FF90EF90DF90CF9083
:10117000BF90AF909F908F907F906F9008956F92E7
:101180007F928F929F92AF92BF92CF92DF92EF9217
:10119000FF920F931F93CF93DF93FB013A01590105
:1011A0006801DA012D913C918485958528173907CE
:1011B00024F071E0E72EF12C56C0C901880F991F69
:1011C0000284F385E02DE80FF91F80819181982E2C
:1011D000892E20FD06C00CE91FEF51E0E52EF12C11
:1011E00004C004E610E0EE24FF24B8016C0D7D1D60
:1011F000892D982D0E94C405892B19F021E030E03B
:1012000020C0E601CC0FDD1FB8016C0F7D1F892DBA
:10121000982D0E94C405892B19F022E030E011C0FE
:10122000CC0DDD1D0C0F1D1F892D982DB8010E94BE
:10123000C405892B21F4EE24EA94FE2C14C023E08B
:1012400030E0F5018081918101969183808382173E
:1012500093074CF011821082D3018D919C911197CC
:1012600001968D939C93C701DF91CF911F910F91B0
:10127000FF90EF90DF90CF90BF90AF909F908F90B6
:101280007F906F9008952F923F924F925F926F924E
:101290007F928F929F92AF92BF92CF92DF92EF9206
:1012A000FF920F931F93DF93CF9300D000D000D015
:1012B000CDB7DEB71C015B0180914D028D3008F483
:1012C0007EC081E090E09A8389831C821B82A3E028
:1012D0008A2E912C8C0E9D1EC1012E010894411C5A
:1012E000511CA201940109E713E00E94BF08892B59
:1012F00009F065C0C101B501A20194010E94BF08B7
:10130000019709F05CC0C101B501A20194010E94DE
:10131000BF08892B09F053C0CC24DD247601662454
:101320007724C4018D829E832FC0C101B501A20123
:101330002D813E8109E713E00E94BF084C01C101E5
:10134000B501A2012D813E810E94BF0821E08216D5
:10135000910479F4892B99F5CC0CDD1CEE1CFF1C53
:1013600081E090E0A0E0B0E0C82AD92AEA2AFB2A6E
:1013700008C0892821F5019711F5CC0CDD1CEE1C65
:10138000FF1C0894611C711C80914D0290E0298122
:101390003A81281739074CF2D50119967C926E9242
:1013A0001897F501C482D582E682F78283E090E047
:1013B0009183808321E030E040E050E004C020E0F1
:1013C00030E040E050E0B901CA0126960FB6F8942B
:1013D000DEBF0FBECDBFCF91DF911F910F91FF9068
:1013E000EF90DF90CF90BF90AF909F908F907F90C5
:1013F0006F905F904F903F902F9008952F923F9263
:101400004F925F926F927F928F929F92AF92BF9214
:10141000CF92DF92EF92FF920F931F93DF93CF93C0
:10142000CDB7DEB728970FB6F894DEBF0FBECDBF9D
:101430001C014B01DB011C968D919C911D97181688
:1014400019060CF0C4C081E090E09A8389831A9653
:101450000D911C911B97F801828193816AE67AE0D5
:101460000E940D06892B09F4B2C082E090E09A83B5
:101470008983D80114968D919C91159769E773E043
:101480000E941206892B09F4A2C083E090E09A839F
:1014900089831C821B8203E0A02EB12CAC0EBD1EE2
:1014A000C101B4013E010894611C711CA3019501A6
:1014B0000CEB11E00E94BF08892B09F088C0C10124
:1014C000B401A30195010E94BF08019709F07FC0F4
:1014D000CC24DD24760144245524C501AD829E83AD
:1014E000C3016F82988756C0C101B4014F815885EE
:1014F0002D813E810CEB11E00E94BF083C01B3E05E
:101500004B16510461F4C101B4014F8158852D81FE
:101510003E810E94BF086816790609F058C0C101D3
:10152000B4014F8158852D813E810CEB11E00E9462
:10153000BF085C01E3E04E16510459F4C101B40147
:101540004F8158852D813E810E94BF08A816B9069B
:10155000F1F56114710489F4F1E0AF16B104B9F545
:10156000CC0CDD1CEE1CFF1C81E090E0A0E0B0E0A4
:10157000C82AD92AEA2AFB2A0AC091E0691671040E
:1015800031F5AB2821F5CC0CDD1CEE1CFF1C0894BA
:10159000411C511C29813A81D4011C968D919C914A
:1015A0001D97281739070CF49FCF19965C924E921D
:1015B0001897F401C482D582E682F78284E090E035
:1015C0009183808321E030E040E050E004C020E0DF
:1015D00030E040E050E0B901CA0128960FB6F89417
:1015E000DEBF0FBECDBFCF91DF911F910F91FF9056
:1015F000EF90DF90CF90BF90AF909F908F907F90B3
:101600006F905F904F903F902F9008956F927F92D0
:101610008F929F92AF92BF92CF92DF92EF92FF9202
:101620000F931F93CF93DF937B01FB01C285D3857B
:101630008A819B816EEA7DE00E940D06892B09F468
:1016400074C08C819D8166ED76E00E940D06892B29
:1016500009F46BC0269600E010E0DD24CC24992428
:1016600088247724662483E0A82EB12C8881998170
:1016700066EF71E00E940D06892B09F456C08A813D
:101680009B816CED74E00E941206892B69F0980131
:101690004D2D5C2D692D782D872D962D01E00E9412
:1016A0000C01022F016013C08A819B8160E971E007
:1016B0000E941206892BC9F198014D2D5C2D692DD0
:1016C000782D872D962D01E00E940C01022F132FFB
:1016D000D42EC52E962E872E782E692E2496F1E6CE
:1016E000AF16B10429F082E090E0A80EB91EBECF7B
:1016F000C801F70104839583468357839801872D9A
:10170000962D00E20E948D00C901F7012283938388
:1017100087E090E09183808380E390E091878087E9
:1017200021E030E040E050E004C020E030E040E064
:1017300050E0B901CA01DF91CF911F910F91FF9045
:10174000EF90DF90CF90BF90AF909F908F907F9061
:101750006F9008958F929F92AF92BF92CF92DF9237
:10176000EF92FF920F931F93CF93DF936B018091C2
:101770004D02823209F0B2C0DB011A96CD91DC91A4
:101780001B978A819B8168E572E00E940D06892B78
:1017900009F4A4C080914D0221E030E0281B3109FA
:1017A000220F331FC21BD30B8881998168E572E039
:1017B0000E940D06892B09F491C0F601118610864E
:1017C0008FEF9FEFAFEFBFEF84839583A683B7833F
:1017D00088E090E09183808369C080914D028132DE
:1017E00008F469C0D50114968D919C91159760EA13
:1017F0007FE00E941206892B09F45DC0E501269660
:10180000EE24FF24870133E0832E912C8881998177
:1018100068E572E00E940D06892B09F44CC08A81AC
:101820009B8160E476E00E941206892B69F0EE0C41
:10183000FF1C001F111F81E090E0A0E0B0E0E82A4B
:10184000F92A0A2B1B2B0CC08A819B8166E272E06D
:101850000E941206892B79F1EE0CFF1C001F111F4C
:10186000A2E0B0E08A0E9B1E2496B3E28B16910490
:1018700069F6E6E4F0E0AE0EBF1ED5018D919C91B5
:1018800068E572E00E940D06892BA9F080E190E0E6
:10189000F60191878087D6011496ED92FD920D9303
:1018A0001C93179788E090E08D939C9321E030E0A3
:1018B00040E050E004C020E030E040E050E0B901FA
:1018C000CA01DF91CF911F910F91FF90EF90DF90B0
:1018D000CF90BF90AF909F908F900895F601A28413
:1018E000B384D50112968D919C91139760E47FE1AA
:1018F0000E940D06892B09F070CFDDCF2F923F9209
:101900004F925F926F927F928F929F92AF92BF920F
:10191000CF92DF92EF92FF920F931F93DF93CF93BB
:1019200000D0CDB7DEB71B01FB01848595858630DD
:1019300091052CF420E030E040E050E081C0F5EC6F
:10194000AF2EFDE9BF2EFCE1CF2EF1E8DF2EE6E061
:101950004E2E512C9C01220F331F3A83298359C0EC
:10196000F101A285B385F2013497EA0FFB1FE080F5
:10197000F180A40DB51D6D917C9180E090E00E94F6
:1019800051183B014C0100E010E0C801B7010E9472
:1019900051187B018C012DEC3CEC4CE45FE30E9480
:1019A00007199B01AC01C401B3010E94B41788233D
:1019B0001CF400E010E018C0C401B3012DEC3CECB5
:1019C0004CE45FE30E9407199B01AC01C801B70119
:1019D0000E94B417082F112707FD10950027110F3B
:1019E000001F11270F5F1F4FC601B50123E931E02A
:1019F00040E051E00E946A195801CC24B7FCC09421
:101A0000DC2CA626B726C826D92622E030E0420ED6
:101A1000531E89819A814816590609F0A1CFF10118
:101A2000A482B582C682D78280E290E091878087C7
:101A30008FEF9FEF9183808321E030E040E050E022
:101A4000B901CA010F900F90CF91DF911F910F91B3
:101A5000FF90EF90DF90CF90BF90AF909F908F90CE
:101A60007F906F905F904F903F902F9008950F93CD
:101A70001F93CF93DF938C01EB0185E891E09B8767
:101A80008A8780914D028C871D86809181018530E7
:101A900009F057C0C8010E94220661157105810531
:101AA000910509F051C0C801BE010E94D10661151F
:101AB00071058105910509F047C0C801BE010E946A
:101AC00072076115710581059105F1F5C801BE0127
:101AD0000E941C086115710581059105A9F5C801D1
:101AE000BE010E944309611571058105910561F5EB
:101AF000C801BE010E94FE096115710581059105AD
:101B000019F5C801BE010E94060B6115710581051A
:101B10009105D1F4C801BE010E94AA0B611571059F
:101B20008105910589F4C801BE010E947E0C6115F2
:101B300071058105910541F482E080938101109245
:101B40004D0220E030E002C021E030E0C901DF9129
:101B5000CF911F910F910895809180010E9495125D
:101B6000482F809183019091840101969093840184
:101B70008093830180914D02843618F085E0809334
:101B80008101809181018330D1F0843020F4823052
:101B900009F059C006C0843071F1853009F053C096
:101BA0004CC0442309F04FC080918301909184017F
:101BB0008436910508F443C010924D021EC0413096
:101BC00009F041C080914D02E82FF0E0209183019F
:101BD00030918401EE0FFF1FE058FE4F36832583BE
:101BE0008F5F80934D02109284011092830184E0F4
:101BF0008093810128C04423B9F480914D02E82FDD
:101C0000F0E02091830130918401EE0FFF1FE05836
:101C1000FE4F368325838F5F80934D02109284019F
:101C20001092830183E0E4CF80918301909184013D
:101C30008536910540F085E0DBCF442321F41092F6
:101C400084011092830180918201882329F044232A
:101C500011F42D9A08952D98089582E080938101C2
:101C600010924D028091800160E00E9402128CEA85
:101C70009DE008951F920F920FB60F9211242F939B
:101C80003F934F935F936F937F938F939F93AF9304
:101C9000BF93EF93FF93E0915102F091520230977E
:101CA00009F00995809184009091850020914F0260
:101CB00030915002820F931F90938B0080938A0083
:101CC000FF91EF91BF91AF919F918F917F916F9114
:101CD0005F914F913F912F910F900FBE0F901F90EA
:101CE0001895FC0180914E028C3090F480838F5FB8
:101CF00080934E02815090E0FC01EE0FFF1FE80F31
:101D0000F91FED5AFD4F88EB9BE092838183089584
:101D10008FEF80830895DC018C9190E0FC01EE0F41
:101D2000FF1FE80FF91FED5AFD4F80818F7B8083E5
:101D30008C916CE00E94891990E0AC01440F551F12
:101D4000480F591F440F551F440F551F20E030E026
:101D5000C901840F951FFC01EE0FFF1FE80FF91F4B
:101D6000ED5AFD4F808186FD05C02F5F3F4F2C301F
:101D7000310571F70895FC0120812C30B8F581817F
:101D8000992787FD909548E850E0481B590B440F70
:101D9000551F440F551F6417750784F082819927DA
:101DA00087FD909548E552E0481B590B440F551F9D
:101DB000440F551F641775070CF4AB014250504097
:101DC000CA01AA2797FDA095BA2F880F991FAA1FAD
:101DD000BB1F4FB7F89430E0F901EE0FFF1FE20F81
:101DE000F31FED5AFD4F928381834FBF0895FC018D
:101DF000808190E0FC01EE0FFF1FE80FF91FED5A04
:101E0000FD4F8081829586958695817009F081E0ED
:101E10000895CB0160E070E0440F551F661F771FE7
:101E20005093500240934F0290935202809351027C
:101E30000895AF92BF92CF92DF92EF92FF920F93ED
:101E40001F93CF93DF93EC019B0182E06032780710
:101E50000CF048C077FF03C020E030E005C0653BD0
:101E6000710514F024EB30E000D000D0B9018827D0
:101E700077FD8095982F2981332727FD3095B8E885
:101E8000AB2EB12CA21AB30AAA0CBB1CAA0CBB1C09
:101E9000CC24B7FCC094DC2CEA81FF27E7FDF09549
:101EA00028E532E02E1B3F0B220F331F220F331F7A
:101EB000442737FD4095542FEDB7FEB72183328379
:101EC0004383548320E030E040E050E0E4EBEE2E2A
:101ED000F12C012D112D0E9406179B010F900F90E0
:101EE0000F900F90CE01B9010E94BB0EDF91CF91F0
:101EF0001F910F91FF90EF90DF90CF90BF90AF9028
:101F00000895CF92DF92EF92FF921F93CF93DF93CA
:101F1000EC01162F7A01690188818C3008F06AC0C3
:101F2000862F61E00E940212888190E0FC01EE0F92
:101F3000FF1FE80FF91FED5AFD4F1F738081807C52
:101F4000812B808380E292E08E199F0964E070E02B
:101F50000E94A919698380E699E08C199D0964E0C3
:101F600070E00E94A9196A83A8818A2F6CE00E9400
:101F70008919682F70E0AB01440F551F460F571F9A
:101F8000440F551F440F551F20E030E0C901840F56
:101F9000951FFC01EE0FFF1FE80FF91FED5AFD4FD3
:101FA000808186FD1BC02F5F3F4F2C30310571F7BC
:101FB0002AC01092800082E08093810010928500F8
:101FC00010928400B19A80916F00826080936F00BC
:101FD000B29A80916F00846080936F008A2F90E0A6
:101FE000FC01EE0FFF1FE80FF91FED5AFD4F808136
:101FF000806480838881DF91CF911F91FF90EF9063
:10200000DF90CF900895672BA1F2E8CF40E252E035
:1020100020E639E00E94810F08951F920F920FB6BB
:102020000F9211242F933F934F935F936F937F935E
:102030008F939F93AF93BF93EF93FF93809177021A
:1020400087FD2BC020917702332727FD30958091A3
:102050004E0290E02817390704F5809177029927FE
:1020600087FD9095FC01EE0FFF1FE80FF91FED5A59
:10207000FD4F808186FF11C080917702992787FDEF
:102080009095FC01EE0FFF1FE80FF91FED5AFD4F71
:1020900080818F7360E00E944112809177028F5F90
:1020A0008093770220917702332727FD3095809126
:1020B0004E0290E0281739070CF04EC0809177024D
:1020C0008C300CF049C020918400309185008091C3
:1020D0007702992787FD9095FC01EE0FFF1FE80F0F
:1020E000F91FED5AFD4F81819281280F391F3093DE
:1020F00089002093880080917702992787FD909529
:10210000FC01EE0FFF1FE80FF91FED5AFD4F808114
:1021100086FF2BC080917702992787FD9095FC015F
:10212000EE0FFF1FE80FF91FED5AFD4F80818F73EF
:1021300061E00E94411219C080E49CE905C08091D1
:102140008400909185000496909389008093880084
:102150008FEF8093770209C0809184009091850071
:10216000049680549C4940F3EACFFF91EF91BF91D0
:10217000AF919F918F917F916F915F914F913F911F
:102180002F910F900FBE0F901F9018951F920F92D6
:102190000FB60F9211242F933F938F939F93AF937A
:1021A000BF9380917C0290917D02A0917E02B091BC
:1021B0007F02309180020196A11DB11D232F2D5F5A
:1021C0002D3720F02D570196A11DB11D20938002BF
:1021D00080937C0290937D02A0937E02B0937F0255
:1021E0008091780290917902A0917A02B0917B025D
:1021F0000196A11DB11D8093780290937902A0935E
:102200007A02B0937B02BF91AF919F918F913F91E2
:102210002F910F900FBE0F901F9018959B01AC014E
:102220007FB7F8948091780290917902A0917A0218
:10223000B0917B0266B5A89B05C06F3F19F001966F
:10224000A11DB11D7FBFBA2FA92F982F8827860FF8
:10225000911DA11DB11D62E0880F991FAA1FBB1F10
:102260006A95D1F7BC012DC0FFB7F8948091780230
:1022700090917902A0917A02B0917B02E6B5A89B79
:1022800005C0EF3F19F00196A11DB11DFFBFBA2F88
:10229000A92F982F88278E0F911DA11DB11DE2E057
:1022A000880F991FAA1FBB1FEA95D1F7861B970BB2
:1022B000885E9340C8F22150304040405040685101
:1022C0007C4F211531054105510571F6089578942B
:1022D00084B5826084BD84B5816084BD85B582602B
:1022E00085BD85B5816085BDEEE6F0E080818160C9
:1022F0008083E1E8F0E010828081826080838081C9
:1023000081608083E0E8F0E0808181608083E1EBA0
:10231000F0E0808184608083E0EBF0E08081816088
:102320008083EAE7F0E0808184608083808182603E
:102330008083808181608083808180688083109227
:10234000C10008951F93CF93DF93182FEB0161E035
:102350000E940212209709F44AC0CF3FD10509F428
:1023600049C0E12FF0E0E255FF4F84918330C1F086
:10237000843028F4813051F08230B1F50CC08630C1
:1023800019F1873049F1843079F514C084B580683B
:1023900084BDC7BD33C084B5806284BDC8BD2EC0B6
:1023A00080918000806880938000D0938900C093E2
:1023B000880024C080918000806280938000D09348
:1023C0008B00C0938A001AC08091B000806880930F
:1023D000B000C093B30012C08091B00080628093BF
:1023E000B000C093B4000AC0C038D1051CF4812FDE
:1023F00060E002C0812F61E00E944112DF91CF9125
:102400001F910895CF93DF93482F50E0CA0186565D
:102410009F4FFC0134914A575F4FFA018491882302
:1024200069F190E0880F991FFC01E859FF4FA591D1
:10243000B491FC01EE58FF4FC591D491662351F43D
:102440002FB7F8948C91932F909589238C93888142
:1024500089230BC0623061F42FB7F8948C91932FCD
:10246000909589238C938881832B88832FBF06C006
:102470009FB7F8948C91832B8C939FBFDF91CF9162
:102480000895482F50E0CA0182559F4FFC012491C6
:10249000CA0186569F4FFC0194914A575F4FFA013B
:1024A0003491332309F440C0222351F1233071F0D9
:1024B000243028F42130A1F0223011F514C0263048
:1024C000B1F02730C1F02430D9F404C080918000ED
:1024D0008F7703C0809180008F7D8093800010C033
:1024E00084B58F7702C084B58F7D84BD09C080918B
:1024F000B0008F7703C08091B0008F7D8093B000D3
:10250000E32FF0E0EE0FFF1FEE58FF4FA591B491BF
:102510002FB7F894662321F48C919095892302C0FB
:102520008C91892B8C932FBF0895682F70E0CB017D
:1025300082559F4FFC012491CB0186569F4FFC0191
:1025400044916A577F4FFB019491992319F420E03D
:1025500030E03CC0222351F1233071F0243028F4C4
:102560002130A1F0223011F514C02630B1F027300F
:10257000C1F02430D9F404C0809180008F7703C06B
:10258000809180008F7D8093800010C084B58F770C
:1025900002C084B58F7D84BD09C08091B0008F7763
:1025A00003C08091B0008F7D8093B000892F90E0B0
:1025B000880F991F84589F4FFC01A591B4918C916D
:1025C00020E030E0842311F021E030E0C9010895DB
:1025D0008F929F92AF92BF92CF92DF92EF92FF9233
:1025E0000F931F93CF93DF93A82FB0E0CD018656B2
:1025F0009F4FFC018490AA57BF4FFD018491662331
:1026000011F4992401C0982C6FEFA62E6FEFB62E0F
:102610006FEFC62E6FE0D62EA222B322C422D5229F
:10262000682F70E0660F771F64587F4FEE24FF24F9
:102630008701FB01A591B4910BC0EA14FB040C05C2
:102640001D0509F44EC00894E11CF11C011D111D6B
:102650008C918821891589F30CC0EA14FB040C05C0
:102660001D0509F43EC00894E11CF11C011D111D5B
:1026700003C0FB01A591B4918C918821891569F75C
:1026800020E030E040E050E0FB01C591D4910FC064
:10269000DA01C9018E0D9F1DA01FB11F8A159B0570
:1026A000AC05BD05F1F02F5F3F4F4F4F5F4F888165
:1026B0008821891569F3CA01B90125E130E040E0BC
:1026C00050E00E946A199B01AC01205F3F4F4F4FC1
:1026D0005F4F84E056954795379527958A95D1F7B2
:1026E00004C020E030E040E050E0B901CA01DF91D1
:1026F000CF911F910F91FF90EF90DF90CF90BF90FF
:10270000AF909F908F90089508951F920F920FB6EB
:102710000F9211242F933F934F938F939F93EF9397
:10272000FF938091C00082FD1DC04091C6002091A2
:10273000C1023091C2022F5F3F4F2F7330708091E2
:10274000C3029091C4022817390771F0E091C102C9
:10275000F091C202EF57FD4F40833093C2022093A5
:10276000C10202C08091C600FF91EF919F918F91AD
:102770004F913F912F910F900FBE0F901F90189582
:10278000E0911503F0911603E05CFF4F8191919168
:1027900020813181821B930B8F739070892B11F0F4
:1027A0000E94841308951F920F920FB60F92112466
:1027B0002F933F938F939F93EF93FF932091050364
:1027C0003091060380910703909108032817390779
:1027D00031F48091C1008F7D8093C10014C0E091DD
:1027E0000703F0910803EB53FD4F2081809107030D
:1027F0009091080301968F739070909308038093D3
:1028000007032093C600FF91EF919F918F913F9115
:102810002F910F900FBE0F901F901895AF92BF92FF
:10282000DF92EF92FF920F931F93CF93DF93EC0110
:102830007A018B01DD24403081EE580780E0680783
:1028400080E0780711F0DD24D39491E0A92EB12C1B
:10285000EC89FD89DD2069F0C50108A002C0880F60
:10286000991F0A94E2F7808360E079E08DE390E0BD
:1028700005C0108260E874E88EE190E0A80197013D
:102880000E94BC1921503040404050405695479519
:102890003795279580E12030380720F0DD2011F0B2
:1028A000DD24D6CFE889F9893083EA89FB89208342
:1028B00019A2EE89FF89408121E030E0C9010C8C2A
:1028C00002C0880F991F0A94E2F7482B4083EE89D3
:1028D000FF894081C9010D8C02C0880F991F0A949D
:1028E000E2F7482B4083EE89FF894081C9010E8CB5
:1028F00002C0880F991F0A94E2F7482B4083EE89A3
:10290000FF8980810F8C02C0220F331F0A94E2F7E7
:10291000209528232083DF91CF911F910F91FF9065
:10292000EF90DF90BF90AF900895DC011C96ED9181
:10293000FC911D97E05CFF4F219131918081918145
:10294000281B390B2F733070C9010895DC011C96C8
:10295000ED91FC911D97E05CFF4F20813181E054A7
:10296000F040DF01AE5BBF4F8D919C91119728170E
:10297000390719F42FEF3FEF07C08D919C91E80FB5
:10298000F91F8081282F30E0C9010895DC011C96D1
:10299000ED91FC911D97E05CFF4F20813181E05467
:1029A000F040DF01AE5BBF4F8D919C9111972817CE
:1029B000390719F42FEF3FEF10C08D919C911197BB
:1029C000E80FF91F20818D919C91119701968F73CB
:1029D000907011969C938E9330E0C9010895DC01AC
:1029E00091968C919197882339F05496ED91FC91B2
:1029F0005597808186FFF9CF91961C920895CF93C9
:102A0000DF93EC01EE85FF85E05CFF4F2081318193
:102A1000E054F0402F5F3F4F2F733070DF01AE5B0B
:102A2000BF4F8D919C91119728173907D1F3E05C26
:102A3000FF4F80819181E054F040E80FF91F6083DF
:102A4000EE85FF85E05CFF4F31832083EE89FF89AF
:102A5000208181E090E00F8C02C0880F991F0A94BA
:102A6000E2F7282B208381E089A3EC89FD8980810E
:102A70008064808381E090E0DF91CF91089510928F
:102A80000C0310920B0388EE93E0A0E0B0E080937B
:102A90000D0390930E03A0930F03B093100385E4EE
:102AA00091E090930A038093090381E892E0909368
:102AB00016038093150385EC92E09093180380939E
:102AC000170385EC90E090931A038093190384EC2C
:102AD00090E090931C0380931B0380EC90E0909314
:102AE0001E0380931D0381EC90E09093200380935C
:102AF0001F0382EC90E0909322038093210386ECE5
:102B000090E0909324038093230384E08093250333
:102B100083E08093260387E08093270385E08093FA
:102B2000280381E0809329030895CF93DF930E94C7
:102B300067110E94F301C0ECD3E10E94A904209721
:102B4000E1F30E94C013F9CFCF92DF92EF92FF9290
:102B50000F931F93CF93DF937C016B018A01C0E039
:102B6000D0E00FC0D6016D916D01D701ED91FC91C0
:102B70000190F081E02DC7010995C80FD91F0150C0
:102B800010400115110571F7CE01DF91CF911F9112
:102B90000F91FF90EF90DF90CF900895EF92FF920A
:102BA0000F931F938C01DC01ED91FC910190F0815A
:102BB000E02D6DE009957C01D801ED91FC9101902B
:102BC000F081E02DC8016AE009959C012E0D3F1DA2
:102BD000C9011F910F91FF90EF900895CF93DF935C
:102BE000EC016115710519F420E030E00FC0DB0144
:102BF0000D900020E9F71197A61BB70BE881F9812A
:102C00000280F381E02DAD0109959C01C901DF919E
:102C1000CF9108954F925F927F928F929F92AF9241
:102C2000BF92CF92DF92EF92FF920F931F93DF93A9
:102C3000CF93CDB7DEB7A1970FB6F894DEBF0FBE26
:102C4000CDBF2C01742ECB01223008F42AE019A24A
:102C500031E2C32ED12CCC0EDD1E822E9924AA2463
:102C6000BB24672D752FA50194010E94BC19790121
:102C70008A01C801B701A50194010E946A19472D74
:102C8000461B0894C108D1084A3014F4405D01C0C5
:102C9000495CF6014083E114F1040105110521F0BE
:102CA0007E2C5F2DC801DDCFC201B6010E94EE155A
:102CB000A1960FB6F894DEBF0FBECDBFCF91DF91C6
:102CC0001F910F91FF90EF90DF90CF90BF90AF904A
:102CD0009F908F907F905F904F900895DC01211519
:102CE000310541F4ED91FC910190F081E02D642FCC
:102CF000099508950E940A160895EF92FF920F9386
:102D00001F937C010E946E168C01C7010E94CE1594
:102D10009C01200F311FC9011F910F91FF90EF906F
:102D20000895CF92DF92EF92FF920F931F93CF936C
:102D3000DF93EC016A017B012115310541F4E88143
:102D4000F9810190F081E02D642F09951FC02A3090
:102D50003105D1F477FF17C0E881F9810190F08146
:102D6000E02D6DE209958C0144275527BA014C19D5
:102D70005D096E097F09CE012AE00E940A169801BA
:102D8000280F391F04C02AE00E940A169C01C901BD
:102D9000DF91CF911F910F91FF90EF90DF90CF9037
:102DA0000895CF92DF92EF92FF920F931F936C01E1
:102DB0007B019A010027F7FC0095102FB801A701AD
:102DC0000E9491168C01C6010E94CE15080F191F92
:102DD000C8011F910F91FF90EF90DF90CF90089561
:102DE0000E94EE150895EF92FF920F931F937C01BE
:102DF0000E94EE158C01C7010E94CE15080F191F05
:102E0000C8011F910F91FF90EF9008952F923F926C
:102E10004F925F926F927F928F929F92AF92BF92EA
:102E2000CF92DF92EF92FF920F931F93DF93CF9396
:102E3000CDB7DEB73B014C0119012A016D897E89AE
:102E40008F89988D6A197B098C099D09621A730A0A
:102E5000840A950AA40193010E946A19E218F308F2
:102E600004091509A80197010E94DE192A0D3B1DCE
:102E70004C1D5D1DB901CA01CF91DF911F910F91CA
:102E8000FF90EF90DF90CF90BF90AF909F908F908A
:102E90007F906F905F904F903F902F900895505883
:102EA000BB27AA270ED075C166D130F06BD120F0B8
:102EB00031F49F3F11F41EF45BC10EF4E095E7FB83
:102EC00051C1E92F77D180F3BA17620773078407DE
:102ED000950718F071F49EF58FC10EF4E0950B2E56
:102EE000BA2FA02D0B01B90190010C01CA01A0015C
:102EF0001124FF27591B99F0593F50F4503E68F1B7
:102F00001A16F040A22F232F342F4427585FF3CFF7
:102F1000469537952795A795F0405395C9F77EF4C8
:102F20001F16BA0B620B730B840BBAF09150A1F011
:102F3000FF0FBB1F661F771F881FC2F70EC0BA0F97
:102F4000621F731F841F48F4879577956795B7951F
:102F5000F7959E3F08F0B3CF9395880F08F0992717
:102F6000EE0F979587950895D9D008F481E00895DC
:102F70000CD00FC107D140F0FED030F021F45F3FFC
:102F800019F0F0C0511139C1F3C014D198F399234D
:102F9000C9F35523B1F3951B550BBB27AA2762171D
:102FA0007307840738F09F5F5F4F220F331F441F62
:102FB000AA1FA9F333D00E2E3AF0E0E830D091509A
:102FC0005040E695001CCAF729D0FE2F27D0660F87
:102FD000771F881FBB1F261737074807AB07B0E8C6
:102FE00009F0BB0B802DBF01FF2793585F4F2AF0DC
:102FF0009E3F510568F0B6C000C15F3FECF3983EBC
:10300000DCF3869577956795B795F7959F5FC9F738
:10301000880F911D9695879597F90895E1E0660FC1
:10302000771F881FBB1F621773078407BA0720F03A
:10303000621B730B840BBA0BEE1F88F7E0950895A3
:1030400004D06894B111D9C00895BCD088F09F57BE
:1030500090F0B92F9927B751A0F0D1F0660F771FE4
:10306000881F991F1AF0BA95C9F712C0B13081F0C4
:10307000C3D0B1E00895C0C0672F782F8827B85F0C
:1030800039F0B93FCCF3869577956795B395D9F725
:103090003EF490958095709561957F4F8F4F9F4F2F
:1030A0000895E89409C097FB3EF49095809570953B
:1030B00061957F4F8F4F9F4F9923A9F0F92F96E984
:1030C000BB279395F695879577956795B795F111F9
:1030D000F8CFFAF4BB0F11F460FF1BC06F5F7F4F96
:1030E0008F4F9F4F16C0882311F096E911C07723A8
:1030F00021F09EE8872F762F05C0662371F096E8B1
:10310000862F70E060E02AF09A95660F771F881F7F
:10311000DAF7880F9695879597F90895990F000823
:10312000550FAA0BE0E8FEEF16161706E807F90799
:10313000C0F012161306E407F50798F0621B730B34
:10314000840B950B39F40A2661F0232B242B252BB5
:1031500021F408950A2609F4A140A6958FEF811D58
:10316000811D089597F99F6780E870E060E00895F9
:103170009FEF80EC089500240A941616170618068F
:103180000906089500240A9412161306140605066B
:103190000895092E0394000C11F4882352F0BB0FFC
:1031A00040F4BF2B11F460FF04C06F5F7F4F8F4F5F
:1031B0009F4F089557FD9058440F551F59F05F3F9A
:1031C00071F04795880F97FB991F61F09F3F79F049
:1031D00087950895121613061406551FF2CF4695CB
:1031E000F1DF08C0161617061806991FF1CF86954D
:1031F0007105610508940895E894BB276627772731
:10320000CB0197F908958ADF08F48FEF08950BD06A
:10321000C0CFB1DF28F0B6DF18F0952309F0A2CFB8
:10322000A7CF1124EACFC6DFA0F3959FD1F3950F66
:1032300050E0551F629FF001729FBB27F00DB11D3A
:10324000639FAA27F00DB11DAA1F649F6627B00DCA
:10325000A11D661F829F2227B00DA11D621F739FB3
:10326000B00DA11D621F839FA00D611D221F749FC1
:103270003327A00D611D231F849F600D211D822F08
:10328000762F6A2F11249F5750408AF0E1F088234F
:103290004AF0EE0FFF1FBB1F661F771F881F91505C
:1032A0005040A9F79E3F510570F05CCFA6CF5F3F1D
:1032B000ECF3983EDCF3869577956795B795F7958F
:1032C000E7959F5FC1F7FE2B880F911D9695879517
:1032D00097F90895629FD001739FF001829FE00DDE
:1032E000F11D649FE00DF11D929FF00D839FF00D85
:1032F000749FF00D659FF00D9927729FB00DE11D31
:10330000F91F639FB00DE11DF91FBD01CF0111240D
:103310000895991B79E004C0991F961708F0961B31
:10332000881F7A95C9F780950895AA1BBB1B51E1A8
:1033300007C0AA1FBB1FA617B70710F0A61BB70B25
:10334000881F991F5A95A9F780959095BC01CD01CA
:10335000089597FB092E07260AD077FD04D0E5DFF4
:1033600006D000201AF4709561957F4F0895F6F706
:10337000909581959F4F0895A1E21A2EAA1BBB1B21
:10338000FD010DC0AA1FBB1FEE1FFF1FA217B30731
:10339000E407F50720F0A21BB30BE40BF50B661F47
:1033A000771F881F991F1A9469F76095709580950B
:1033B00090959B01AC01BD01CF01089597FB092EAB
:1033C00005260ED057FD04D0D7DF0AD0001C38F4F4
:1033D00050954095309521953F4F4F4F5F4F089541
:1033E000F6F790958095709561957F4F8F4F9F4F21
:1033F0000895EE0FFF1F0590F491E02D0994F894C5
:02340000FFCFFC
:10340200323730203D2000333135203D2000302D31
:10341200203D2000302B203D20003435203D20006F
:103422003930203D20004D696E2064697374616EED
:103432006365203D20004D6F746F722073746F704E
:103442000000000000FF14A4159514C614A614EF82
:02345200140064
:00000001FF
