:100000000C9476010C949E010C949E010C949E011C
:100010000C949E010C949E010C949E010C949E01E4
:100020000C949E010C949E010C94601B0C94E71B95
:100030000C949E010C949E010C949E010C949E01C4
:100040000C949E010C94F4130C949E010C949E014C
:100050000C949E010C949E010C949E010C94B2147D
:100060000C949E010C949E010C949E010C949E0194
:100070000C949E010C949E010C949E010C949E0184
:100080000C949E010C949E010C949E010C949E0174
:100090000C949E010C949E010C949E010C949E0164
:1000A0000C949E010C94F40F0C949E01000000002F
:1000B000240027002A002D00300000000000250049
:1000C00028002B002E003100000000002300260035
:1000D00029002C002F000404040404030405020278
:1000E00002020403020202020606060606060404D1
:1000F00002020204040802011040804010204080E7
:10010000408008020401804020100201108010206D
:1001100040400000000200080E0000030401000B34
:1001200000000000000000000000000000000000CF
:10013000070605040100080A0B0C0D09080B000254
:10014000020201000904000001020200000524006F
:100150001001052401010104240206052406000102
:100160000705810310004009040100020A00000095
:100170000705020240000007058302400000040357
:1001800009042203410072006400750069006E00DA
:100190006F0020004C0065006F006E00610072006F
:1001A00064006F001803410072006400750069006C
:1001B0006E006F0020004C004C0043001201000252
:1001C00000000040412336800001010200011201BD
:1001D00000020200004041233680000101020001BC
:1001E00000C18081C105010902A1010901A10085A9
:1001F00001050919012903150025019503750181E0
:100200000295017505810305010930093109381589
:1002100081257F750895038106C0C005010906A1E7
:10022000018502050719E029E715002501750195EB
:10023000088102950175088103950675081500254A
:10024000650507190029658100C009040200010342
:100250000000000921010100012265000705840357
:1002600040000100000000000000002A2B280000D0
:10027000000000000000000000000000000000007E
:100280000000002C9EB4A0A1A2A434A6A7A5AE365F
:100290002D3738271E1F20212223242526B333B6CD
:1002A0002EB7B89F8485868788898A8B8C8D8E8FA0
:1002B000909192939495969798999A9B9C9D2F31A3
:1002C00030A3AD350405060708090A0B0C0D0E0F07
:1002D000101112131415161718191A1B1C1DAFB183
:1002E000B0B50000FB02B9179C1AB31D11241FBE44
:1002F000CFEFDAE0DEBFCDBF11E0A0E0B1E0ECED82
:10030000F2E402C005900D92A039B107D9F713E0CD
:10031000A0E9B1E001C01D92AA34B107E1F712E0F3
:10032000CCEED2E004C02297FE010E946821C43EB8
:10033000D107C9F70E9484180C946C210C9400001A
:10034000EF92FF920F93DF93CF93CDB7DEB7609715
:100350000FB6F894DEBF0FBECDBFA82F002309F45F
:1003600061C07E010894E11CF11C88E0F701119244
:100370008A95E9F729833A834B835C836D837E8377
:10038000AF83988780E2801BE82FFF27E7FDF09579
:100390004D815E816F817885181684F01D861E86DA
:1003A0001F86188A882799278E1B9F0B04C0769575
:1003B0006795579547958A95D2F728C0202F332700
:1003C00027FD3095DB01CA01022E04C0B695A79522
:1003D000979587950A94D2F78D879E87AF87B88BBC
:1003E00004C0440F551F661F771FEA95D2F7898115
:1003F0009A81AB81BC8104C0B695A79597958795E6
:100400002A95D2F7482B592B6A2B7B2B49875A8781
:100410006B877C8729853A854B855C856D857E85D4
:10042000AF8598898A2F60960FB6F894DEBF0FBE0D
:10043000CDBFCF91DF910F91FF90EF900895EF9294
:10044000FF920F93DF93CF93CDB7DEB760970FB6D0
:10045000F894DEBF0FBECDBFA82F002309F461C002
:100460007E010894E11CF11C88E0F70111928A9545
:10047000E9F729833A834B835C836D837E83AF8363
:10048000988780E2801BE82FFF27E7FDF0954981E0
:100490005A816B817C81181684F019861A861B8616
:1004A0001C86882799278E1B9F0B04C0440F551F5D
:1004B000661F771F8A95D2F728C0202F332727FD84
:1004C0003095DB01CA01022E04C0880F991FAA1FB4
:1004D000BB1F0A94D2F789879A87AB87BC8704C071
:1004E0007695679557954795EA95D2F78D819E81C8
:1004F000AF81B88504C0880F991FAA1FBB1F2A951A
:10050000D2F7482B592B6A2B7B2B4D875E876F8741
:10051000788B29853A854B855C856D857E85AF8591
:1005200098898A2F60960FB6F894DEBF0FBECDBFB4
:10053000CF91DF910F91FF90EF9008950F931F934C
:10054000DF93CF93CDB7DEB72E970FB6F894DEBF0B
:100550000FBECDBF0D831E832F8338878D819E8173
:10056000AF81B885863829E7920726E3A2072BE4F6
:10057000B20751F1873829E7920726E3A2072BE457
:10058000B20770F4863C29E3920726E3A2072BE426
:10059000B20701F1865A9945A643BB4409F50EC03E
:1005A000863429EB920726E3A2072BE4B20779F001
:1005B0008652994DA643BB4499F403C088E090E06D
:1005C0000BC080E190E008C084E090E005C082E0CC
:1005D00090E002C081E090E09093E2018093E1011D
:1005E0002E960FB6F894DEBF0FBECDBFCF91DF9130
:1005F0001F910F910895CF92EF920F9380E991E0B0
:100600000E94B01289EA91E067E046E024EF31E011
:100610000E949A068BEB91E062E04AE024E105E15A
:1006200056E1E52E37E1C32E0E94771280ED91E06E
:1006300064E070E00E945F080F91EF90CF90089502
:1006400086E293E060E875E20E946E178CE061E05C
:100650000E947E1683E061E00E947E1689E061E0E0
:100660000E947E168DE061E00E947E168BE061E0C4
:100670000E947E1688E061E00E947E1689E061E0BB
:100680000E940B1788E061E00E940B1780ED91E05B
:100690000E9496108BEB91E060E142E020E00E9426
:1006A000C1118AE590E090939601809395018FE0C7
:1006B00090E0909398018093970181E090E090936F
:1006C0009401809393018DE290E090939A0180933E
:1006D000990180E991E065E070E00E94ED1384EFFC
:1006E00091E09093A00180939F019093A201809349
:1006F000A1019093A4018093A3019093A6018093FC
:10070000A5019093A8018093A70190939C018093E9
:100710009B011092E0011092DF011092E201109211
:10072000E1011092E4011092E30108950F931F93E9
:100730000BEB11E0C8010E94B911C80160E040E074
:100740000E948A11C80160E071E00E94D319609193
:100750009B0170919C01C8014AE050E00E94A119E0
:100760001F910F910895EF92FF920F931F93CF93D4
:10077000DF932AE530E0281B390B442737FD4095ED
:10078000542FCA01B9010E94C01F7B018C0120E0D7
:1007900030E040E050E00E94702088230CF1C80156
:1007A000B70120E030E044EB51E40E94211F87FDB7
:1007B0003AC0C801B70120E030E044E352E40E94AF
:1007C000211F18169CF5C801B70120E030E047E86A
:1007D00052E40E94211F18164CF5C4E0D0E028C056
:1007E000C801B70120E030E044EB51EC0E947020DA
:1007F0001816CCF0C801B70120E030E044E352EC19
:100800000E947020882364F4C0E0D0E0C801B701E2
:1008100020E030E047E852EC0E947020882344F04A
:10082000C1E0D0E005C0C2E0D0E002C0C3E0D0E04B
:1008300089EA91E063E00E94890769E370E00E9421
:1008400002218B016115710511F404EF11E064E1DF
:1008500070E080E090E00E942015CC0FDD1FC156B3
:10086000DE4F1983088384EF91E090939C0180937D
:100870009B0170919D0160919E01EFE9F1E020E004
:1008800030E0408151814817590714F0AC0102C093
:10089000722F632F2F5F3F4F32962530310511F0B5
:1008A000CA01EFCF70939D0160939E0150939C010C
:1008B00040939B0186E293E06AE071E00E94D319C5
:1008C00060919F017091A00186E293E04AE050E0C0
:1008D0000E94B41986E293E061E171E00E94D319AD
:1008E0006091A1017091A20186E293E04AE050E09C
:1008F0000E94B41986E293E068E171E00E94D31986
:100900006091A3017091A40186E293E04AE050E077
:100910000E94B41986E293E06DE171E00E94D31960
:100920006091A5017091A60186E293E04AE050E053
:100930000E94B41986E293E063E271E00E94D31949
:100940006091A7017091A80186E293E04AE050E02F
:100950000E94B41986E293E069E271E00E94D31923
:1009600060919B0170919C0186E293E04AE050E027
:100970000E94B419DF91CF911F910F91FF90EF90DA
:10098000089586E293E069E371E00E94D61989E058
:1009900061E00E940B1788E061E00E940B17089548
:1009A000CF93DF93EC016A817B8186E293E04AE09A
:1009B00050E00E94B41988819981892B39F486E22C
:1009C00093E064E471E00E94D61941C08E819F815A
:1009D000865A9F4F2A813B812817390721F481EFDE
:1009E0009FEF9D838C838AE590E02E813F81821B5F
:1009F000930B2A813B812817390721F48FE090E07F
:100A00009D838C832C813D818A819B81280F391F96
:100A10003B832A836AE570E08E819F81681B790B96
:100A2000621773070CF4B9017B836A832E813F81BF
:100A3000C901875A9F4F861797071CF4B901665A58
:100A40007F4F7B836A8380E991E00E940613DF91E8
:100A5000CF9108950F931F93CF93DF93EC018B01F8
:100A60008130910571F489E061E00E940B1788E004
:100A700060E00E940B178CE061E00E940B1783E09E
:100A80000FC089E060E00E940B1788E061E00E94DF
:100A90000B17CE018095682F8DE00E940B178BE01D
:100AA000B8010E94D915DF91CF911F910F91089540
:100AB0001F93CF93DF93EC01162F89E060E00E9433
:100AC0000B1788E060E00E940B17113039F48CE0BE
:100AD00061E00E940B178DE060E006C08CE060E0F2
:100AE0000E940B178DE061E00E940B1783E0BE01AE
:100AF0000E94D9158BE0BE010E94D915DF91CF91DC
:100B00001F9108958430910519F18530910534F4D1
:100B10008130910599F00297E9F413C0883091056E
:100B200019F04097B9F404C086E490E060E003C097
:100B300086E490E061E00E945805089581E090E02D
:100B400002C080E090E066E470E00E942A0508950B
:100B50000E94C1040895CF92DF92EF92FF920F930B
:100B60001F9383E991E00E94D004809195019091B8
:100B700096010E94B30380919B0190919C01449740
:100B800034F481E090E09093E4018093E3010E94CB
:100B9000960380ED91E061ED71E00E947F0F892B5B
:100BA00011F1C090D101D090D201E090D301F0902A
:100BB000D4010091D5011091D6012091D701309137
:100BC000D8014091D9015091DA016091DB01709117
:100BD000DC018091DD019091DE010E949E0280ED9A
:100BE00091E00E9464088091DF019091E0018130E2
:100BF000910541F1823091051CF4892B49F093C095
:100C00008230910509F449C0039709F08CC06EC089
:100C10008091E1019091E201009709F484C00E9463
:100C200082058091E1019091E2010497C9F081E091
:100C300090E09093E0018093DF0190939401809382
:100C400093010EC08091E3019091E401019769F452
:100C50000E94C10482E090E09093E0018093DF0164
:100C60001092E2011092E1015EC08091E101909149
:100C7000E201009709F457C00E9482058091E101CA
:100C80009091E201049761F71092E0011092DF0168
:100C90001092940110929301E3CF8DE290E061E015
:100CA0000E9458056CE271E080E090E00E942015FF
:100CB0000E94C10420E030E080919D0190919E014E
:100CC000029714F421E030E0C9016DE270E00E9467
:100CD0002A058BE490E090939A018093990183E038
:100CE00090E09093E0018093DF011DC080919B0113
:100CF00090919C014A97BCF081E090E09093E001D4
:100D00008093DF011092E4011092E3018DE290E004
:100D100090939A01809399010E94C10486E490E027
:100D200060E00E9458051F910F91FF90EF90DF90B7
:100D3000CF900895CF93DF93EC01862F90E0FC01D4
:100D4000EC50FF4FE491EC83A42FB0E0FD01EC5098
:100D5000FF4FE491ED838A529F4FFC01449150E094
:100D6000440F551FFA01E654FF4F859194919F83DC
:100D70008E83AA52BF4FFD018491E82FF0E0EE0F61
:100D8000FF1FE853FF4F859194919B878A87FA0153
:100D9000E455FF4F8591949199878887F1E0253F2D
:100DA0003F0714F024EF31E089E390E0AC01249F89
:100DB000C001259F900D349F900D11244C969D8766
:100DC0008C87DF91CF910895CF93DF93EC01E88575
:100DD000F98580819C81892B8083EE81FF819081C0
:100DE0008C8180958923808384E090E00E9479152E
:100DF000EE81FF8180819C81892B80838AE090E055
:100E00000E947915EE81FF8190818C8180958923E4
:100E10008083E885F98590818C8180958923808302
:100E20000E94FA14605B794B8F4F9F4F6E877F87CC
:100E3000888B998BEA85FB85208130E08D8190E05D
:100E400028233923232BC9F00E94FA142E853F85CD
:100E500048895989261737074807590770F0EACF9C
:100E60000E94FA142E853F8548895989261737072D
:100E70004807590710F480E019C0EA85FB852081F6
:100E800030E08D8190E028233923232B49F30E9401
:100E9000FA142C853D8540E050E0260F371F481F8F
:100EA000591F2E873F87488B598B81E0DF91CF9167
:100EB0000895CF93DF93EC010E94E406882361F448
:100EC00022C00E94FA142E853F8548895989261729
:100ED000370748075907B8F0EA85FB85208130E0DD
:100EE0008D8190E028233923232B59F70E94FA148F
:100EF0004C855D85455050402E853F85421B530BE8
:100F0000460F571F02C040E050E0CA01DF91CF9169
:100F100008958F929F92AF92BF92CF92DF92EF92FD
:100F2000FF920F931F93DF93CF93CDB7DEB76C0182
:100F3000162FADB6BEB6862F90E0880F991F2DB73D
:100F40003EB7281B390B0FB6F8943EBF0FBE2DBF1E
:100F5000EDB6FEB60894E11CF11CEDB7FEB71282A7
:100F6000118200E05DE1852E912C3CC0C6010E94FB
:100F70005907009729F41150F6018485958525C0FD
:100F8000002311F420E018C0202F08C0AA0FBB1FB7
:100F9000AE0DBF1DED93FC93215071F0A22FB0E078
:100FA000FD013197EE0FFF1FEE0DFF1D0190F08147
:100FB000E02DE817F90750F3E22FF0E0EE0FFF1FE6
:100FC000EE0DFF1D918380830F5F011758F4892F69
:100FD000992786958695B401681B790B80E090E08F
:100FE0000E942015011710F21E7FF701E10FF11D7D
:100FF000808191810FB6F894BEBE0FBEADBECF9179
:10100000DF911F910F91FF90EF90DF90CF90BF90F5
:10101000AF909F908F900895DF92EF92FF920F9381
:101020001F93CF93DF93EC01882777FD8095982F4E
:101030000E94C01F7B018C0120E030E040E45FE3B0
:101040000E94742020E030E048E452E40E94251F12
:101050000E948D1FC617D70714F4DD241CC0DD24A1
:10106000C801B70120E030E040EA5FE30E9474204D
:1010700020E030E048E452E40E94251F20E030E008
:1010800040E85FE30E94BD1E0E948D1F6C177D0724
:1010900014F0DD24D3948D2D90E0DF91CF911F913A
:1010A0000F91FF90EF90DF9008956C597F4F0E9451
:1010B0000C080895645670400E940C0808956093CF
:1010C000E5011092E701089582E08093E601109215
:1010D000B2020895AF92BF92CF92DF92EF92FF9249
:1010E0000F931F93CF93DF936B01DB011A96CD9182
:1010F000DC911B978A819B8168E273E20E9455080C
:10110000892B09F480C08091B202843009F08CC030
:101110008C819D816AEC78E00E945A08892B09F441
:1011200083C08E819F8160E372E00E945508892B05
:1011300009F47AC0F601118610868FEF9FEFAFEFAA
:10114000BFEF84839583A683B78381E090E091838A
:10115000808354C08C819D8164E971E10E945A08AA
:10116000892B09F450C02696EE24FF24870123E042
:10117000A22EB12C8881998160E372E00E9455080B
:10118000892B09F440C08A819B8160E476E00E944B
:101190005A08892B69F0EE0CFF1C001F111F81E01B
:1011A00090E0A0E0B0E0E82AF92A0A2B1B2B0CC043
:1011B0008A819B8160E372E00E945A08892B19F1B1
:1011C000EE0CFF1C001F111F249691E4A916B10418
:1011D00029F0A2E0B0E0AA0EBB1ECCCF80E290E0E6
:1011E000F60191878087D6011496ED92FD920D93BA
:1011F0001C93179781E090E08D939C9321E030E061
:1012000040E050E004C020E030E040E050E0B901B0
:10121000CA01DF91CF911F910F91FF90EF90DF9066
:10122000CF90BF90AF9008958091B202843458F36C
:1012300091CFAF92BF92CF92DF92EF92FF920F9336
:101240001F93CF93DF936B018091B2028A3108F430
:1012500080C0DB011A96CD91DC911B978881998122
:10126000845F914080F4FB01118610868FEF9FEF21
:10127000AFEFBFEF84839583A683B78389E090E0C7
:101280009183808361C08A819B8160E679E00E94BE
:101290005508892B09F45DC02696EE24FF248701AA
:1012A00062E0A62EB12C30C02297888199812296C7
:1012B00068E572E00E945A08892B79F1888199814A
:1012C00060EB74E00E945508892B69F0EE0CFF1C5E
:1012D000001F111F81E090E0A0E0B0E0E82AF92AA9
:1012E0000A2B1B2B0CC08881998168E572E00E9453
:1012F0005508892B71F1EE0CFF1C001F111FA2E095
:10130000B0E0AA0EBB1E24968091B20295012F5F19
:101310003F4F90E0281739073CF2C501019795959A
:101320008795F601918780870C971CF411861086AB
:1013300010C0D6011496ED92FD920D931C93179751
:1013400082E090E08D939C9321E030E040E050E01B
:1013500004C020E030E040E050E0B901CA01DF9174
:10136000CF911F910F91FF90EF90DF90CF90BF90A2
:10137000AF900895AF92BF92CF92DF92EF92FF921B
:101380000F931F93CF93DF936B018091B2028A3149
:1013900008F489C0DB011A96CD91DC911B978881F6
:1013A00099818052934080F4FB01118610868FEF63
:1013B0009FEFAFEFBFEF84839583A683B78389E068
:1013C00090E0918380836AC08A819B816CEA7DE092
:1013D0000E945508892B09F466C08C819D816CEAB6
:1013E0007DE00E945508892B09F45DC02896EE2403
:1013F000FF248701A3E0AA2EB12C30C02297888158
:101400009981229666EB73E00E945A08892B79F144
:101410008881998160E679E00E945508892B69F0FE
:10142000EE0CFF1C001F111F81E090E0A0E0B0E077
:10143000E82AF92A0A2B1B2B0CC0888199816CEBB6
:1014400072E00E945508892B71F1EE0CFF1C001F01
:10145000111FA2E0B0E0AA0EBB1E24968091B2023A
:1014600095012F5F3F4F90E0281739073CF2C501E7
:10147000019795958795F601918780870C971CF4C5
:101480001186108610C0D6011496ED92FD920D9330
:101490001C93179789E090E08D939C9321E030E0B6
:1014A00040E050E004C020E030E040E050E0B9010E
:1014B000CA01DF91CF911F910F91FF90EF90DF90C4
:1014C000CF90BF90AF9008956F927F928F929F922E
:1014D000AF92BF92CF92DF92EF92FF920F931F9342
:1014E000CF93DF934B018091B202823208F47AC02D
:1014F000DB011A96CD91DC911B978A819B816EE569
:1015000071E00E945508892B09F46CC036E0A32EC7
:10151000B12CAC0EBD1EEE24FF24870122E0C22EAA
:10152000D12C37C0E5012297888199816EE977E057
:101530000E945508892B69F0EE0CFF1C001F111F3B
:1015400081E090E0A0E0B0E0E82AF92A0A2B1B2B0A
:101550000DC0888199816EEE72E00E945508892B3A
:1015600009F440C0EE0CFF1C001F111FD5018D9126
:101570009C916EE571E00E945A08E4E0F0E0AE0E46
:10158000BF1E892B11F463010FC022E030E0C20EB0
:10159000D31E36010894611C711C8091B20290E048
:1015A000681679060CF4BECFC6010197959587950C
:1015B000D40119969C938E93189740972CF4199602
:1015C0001C921E9218970EC0F401E482F5820683E5
:1015D00017838AE090E09183808321E030E040E04F
:1015E00050E004C020E030E040E050E0B901CA0122
:1015F000DF91CF911F910F91FF90EF90DF90CF90EF
:10160000BF90AF909F908F907F906F9008956F9252
:101610007F928F929F92AF92BF92CF92DF92EF9282
:10162000FF920F931F93CF93DF93FB013A01590170
:101630006801DA012D913C91848595852817390739
:1016400024F071E0E72EF12C56C0C901880F991FD4
:101650000284F385E02DE80FF91F80819181982E97
:10166000892E20FD06C00CE91FEF51E0E52EF12C7C
:1016700004C004E610E0EE24FF24B8016C0D7D1DCB
:10168000892D982D0E940C08892B19F021E030E05B
:1016900020C0E601CC0FDD1FB8016C0F7D1F892D26
:1016A000982D0E940C08892B19F022E030E011C01F
:1016B000CC0DDD1D0C0F1D1F892D982DB8010E942A
:1016C0000C08892B21F4EE24EA94FE2C14C023E0AC
:1016D00030E0F501808191810196918380838217AA
:1016E00093074CF011821082D3018D919C91119738
:1016F00001968D939C93C701DF91CF911F910F911C
:10170000FF90EF90DF90CF90BF90AF909F908F9021
:101710007F906F9008952F923F924F925F926F92B9
:101720007F928F929F92AF92BF92CF92DF92EF9271
:10173000FF920F931F93DF93CF9300D000D000D080
:10174000CDB7DEB71C015B018091B2028D3008F489
:101750007EC081E090E09A8389831C821B82A3E093
:101760008A2E912C8C0E9D1EC1013E010894611C95
:10177000711CA301940109E713E00E94070B892B58
:1017800009F065C0C101B501A30194010E94070BD6
:10179000019709F05CC0C101B501A30194010E9449
:1017A000070B892B09F053C044245524CC24DD2495
:1017B0007601C4018D829E832FC0C101B501A301B2
:1017C0002D813E8109E713E00E94070B4C01C10106
:1017D000B501A3012D813E810E94070B21E08216F5
:1017E000910479F4892B99F5CC0CDD1CEE1CFF1CBF
:1017F00081E090E0A0E0B0E0C82AD92AEA2AFB2ADA
:1018000008C0892821F5019711F5CC0CDD1CEE1CD0
:10181000FF1C0894411C511C8091B20290E0298168
:101820003A81281739074CF2D50119965C924E92ED
:101830001897F501C482D582E682F78283E090E0B2
:101840009183808321E030E040E050E004C020E05C
:1018500030E040E050E0B901CA0126960FB6F89496
:10186000DEBF0FBECDBFCF91DF911F910F91FF90D3
:10187000EF90DF90CF90BF90AF909F908F907F9030
:101880006F905F904F903F902F9008952F923F92CE
:101890004F925F926F927F928F929F92AF92BF9280
:1018A000CF92DF92EF92FF920F931F93DF93CF932C
:1018B000CDB7DEB728970FB6F894DEBF0FBECDBF09
:1018C0001C014B01DB011C968D919C911D971816F4
:1018D00019060CF0C4C081E090E09A8389831A96BF
:1018E0000D911C911B97F801828193816AE67AE041
:1018F0000E945508892B09F4B2C082E090E09A83D7
:101900008983D80114968D919C91159769E773E0AE
:101910000E945A08892B09F4A2C083E090E09A83C0
:1019200089831C821B8203E0A02EB12CAC0EBD1E4D
:10193000C101B4013E010894611C711CA301950111
:101940000CEB11E00E94070B892B09F088C0C10144
:10195000B401A30195010E94070B019709F07FC014
:10196000CC24DD24760144245524C501AD829E8318
:10197000C3016F82988756C0C101B4014F81588559
:101980002D813E810CEB11E00E94070B3C01B3E07E
:101990004B16510461F4C101B4014F8158852D816A
:1019A0003E810E94070B6816790609F058C0C101F4
:1019B000B4014F8158852D813E810CEB11E00E94CE
:1019C000070B5C01E3E04E16510459F4C101B40168
:1019D0004F8158852D813E810E94070BA816B906BC
:1019E000F1F56114710489F4F1E0AF16B104B9F5B1
:1019F000CC0CDD1CEE1CFF1C81E090E0A0E0B0E010
:101A0000C82AD92AEA2AFB2A0AC091E06916710479
:101A100031F5AB2821F5CC0CDD1CEE1CFF1C089425
:101A2000411C511C29813A81D4011C968D919C91B5
:101A30001D97281739070CF49FCF19965C924E9288
:101A40001897F401C482D582E682F78284E090E0A0
:101A50009183808321E030E040E050E004C020E04A
:101A600030E040E050E0B901CA0128960FB6F89482
:101A7000DEBF0FBECDBFCF91DF911F910F91FF90C1
:101A8000EF90DF90CF90BF90AF909F908F907F901E
:101A90006F905F904F903F902F9008956F927F923C
:101AA0008F929F92AF92BF92CF92DF92EF92FF926E
:101AB0000F931F93CF93DF937B01FB01C285D385E7
:101AC0008A819B816EEA7DE00E945508892B09F48A
:101AD00074C08C819D8166ED76E00E945508892B4B
:101AE00009F46BC0269600E010E0DD24CC24992494
:101AF00088247724662483E0A82EB12C88819981DC
:101B000066EF71E00E945508892B09F456C08A815E
:101B10009B816CED74E00E945A08892B69F0980152
:101B20004D2D5C2D692D782D872D962D01E00E947D
:101B30001F02022F016013C08A819B8160E971E05E
:101B40000E945A08892BC9F198014D2D5C2D692DF1
:101B5000782D872D962D01E00E941F02022F132F52
:101B6000D42EC52E962E872E782E692E2496F1E639
:101B7000AF16B10429F082E090E0A80EB91EBECFE6
:101B8000C801F70104839583468357839801872D05
:101B9000962D00E20E94A001C901F70122839383E0
:101BA00087E090E09183808380E390E09187808755
:101BB00021E030E040E050E004C020E030E040E0D0
:101BC00050E0B901CA01DF91CF911F910F91FF90B1
:101BD000EF90DF90CF90BF90AF909F908F907F90CD
:101BE0006F9008958F929F92AF92BF92CF92DF92A3
:101BF000EF92FF920F931F93CF93DF936B0180912E
:101C0000B202823209F0B2C0DB011A96CD91DC91AA
:101C10001B978A819B8168E572E00E945508892B99
:101C200009F4A4C08091B20221E030E0281B310900
:101C3000220F331FC21BD30B8881998168E572E0A4
:101C40000E945508892B09F491C0F601118610866F
:101C50008FEF9FEFAFEFBFEF84839583A683B783AA
:101C600088E090E09183808369C08091B2028132E4
:101C700008F469C0D50114968D919C91159760EA7E
:101C80007FE00E945A08892B09F45DC0E501269681
:101C9000EE24FF24870133E0832E912C88819981E3
:101CA00068E572E00E945508892B09F44CC08A81CE
:101CB0009B8160E476E00E945A08892B69F0EE0C63
:101CC000FF1C001F111F81E090E0A0E0B0E0E82AB7
:101CD000F92A0A2B1B2B0CC08A819B8166E272E0D9
:101CE0000E945A08892B79F1EE0CFF1C001F111F6E
:101CF000A2E0B0E08A0E9B1E2496B3E28B169104FC
:101D000069F6E6E4F0E0AE0EBF1ED5018D919C9120
:101D100068E572E00E945508892BA9F080E190E007
:101D2000F60191878087D6011496ED92FD920D936E
:101D30001C93179788E090E08D939C9321E030E00E
:101D400040E050E004C020E030E040E050E0B90165
:101D5000CA01DF91CF911F910F91FF90EF90DF901B
:101D6000CF90BF90AF909F908F900895F601A2847E
:101D7000B384D50112968D919C91139760E47FE115
:101D80000E945508892B09F070CFDDCF2F923F922A
:101D90004F925F926F927F928F929F92AF92BF927B
:101DA000CF92DF92EF92FF920F931F93DF93CF9327
:101DB00000D0CDB7DEB71B01FB0184859585863049
:101DC00091052CF420E030E040E050E081C0F5ECDB
:101DD000AF2EFDE9BF2EFCE1CF2EF1E8DF2EE6E0CD
:101DE0004E2E512C9C01220F331F3A83298359C058
:101DF000F101A285B385F2013497EA0FFB1FE08061
:101E0000F180A40DB51D6D917C9180E090E00E9461
:101E1000BE1F3B014C0100E010E0C801B7010E9469
:101E2000BE1F7B018C012DEC3CEC4CE45FE30E9477
:101E300074209B01AC01C401B3010E94211F8823BF
:101E40001CF400E010E018C0C401B3012DEC3CEC20
:101E50004CE45FE30E9474209B01AC01C801B70110
:101E60000E94211F082F112707FD10950027110F31
:101E7000001F11270F5F1F4FC601B50123E931E095
:101E800040E051E00E94D7205801CC24B7FCC09418
:101E9000DC2CA626B726C826D92622E030E0420E42
:101EA000531E89819A814816590609F0A1CFF10184
:101EB000A482B582C682D78280E290E09187808733
:101EC0008FEF9FEF9183808321E030E040E050E08E
:101ED000B901CA010F900F90CF91DF911F910F911F
:101EE000FF90EF90DF90CF90BF90AF909F908F903A
:101EF0007F906F905F904F903F902F9008950F9339
:101F00001F93CF93DF938C01EB018AEE91E09B87C7
:101F10008A878091B2028C871D868091E601853088
:101F200009F057C0C8010E946A0861157105810552
:101F3000910509F051C0C801BE010E94190961153F
:101F400071058105910509F047C0C801BE010E94D5
:101F5000BA096115710581059105F1F5C801BE0148
:101F60000E94640A6115710581059105A9F5C801F2
:101F7000BE010E948B0B611571058105910561F50C
:101F8000C801BE010E94460C6115710581059105CD
:101F900019F5C801BE010E944E0D6115710581053C
:101FA0009105D1F4C801BE010E94F20D61157105C1
:101FB0008105910589F4C801BE010E94C60E611514
:101FC00071058105910541F482E08093E60110924C
:101FD000B20220E030E002C021E030E0C901DF9130
:101FE000CF911F910F9108951F920F920FB60F92EC
:101FF00011242F933F934F935F936F937F938F930E
:102000009F93AF93BF93EF93FF938091E5010E945D
:102010003E17482F8091E8019091E9010196909335
:10202000E9018093E8018091B202843618F085E0DE
:102030008093E6018091E6018330D1F0843020F472
:10204000823009F059C006C0843071F1853009F042
:1020500053C04CC0442309F04FC08091E8019091D7
:10206000E9018436910508F443C01092B2021EC003
:10207000413009F041C08091B202E82FF0E0209198
:10208000E8013091E901EE0FFF1FEB51FE4F36835F
:1020900025838F5F8093B2021092E9011092E801CC
:1020A00084E08093E60128C04423B9F48091B20211
:1020B000E82FF0E02091E8013091E901EE0FFF1FD9
:1020C000EB51FE4F368325838F5F8093B2021092CF
:1020D000E9011092E80183E0E4CF8091E80190915A
:1020E000E9018536910540F085E0DBCF442321F4FA
:1020F0001092E9011092E8018091E701882329F00C
:10210000442311F42D9A01C02D98FF91EF91BF91B6
:10211000AF919F918F917F916F915F914F913F917F
:102120002F910F900FBE0F901F901895F89410925A
:10213000C00081E08093C1001092C2001092C300E1
:102140001092C400EFEBF0E083E0808380E28093A4
:10215000D1001082EEEBF0E0118210820190F0814C
:10216000E02D84E080937200789482E08093E60111
:102170001092B2028091E50160E00E947E160895FF
:102180000F931F938C01FC01868160E00E940B1766
:1021900081E090E00E947915F801868161E00E945B
:1021A0000B1781E090E00E947915F801868160E0CC
:1021B0000E940B1784E690E00E9479151F910F9101
:1021C0000895CF92DF92EF92FF920F931F93CF93D8
:1021D000DF93D82EC92E282F392FC9018C01C0E0DA
:1021E000D0E0E62EFF24F801878161E00E947E1690
:1021F000B7010C2E02C0759567950A94E2F76170DD
:10220000F80187810E940B1721960F5F1F4FC8307E
:10221000D10549F78D2D9C2D0E94C010DF91CF91E3
:102220001F910F91FF90EF90DF90CF900895CF9284
:10223000DF92EF92FF920F931F93CF93DF93D82EED
:10224000C92E282F392FC9018C01C0E0D0E0E62E1D
:10225000FF24F801878161E00E947E16B7010C2EF1
:1022600002C0759567950A94E2F76170F80187815D
:102270000E940B1721960F5F1F4FC430D10549F7FD
:102280008D2D9C2D0E94C010DF91CF911F910F9139
:10229000FF90EF90DF90CF9008951F93CF93DF933F
:1022A000EC01162F8C81642F0E940B178D818F3FBC
:1022B00019F060E00E940B178F8584FF05C0CE01E6
:1022C000612F0E94E1100EC0612F70E084E07595CF
:1022D00067958A95E1F7CE010E941711CE01612F13
:1022E0000E941711DF91CF911F91089541E00E9444
:1022F0004D1181E090E0089540E00E944D11089555
:10230000FC016089862F8460808B6C60CF010E9405
:102310007C110895DF93CF93CDB7DEB728970FB622
:10232000F894DEBF0FBECDBF9C01FE013196A8E63A
:10233000B1E088E00D9001928150E1F7F9018389C5
:10234000481710F0482F4150E42FF0E0EE0FFF1F28
:10235000EC0FFD1F8181680F6068C9010E947C112C
:1023600028960FB6F894DEBF0FBECDBFCF91DF9198
:10237000089561E00E947C1180ED97E00E9479153C
:102380000895CF93DF93EC01423018F08F85886079
:102390008F874B8B1C8A222329F0413019F48F85BB
:1023A00084608F8780E593EC0E9479158C8160E0D2
:1023B0000E940B178E8160E00E940B178D818F3F6A
:1023C00019F060E00E940B176F8564FD1DC0CE01FF
:1023D00063E00E94171184E991E10E947915CE0112
:1023E00063E00E94171184E991E10E947915CE0102
:1023F00063E00E94171186E990E00E947915CE01F2
:1024000062E00E94171116C06062CE010E947C112A
:1024100084E991E10E9479156F856062CE010E9486
:102420007C1186E990E00E9479156F856062CE018B
:102430000E947C116F856062CE010E947C1184E055
:10244000888BCE010E948011CE010E94B91182E0DA
:10245000898BCE0166E00E947C11DF91CF910895B7
:102460006F927F928F92AF92CF92EF920F931F93C2
:10247000DF93CF93CDB7DEB73C01162F842FF30146
:10248000448325830683E782C086A18682869D8554
:1024900093879E8594879F8595879889968761E025
:1024A0000E947E16F30185818F3F19F061E00E9442
:1024B0007E16F301868161E00E947E16112319F0D9
:1024C000F301178603C080E1F3018787C30160E150
:1024D00041E020E00E94C111CF91DF911F910F9147
:1024E000EF90CF90AF908F907F906F9008958F92E4
:1024F000AF92CF92EF920F931F93CF93DF93DC01B4
:10250000362F542F722F102FAE2C8C2C13961C921A
:102510001E92129784E691E011969C938E9300D0C0
:1025200000D0EDB7FEB73196CDB7DEB71982118274
:1025300012821382CD0161E0432F2FEF052FE72E8A
:10254000C12E0E9430120F900F900F900F90DF91CC
:10255000CF911F910F91EF90CF90AF908F900895F2
:10256000FC018091B3028C3090F480838F5F809364
:10257000B302815090E0FC01EE0FFF1FE80FF91F3E
:10258000EC54FD4F88EB9BE09283818308958FEF9D
:1025900080830895FC0120812C30B8F58181992732
:1025A00087FD909548E850E0481B590B440F551F94
:1025B000440F551F6417750784F08281992787FDA2
:1025C000909548E552E0481B590B440F551F440FA6
:1025D000551F641775070CF4AB0142505040CA01F7
:1025E000AA2797FDA095BA2F880F991FAA1FBB1F76
:1025F0004FB7F89430E0F901EE0FFF1FE20FF31F21
:10260000EC54FD4F928381834FBF0895AF92BF92E8
:10261000CF92DF92EF92FF920F931F93CF93DF93AE
:10262000EC019B0182E0603278070CF048C077FF34
:1026300003C020E030E005C0653B710514F024EBD9
:1026400030E000D000D0B901882777FD8095982F21
:102650002981332727FD3095E8E8AE2EB12CA21A48
:10266000B30AAA0CBB1CAA0CBB1CCC24B7FCC0949C
:10267000DC2CEA81FF27E7FDF09528E532E02E1BF0
:102680003F0B220F331F220F331F442737FD409586
:10269000542FEDB7FEB7218332834383548320E068
:1026A00030E040E050E004EBE02EF12C012D112D44
:1026B0000E94301D9B010F900F900F900F90CE0144
:1026C000B9010E94CA12DF91CF911F910F91FF9023
:1026D000EF90DF90CF90BF90AF900895CF92DF92B0
:1026E000EF92FF921F93CF93DF93EC01162F7A01A5
:1026F000690188818C3008F064C0862F61E00E94F7
:102700007E16888190E0FC01EE0FFF1FE80FF91F95
:10271000EC54FD4F1F738081807C812B808380E28D
:1027200092E08E199F0964E070E00E94162169838F
:1027300080E699E08C199D0964E070E00E94162102
:102740006A83A8818A2F6CE00E94F620682F70E0CF
:10275000AB01440F551F460F571F440F551F440F21
:10276000551F20E030E0C901840F951FFC01EE0FDA
:10277000FF1FE80FF91FEC54FD4F808186FD15C047
:102780002F5F3F4F2C30310571F724C0109280002D
:1027900082E0809381001092850010928400B19AAB
:1027A00080916F00826080936F008A2F90E0FC011F
:1027B000EE0FFF1FE80FF91FEC54FD4F808180647E
:1027C00080838881DF91CF911F91FF90EF90DF9000
:1027D000CF900895672BD1F2E8CF40E252E020E697
:1027E00039E00E946E1308951F920F920FB60F9258
:1027F00011242F933F934F935F936F937F938F9306
:102800009F93AF93BF93EF93FF938091D80287FF7D
:1028100005C010928500109284002BC02091D80230
:10282000332727FD30958091B30290E028173907B0
:1028300004F58091D802992787FD9095FC01EE0F51
:10284000FF1FE80FF91FEC54FD4F808186FF11C078
:102850008091D802992787FD9095FC01EE0FFF1F0C
:10286000E80FF91FEC54FD4F80818F7360E00E94E8
:102870000B178091D8028F5F8093D8022091D802E5
:10288000332727FD30958091B30290E02817390750
:102890000CF04EC08091D8028C300CF049C02091D1
:1028A0008400309185008091D802992787FD90950A
:1028B000FC01EE0FFF1FE80FF91FEC54FD4F818163
:1028C0009281280F391F30938900209388008091CE
:1028D000D802992787FD9095FC01EE0FFF1FE80FA6
:1028E000F91FEC54FD4F808186FF2BC08091D802E8
:1028F000992787FD9095FC01EE0FFF1FE80FF91F48
:10290000EC54FD4F80818F7361E00E940B1719C05A
:1029100080E49CE905C08091840090918500049634
:1029200090938900809388008FEF8093D80209C02C
:102930008091840090918500049680549C4940F3D6
:10294000EACFFF91EF91BF91AF919F918F917F91CE
:102950006F915F914F913F912F910F900FBE0F900C
:102960001F9018951F920F920FB60F9211242F935C
:102970003F938F939F93AF93BF938091DD0290918C
:10298000DE02A091DF02B091E0023091E1020196F7
:10299000A11DB11D232F2D5F2D3720F02D5701963E
:1029A000A11DB11D2093E1028093DD029093DE0210
:1029B000A093DF02B093E0028091D9029091DA02F5
:1029C000A091DB02B091DC020196A11DB11D8093A4
:1029D000D9029093DA02A093DB02B093DC02BF919C
:1029E000AF919F918F913F912F910F900FBE0F90BC
:1029F0001F9018959FB7F8942091D9023091DA0270
:102A00004091DB025091DC0286B5A89B06C08F3F47
:102A100021F02F5F3F4F4F4F5F4F9FBF542F432FEA
:102A2000322F2227280F311D411D511D82E0220F18
:102A3000331F441F551F8A95D1F7B901CA01089564
:102A40009B01AC017FB7F8948091D9029091DA0292
:102A5000A091DB02B091DC0266B5A89B05C06F3F78
:102A600019F00196A11DB11D7FBFBA2FA92F982F74
:102A70008827860F911DA11DB11D62E0880F991F47
:102A8000AA1FBB1F6A95D1F7BC012DC0FFB7F894F0
:102A90008091D9029091DA02A091DB02B091DC0220
:102AA000E6B5A89B05C0EF3F19F00196A11DB11D29
:102AB000FFBFBA2FA92F982F88278E0F911DA11D18
:102AC000B11DE2E0880F991FAA1FBB1FEA95D1F73D
:102AD000861B970B885E9340C8F2215030404040DF
:102AE000504068517C4F211531054105510571F663
:102AF0000895019739F0880F991F880F991F029741
:102B00000197F1F70895789484B5826084BD84B507
:102B1000816084BD85B5826085BD85B5816085BDD8
:102B2000EEE6F0E0808181608083E1E8F0E01082F1
:102B3000808182608083808181608083E0E8F0E032
:102B4000808181608083E1E9F0E080818260808320
:102B5000808181608083E0E9F0E080818160808312
:102B6000E1ECF0E0808184608083808182608083FA
:102B7000808181608083E3ECF0E0808181608083EC
:102B8000E0ECF0E0808182608083E2ECF0E0808124
:102B900081608083EAE7F0E08081846080838081C7
:102BA000826080838081816080838081806880836F
:102BB00008951F93CF93DF93182FEB0161E00E94DC
:102BC0007E16209709F48FC0CF3FD10509F48EC03F
:102BD000E12FF0E0EE5EFE4F8491883009F440C0B2
:102BE000893070F4823019F1833020F4813009F09B
:102BF00077C018C0833001F1843009F071C026C05D
:102C00008B3009F44BC08C3030F4893099F18A3024
:102C100009F066C039C08C3009F44DC08E3009F01F
:102C20005FC051C084B5806884BDC7BD63C084B532
:102C3000806284BDC8BD5EC0809180008068809342
:102C40008000D0938900C093880054C08091800098
:102C5000806280938000D0938B00C0938A004AC02A
:102C600080919000806880939000D0939900C093E9
:102C7000980040C080919000806280939000D09333
:102C80009B00C0939A0036C080919000886080932A
:102C90009000D0939D00C0939C002CC08091C000F8
:102CA00080688093C0008091C0008F7B8093C000BB
:102CB000C093CF001FC08091C00080628093C0008D
:102CC000C093D00017C08091C20088608093C2007A
:102CD0008091C2008B7F8093C200C093D2000AC053
:102CE000C038D1051CF4812F60E002C0812F61E063
:102CF0000E940B17DF91CF911F910895CF93DF931F
:102D0000482F50E0CA018C509F4FFC0134914A5229
:102D10005F4FFA018491882369F190E0880F991F31
:102D2000FC01E455FF4FA591B491FC01E654FF4F1F
:102D3000C591D491662351F42FB7F8948C91932FB9
:102D4000909589238C93888189230BC0623061F42C
:102D50002FB7F8948C91932F909589238C93888129
:102D6000832B88832FBF06C09FB7F8948C91832B49
:102D70008C939FBFDF91CF910895883071F1893096
:102D800068F4823031F1833020F4813009F042C0A0
:102D90001DC0833089F08430E9F512C08B3059F1C1
:102DA0008C3028F48930E9F08A30A1F51EC08C30CF
:102DB00031F18E3079F529C0809180008F7703C082
:102DC000809180008F7D80938000089584B58F77F7
:102DD00002C084B58F7D84BD0895809190008F7767
:102DE00007C0809190008F7D03C080919000877F05
:102DF0008093900008958091C0008F7703C08091E8
:102E0000C0008F7D8093C00008958091C200877FAD
:102E10008093C2000895FF920F931F93F62E482FC0
:102E200050E0CA018E5E9E4FFC012491CA018C5075
:102E30009F4FFC0114914A525F4FFA010491002305
:102E4000C9F0222319F0822F0E94BD16E02FF0E076
:102E5000EE0FFF1FE654FF4FA591B4919FB7F89472
:102E6000FF2021F48C911095812302C08C91812B3D
:102E70008C939FBF1F910F91FF9008950F931F9305
:102E8000482F50E0CA018E5E9E4FFC012491CA017A
:102E90008C509F4FFC0104914A525F4FFA011491EC
:102EA000112319F420E030E015C0222319F0822FFD
:102EB0000E94BD16812F90E0880F991F88539F4F65
:102EC000FC01A591B4918C9120E030E0802311F0B9
:102ED00021E030E0C9011F910F91089508952091DC
:102EE0002203309123038091240390912503281B12
:102EF000390B2F733070C90108952091220330914E
:102F0000230380912403909125032817390719F48E
:102F10002FEF3FEF09C0E0912403F0912503EE511C
:102F2000FD4F8081282F30E0C901089520912203B0
:102F300030912303809124039091250328173907AA
:102F400019F42FEF3FEF13C0E0912403F091250314
:102F5000EE51FD4F2081809124039091250301962D
:102F60008F739070909325038093240330E0C90100
:102F70000895109229031092280388EE93E0A0E0B0
:102F8000B0E080932A0390932B03A0932C03B0937B
:102F90002D0384E791E090932703809326030895FF
:102FA0000F931F93DF93CF930F92CDB7DEB78C01B2
:102FB000698380915D01882369F083E0BE016F5FC2
:102FC0007F4F41E050E00E94BB1A1816190614F416
:102FD0009C0107C081E090E0F8019383828320E0A8
:102FE00030E0C9010F90CF91DF911F910F910895AB
:102FF00083E00E94921A0895CF93DF9312C082E07B
:103000000E941D1A2FEF8F3F9207C9F0E091220313
:10301000F0912303EE51FD4F8083D0932303C0939F
:103020002203C0912203D09123032196CF73D07045
:103030008091240390912503C817D90701F7DF91E8
:10304000CF910895FC0180818E5F808380E86CE3DE
:1030500071E042E450E00E94361A0895FC0181813B
:103060009081913A59F4813209F04CC080E066E5D4
:1030700071E047E050E00E94361A42C0913209F0F8
:1030800041C0803239F486E591E067E070E00E944B
:103090007A1A36C0823209F035C0828180935D0190
:1030A0008091560190915701A0915801B09159011A
:1030B000805B9440A040B04019F580915D0180FD97
:1030C00012C087E797E790930108809300082BE0F0
:1030D00088E190E00FB6F894A895809360000FBE49
:1030E000209360000DC088E10FB6F89480936000D3
:1030F000109260000FBEA89510920108109200086F
:1031000081E0089580E00895CF93DF930E948315B6
:103110008CE393E00E949D1A0E942003C0E0D0E05F
:103120000E94AB052097E1F30E940000F9CFCF92F7
:10313000DF92EF92FF920F931F93CF93DF937C0167
:103140006B018A01C0E0D0E00FC0D6016D916D0126
:10315000D701ED91FC910190F081E02DC701099517
:10316000C80FD91F015010400115110571F7CE018C
:10317000DF91CF911F910F91FF90EF90DF90CF9053
:103180000895EF92FF920F931F938C01DC01ED9154
:10319000FC910190F081E02D6DE009957C01D80152
:1031A000ED91FC910190F081E02DC8016AE0099554
:1031B0009C012E0D3F1DC9011F910F91FF90EF90B3
:1031C0000895CF93DF93EC016115710519F420E0A8
:1031D00030E00FC0DB010D900020E9F71197A61B2E
:1031E000B70BE881F9810280F381E02DAD010995EB
:1031F0009C01C901DF91CF9108954F925F927F9218
:103200008F929F92AF92BF92CF92DF92EF92FF92F6
:103210000F931F93DF93CF93CDB7DEB7A1970FB670
:10322000F894DEBF0FBECDBF2C01742ECB0122302F
:1032300008F42AE019A231E2C32ED12CCC0EDD1EF7
:10324000822E9924AA24BB24672D752FA5019401F1
:103250000E94292179018A01C801B701A5019401C1
:103260000E94D720472D461B0894C108D1084A3038
:1032700014F4405D01C0495CF6014083E114F1049F
:103280000105110521F07E2C5F2DC801DDCFC201A3
:10329000B6010E94E118A1960FB6F894DEBF0FBEEA
:1032A000CDBFCF91DF911F910F91FF90EF90DF90F5
:1032B000CF90BF90AF909F908F907F905F904F90F6
:1032C0000895CF92DF92EF92FF920F931F93CF93C7
:1032D000DF93EC016A017B012115310541F4E8819E
:1032E000F9810190F081E02D642F09951FC02A30EB
:1032F0003105D1F477FF17C0E881F9810190F081A1
:10330000E02D6DE209958C0144275527BA014C192F
:103310005D096E097F09CE012AE00E94FD1898011F
:10332000280F391F04C02AE00E94FD189C01C90122
:10333000DF91CF911F910F91FF90EF90DF90CF9091
:103340000895EF92FF920F931F937B019A0100273C
:10335000F7FC0095102FB801A7010E9461191F9179
:103360000F91FF90EF900895CF92DF92EF92FF922E
:103370000F931F936C017B019A010027F7FC0095C6
:10338000102FB801A7010E9461198C01C6010E948B
:10339000C118080F191FC8011F910F91FF90EF90DE
:1033A000DF90CF9008950E94E1180895EF92FF9268
:1033B0000F931F937C010E94E1188C01C7010E94AA
:1033C000C118080F191FC8011F910F91FF90EF90AE
:1033D0000895282F809136038823C1F057FF1AC023
:1033E00015C02898909335038091F1008193E217DE
:1033F000F307B9F74115510539F08091F2008823A0
:1034000019F48BE68093E800AFBF02C04FEF5FEF87
:10341000CA010895AFB7F89427702093E90080910E
:10342000F200282F30E0241735070CF4A901FB0126
:103430009B01240F311D94E6DACFDF93CF930F92D7
:10344000CDB7DEB7BE016F5F7F4F41E050E00E9415
:10345000E919019719F02FEF3FEF03C08981282F59
:1034600030E0C9010F90CF91DF910895FF920F9343
:103470001F93F82E142F052F4091390350913A03D2
:10348000212F302FC901DC01FB016EEF29C0F7FEAF
:1034900002C0949101C0908120913703309138038C
:1034A00024173507ACF48091E8008570E1F3809132
:1034B000E80082FF03C02FEF3FEF17C09093F100A9
:1034C000C90101968F739070892B11F46093E80005
:1034D0002F5F3F4F30933803209337031197319676
:1034E0001097A9F6812F902F9C01C9011F910F9170
:1034F000FF9008959C018091E80082FFFCCFF901C4
:10350000260F311D03C08091F1008193E217F3076C
:10351000D1F7289884E6809335038BEF8093E800F9
:10352000CB0108958093E9008091F200882319F07F
:103530008AE38093E800089508951092360381E0AD
:103540008093D70080EA8093D80082E189BD09B4D6
:1035500000FEFDCF61E070E080E090E00E94201569
:1035600080E98093D8008CE08093E2001092E00024
:10357000559A209A08955F926F927F928F929F92B0
:10358000AF92BF92CF92DF92EF92FF920F931F9371
:10359000CF93DF93E82E842E752E809136038823F7
:1035A00071F18B01242F352FC901EC017AEFF72E31
:1035B00067E0962E9E2050E4552E8E2D90E040E23E
:1035C000A42EB12CA822B9223AE3632E20E4C22E05
:1035D000D12CC822D92258C09FB7F8949092E90004
:1035E0008091E80085FD02C020E004C08091F200D7
:1035F000252D281B9FBF222361F4FA9419F42FEF85
:103600003FEF4DC061E070E080E090E00E94201547
:103610003BC0822F90E0C817D9070CF42C2FC21B97
:10362000D1094FB7F8949092E900A114B10421F4A4
:1036300006C01092F10021502223D9F719C0E7FCEF
:1036400003C0F801922F10C0C801322F06C0FC0140
:103650000196E491E093F10031503323C1F706C0A5
:1036600081918093F10091509923D1F7020F111DA0
:103670008091E80085FF05C0209729F4C114D1048A
:1036800011F06092E8004FBF209709F0A5CF5D9838
:1036900084E680933403282D372DC9019C01C9018C
:1036A000DF91CF911F910F91FF90EF90DF90CF901E
:1036B000BF90AF909F908F907F906F905F90089594
:1036C0001F920F920FB60F9211242F933F934F9397
:1036D0005F936F937F938F939F93AF93BF93EF937A
:1036E000FF938091E1001092E100982F83FF0FC0BB
:1036F0001092E90081E08093EB001092EC0082E3ED
:103700008093ED001092360388E08093F00092FFE2
:1037100034C083E08093E9008091F200882319F09F
:103720008AE38093E8008FB7F89492E09093E900E1
:103730009091F2008FBF992321F086E293E00E94DE
:10374000FC1780913403882351F080913403815019
:103750008093340380913403882309F45D9A809127
:103760003503882351F080913503815080933503D0
:1037700080913503882309F4289AFF91EF91BF9136
:10378000AF919F918F917F916F915F914F913F91F9
:103790002F910F900FBE0F901F9018950F931F93AE
:1037A000DF93CF930F92CDB7DEB719828E010F5FF3
:1037B0001F4FC8010E942218C8010E94B01E8981B3
:1037C00090E00F90CF91DF911F910F9108951F927C
:1037D0000F920FB60F921124EF92FF921F932F9327
:1037E0003F934F935F936F937F938F939F93AF9389
:1037F000BF93EF93FF93DF93CF93CDB7DEB761977E
:10380000DEBFCDBF1092E9008091E80083FF0FC1B9
:10381000FE0131969E01275F3F4F03C08091F1006A
:103820008193E217F307D1F7289884E68093350354
:1038300082EF8093E800998197FF05C08091E800AE
:1038400080FFFCCF03C08EEF8093E800292F30E08B
:10385000C90180769070892B09F0C2C08A818823C3
:1038600029F41092F1001092F100D6C0813009F4D1
:10387000D3C0833009F4D0C0853049F48091E8008A
:1038800080FFFCCF8B8180688093E300C5C08630C9
:1038900009F07CC01C81EF80F8841230C1F51092D1
:1038A000E900109238031092370310923A031092F5
:1038B00039030E94CE1B99E0FE013996DF01292FC2
:1038C0001D922A95E9F799871A8791E09E8790E8DB
:1038D000988B9AEF998B2091370330913803275FAB
:1038E0003F4F3C872B878D871092E9001092380359
:1038F00010923703F0923A03E092390380E0BF015F
:1039000049E050E00E94361A0E94CE1B85C01092FA
:10391000E9001092380310923703F0923A03E092D4
:103920003903123241F482E290E00E94A81E892BF2
:1039300009F476C071C0113079F488E0E816F1041A
:1039400019F481E080933B0380913B03882309F0C5
:103950006BC0ECEBF1E013C0133009F061C08B8158
:10396000882319F4EEE7F1E00AC0823019F4E2E8A6
:10397000F1E005C0813009F053C0E4EAF1E0449180
:1039800080E8BF0150E00E94361A46C0873009F433
:1039900047C0883021F481E08093F1003DC0893038
:1039A000D9F523703070232BD9F5E1EEF1E091E0E9
:1039B00031E026E39093E9003093EB00849180930B
:1039C000EC002093ED009F5F3196953099F78EE7DC
:1039D0008093EA001092EA008B81809336031CC02A
:1039E0008F8198851092E900109238031092370366
:1039F00090933A03809339038D81882329F4CE0173
:103A000001960E942E1806C0823051F4CE01019614
:103A10000E94791D882321F08EEF8093E80007C073
:103A200081E28093EB0003C0EEECF1E0A8CF619659
:103A3000DEBFCDBFCF91DF91FF91EF91BF91AF91ED
:103A40009F918F917F916F915F914F913F912F91B6
:103A50001F91FF90EF900F900FBE0F901F90189541
:103A60002F923F924F925F926F927F928F929F928E
:103A7000AF92BF92CF92DF92EF92FF920F931F937C
:103A8000DF93CF93CDB7DEB73B014C0119012A017B
:103A90006D897E898F89988D6A197B098C099D09AA
:103AA000621A730A840A950AA40193010E94D7201E
:103AB000E218F30804091509A80197010E944B2197
:103AC0002A0D3B1D4C1D5D1DB901CA01CF91DF912F
:103AD0001F910F91FF90EF90DF90CF90BF90AF902C
:103AE0009F908F907F906F905F904F903F902F901E
:103AF0000895FC0191818081813A31F4913089F0FF
:103B000080E0933089F40DC0813269F49B3021F458
:103B1000828180935E0105C09A3029F4828180936E
:103B20005F0181E0089580E00895EF92FF920F9386
:103B30001F938C01E62EDC01ED91FC910480F58150
:103B4000E02D0995F82ED801ED91FC910680F781C2
:103B5000E02DC8016E2D09958F2D90E01F910F91DA
:103B6000FF90EF90089510923D0310924103109240
:103B7000400386E891E090933F0380933E030895CD
:103B8000EF92FF920F931F93DF93CF930F92CDB7D6
:103B9000DEB789838B017A0184E0BE016F5F7F4FBE
:103BA00041E050E00E94BB1A84E4B801A7010E94E2
:103BB000BB1A0F90CF91DF911F910F91FF90EF9063
:103BC000089582E048E050E00E94C01D0895FC0185
:103BD00016821782108611861286138614823496F6
:103BE000BF010E94E11D0895DC01683810F068589B
:103BF00029C0E62FF0E067FF13C0E058F04081E0F5
:103C000090E002C0880F991FEA95E2F7809514961C
:103C10002C911497282314962C93149760E012C0CB
:103C2000ED59FD4F6491662319F420E030E01DC08A
:103C300067FF08C014968C9114978D7F14968C930F
:103C400014976F77FD0190E0662321F08681861737
:103C500009F416829F5F31969630B1F7CD01149624
:103C6000BD010E94E11D21E030E0C9010895CF931C
:103C7000DF93DC01683810F0685825C0E62FF0E0CB
:103C800067FF12C0E058F04081E090E002C0880F6A
:103C9000991FEA95E2F714962C911497282B149605
:103CA0002C93149760E00FC0ED59FD4F649166238B
:103CB000D9F167FF08C014968C911497826014960E
:103CC0008C9314976F7716968C9116978617A9F197
:103CD00017968C911797861781F118968C911897E3
:103CE000861759F119968C911997861731F11A9602
:103CF0008C911A97861709F11B968C911B97861742
:103D0000E1F0ED01E0E0F0E09E2F8E81882321F4C8
:103D1000EA0FFB1F668306C09F5F31962196E6304F
:103D2000F10591F7963049F481E090E013969C9369
:103D30008E93129720E030E007C0CD011496BD01AC
:103D40000E94E11D21E030E0C901DF91CF9108958B
:103D500080E865EE71E045E650E00E94361A08956D
:103D6000FC0180818F5F808380E86AE472E049E132
:103D700050E00E94361A08955058BB27AA270ED04B
:103D800075C166D130F06BD120F031F49F3F11F452
:103D90001EF45BC10EF4E095E7FB51C1E92F77D12A
:103DA00080F3BA17620773078407950718F071F458
:103DB0009EF58FC10EF4E0950B2EBA2FA02D0B01AE
:103DC000B90190010C01CA01A0011124FF27591B60
:103DD00099F0593F50F4503E68F11A16F040A22F66
:103DE000232F342F4427585FF3CF469537952795D7
:103DF000A795F0405395C9F77EF41F16BA0B620BD6
:103E0000730B840BBAF09150A1F0FF0FBB1F661F1C
:103E1000771F881FC2F70EC0BA0F621F731F841F5F
:103E200048F4879577956795B795F7959E3F08F085
:103E3000B3CF9395880F08F09927EE0F9795879544
:103E40000895D9D008F481E008950CD00FC107D1AE
:103E500040F0FED030F021F45F3F19F0F0C0511176
:103E600039C1F3C014D198F39923C9F35523B1F3A1
:103E7000951B550BBB27AA2762177307840738F0D9
:103E80009F5F5F4F220F331F441FAA1FA9F333D038
:103E90000E2E3AF0E0E830D091505040E695001CEC
:103EA000CAF729D0FE2F27D0660F771F881FBB1FA8
:103EB000261737074807AB07B0E809F0BB0B802D82
:103EC000BF01FF2793585F4F2AF09E3F510568F0CE
:103ED000B6C000C15F3FECF3983EDCF38695779562
:103EE0006795B795F7959F5FC9F7880F911D9695D0
:103EF000879597F90895E1E0660F771F881FBB1F2C
:103F0000621773078407BA0720F0621B730B840BD8
:103F1000BA0BEE1F88F7E095089504D06894B111AC
:103F2000D9C00895BCD088F09F5790F0B92F992739
:103F3000B751A0F0D1F0660F771F881F991F1AF0B4
:103F4000BA95C9F712C0B13081F0C3D0B1E008957D
:103F5000C0C0672F782F8827B85F39F0B93FCCF3FE
:103F6000869577956795B395D9F73EF490958095AA
:103F7000709561957F4F8F4F9F4F0895E89409C0CA
:103F800097FB3EF490958095709561957F4F8F4F8C
:103F90009F4F9923A9F0F92F96E9BB279395F695A2
:103FA000879577956795B795F111F8CFFAF4BB0F20
:103FB00011F460FF1BC06F5F7F4F8F4F9F4F16C084
:103FC000882311F096E911C0772321F09EE8872F0E
:103FD000762F05C0662371F096E8862F70E060E0CA
:103FE0002AF09A95660F771F881FDAF7880F969543
:103FF000879597F90895990F0008550FAA0BE0E8E7
:10400000FEEF16161706E807F907C0F0121613069A
:10401000E407F50798F0621B730B840B950B39F4DA
:104020000A2661F0232B242B252B21F408950A2640
:1040300009F4A140A6958FEF811D811D089597F980
:104040009F6780E870E060E008959FEF80EC08953E
:1040500000240A9416161706180609060895002467
:104060000A9412161306140605060895092E0394E1
:10407000000C11F4882352F0BB0F40F4BF2B11F455
:1040800060FF04C06F5F7F4F8F4F9F4F089557FDB4
:104090009058440F551F59F05F3F71F04795880FB6
:1040A00097FB991F61F09F3F79F08795089512164D
:1040B00013061406551FF2CF4695F1DF08C01616F9
:1040C00017061806991FF1CF8695710561050894AA
:1040D0000895E894BB2766277727CB0197F90895C1
:1040E0008ADF08F48FEF08950BD0C0CFB1DF28F03E
:1040F000B6DF18F0952309F0A2CFA7CF1124EACF9D
:10410000C6DFA0F3959FD1F3950F50E0551F629F36
:10411000F001729FBB27F00DB11D639FAA27F00D20
:10412000B11DAA1F649F6627B00DA11D661F829F47
:104130002227B00DA11D621F739FB00DA11D621F2C
:10414000839FA00D611D221F749F3327A00D611D49
:10415000231F849F600D211D822F762F6A2F11242B
:104160009F5750408AF0E1F088234AF0EE0FFF1F7E
:10417000BB1F661F771F881F91505040A9F79E3FB5
:10418000510570F05CCFA6CF5F3FECF3983EDCF3B7
:10419000869577956795B795F795E7959F5FC1F7F2
:1041A000FE2B880F911D9695879597F90895629F2C
:1041B000D001739FF001829FE00DF11D649FE00D1F
:1041C000F11D929FF00D839FF00D749FF00D659F80
:1041D000F00D9927729FB00DE11DF91F639FB00D7F
:1041E000E11DF91FBD01CF0111240895991B79E04C
:1041F00004C0991F961708F0961B881F7A95C9F777
:1042000080950895AA1BBB1B51E107C0AA1FBB1FC5
:10421000A617B70710F0A61BB70B881F991F5A9552
:10422000A9F780959095BC01CD01089597FB092EC3
:1042300007260AD077FD04D0E5DF06D000201AF467
:10424000709561957F4F0895F6F7909581959F4FF2
:104250000895A1E21A2EAA1BBB1BFD010DC0AA1FC7
:10426000BB1FEE1FFF1FA217B307E407F50720F0DF
:10427000A21BB30BE40BF50B661F771F881F991F5A
:104280001A9469F760957095809590959B01AC01A3
:10429000BD01CF01089597FB092E05260ED057FDCD
:1042A00004D0D7DF0AD0001C38F4509540953095E3
:1042B00021953F4F4F4F5F4F0895F6F790958095AA
:1042C000709561957F4F8F4F9F4F0895EE0FFF1FA1
:0C42D0000590F491E02D0994F894FFCFC4
:1042DC0043757272656E743A2000323730203D207F
:1042EC0000333135203D200030203D200034352076
:1042FC003D20003930203D20004D696E20646973EB
:10430C0074616E6365203D20004D6F746F72207375
:10431C00746F7000536572766F206E6F74207275B7
:10432C006E6E696E670000E1000000000000010184
:10433C000000000076119718000040001400540093
:10434C0000000000D01797186F1796177D17F817F5
:10435C00FC1700000000951D9718371EF41DE71D73
:00000001FF
